:10000000FF004C6174746963650069434563756200
:10001000653220323031372E30312E32373931349B
:1000200000506172743A20694345354C50344B2D71
:10003000535747333600446174653A204A616E2055
:10004000313120323031382031303A32303A00FF0D
:100050003335007EAA997E5100010592002062028C
:10006000B37200B082000011000101000000000026
:100070000000000000001000000000000040000030
:10008000000000010000000000000400000000006B
:100090000010000040000000000000000010000000
:1000A000000000004000000000000100000000000F
:1000B00000040000000000001000004000000000EC
:1000C000000000000000000000000000020000002E
:1000D00000000008000000000000200000000000F8
:1000E000008000000000000200000000000000008E
:1000F00000000002000000000000000000000000FE
:10010000002000000000000080000000000002004D
:1001100000000000000800000000000000000000D7
:1001200000000000000000000000000000000000CF
:1001300000000000000000000000000000000000BF
:10014000004003000000000000000000000000006C
:10015000000000000000000000000000000000009F
:10016000000000000000000040000000000000004F
:10017000000000000000000000000000000000007F
:10018000000000000000000000000000000000006F
:1001900000000000000000000080000000000000DF
:1001A00000000000005800000000000000000000F7
:1001B000000000000400000000000000000000003B
:1001C000000000000000000000000000000000002F
:1001D000000000000000000000000000000000001F
:1001E000000000000000000000000000000080008F
:1001F00000030000000000000000000000000000FC
:1002000000000000000000000000000000000000EE
:10021000000000000080000000000000000000005E
:1002200000000000000000000000000000000000CE
:1002300000000000000000000000000000000000BE
:10024000000000000000000050000000000000005E
:10025000000000000000000000000000000000009E
:10026000000000000000000000000000000000404E
:10027000000000000000000000000000000000007E
:10028000000000000000000000000000000000006E
:10029000000000000000000000000000000000005E
:1002A000000000000000000001000000000000004D
:1002B000000000000000000000000000000000003E
:1002C000000000000100000000000000000000002D
:1002D000000000000000000000000000000000001E
:1002E000000000000000000000000000000000000E
:1002F000000000000000000000000000000000807E
:1003000000000000000000000000000000000000ED
:1003100000000000000000000000010000000000DC
:1003200000000000000000000000000000000000CD
:1003300000000000000000000000000000000000BD
:1003400000000000000000000000000000000000AD
:10035000000000000000010000000000000000009C
:10036000000000000000000000000000000000008D
:1003700003800000000000000000000000000000FA
:10038000000000000000000000000000000000006D
:10039000000000000000000000000000000000005D
:1003A000000000000000000000000000000000004D
:1003B000000000000000000000000000000000003D
:1003C0000000000000000008000000000000000025
:1003D000000000000000000000000000000000001D
:1003E000000000000000000000000000000000000D
:1003F00000000000000003000500000000000000F5
:1004000000000000050000000000000000000000E7
:1004100000000000000000000000000000000000DC
:10042000400000000000000000000000000000008C
:1004300000000000000000000000000000000000BC
:100440000000000000000000000000040080001C0C
:100450000000000000000004000000700000000028
:10046000000000000000000000000000000000008C
:100470000000000000000C00000000000000000070
:10048000000000000000000000000000000000006C
:10049000000000000000000000000000000000005C
:1004A0000000000500000000000000000000400007
:1004B00000000000000000000C0000000000000030
:1004C000000000000000000000000000000000002C
:1004D000000000000000000000000000000000001C
:1004E000000000000000000000000000000000000C
:1004F00000000000000000000400080000000000F0
:1005000000000000040000000000000000000000E7
:1005100000000000000000000000000000000000DB
:1005200000000000000000000000000000000000CB
:1005300000000000000000000000000000000000BB
:1005400000000000000000000000000000000000AB
:100550000100000000000000000000000001000099
:10056000000000000000000000000000000000008B
:10057000000000000000000100000000000000007A
:10058000000000000000000000000000000000006B
:10059000000000000000000000000000000000005B
:1005A00000000000000800980000000000000000AB
:1005B0000008000000000000000000000000000033
:1005C00000000000000000000000000000008000AB
:1005D000000000000000000C3020000000000000BF
:1005E000000000000000000000000000000000000B
:1005F0000000000000000800003FD00000000000E4
:100600000000000033A8000000000000000000000F
:100610000000000000000000000000000001801049
:100620002940000000000000000000000000C3009E
:1006300000000000000000000000000000000000BA
:100640000000000000000000000000000070000337
:10065000FC0000000000000000000002800000001C
:10066000000000000000000000000000000000008A
:1006700000000000000F000000000000000000006B
:10068000000000000C30200000000000000000000E
:10069000000000000000000000000000000000005A
:1006A0000000800000003FD0000000000002800039
:1006B00000003FD00000000000000000000000002B
:1006C000000000000000000002800000003FD00099
:1006D0000000000000000000000000C30000000057
:1006E000000000000000000000000000000000000A
:1006F00000000004000000000800000003FC0000EF
:10070000000000000800000003FC000000000000E2
:1007100000002000000000000000000000000008B1
:1007200000000003FC0000000000000000000000CA
:10073000000C30200000000000000000000000005D
:1007400000000000000000000000000000000000A9
:100750000000000000000000000000000000000099
:100760000000000000000000000000000000000089
:100770000000000000000000000000000000000079
:100780000000000000000000C300000000000000A6
:100790000000000000000000000000000000000059
:1007A00000000000000000000000000000C0000089
:1007B0000000000000000000000000000000000039
:1007C0000000000000000000000000000000000029
:1007D00000000000000000000000000000000C30DD
:1007E00020000000000000000000000000000000E9
:1007F00000000000004000000000000000000000B9
:1008000000000000000000000000000000000000E8
:1008100000000000000000000000000000000000D8
:10082000000000000000000000000000000E0F00AB
:100830000000000000C300000000000000000000F5
:1008400000000000000000000000000400000000A4
:100850000000000000000000000000000000000098
:100860000000000000000000000000000000000088
:100870000000000000000000000000000000000078
:100880000000000000F000000000000C302000001C
:100890000000000000000000000000000000000058
:1008A0000000000000000000000000000000000048
:1008B00000000000000009800000000000000000AF
:1008C0000000000000000000000000000000000028
:1008D0000000000000000000000000000000000018
:1008E0000000C30000000000000000000000000045
:1008F00000000000000000000000000000000000F8
:100900000000000000000000000000000070000077
:1009100000000000000000000000000000000000D7
:100920000000000000000000F000000000000000D7
:1009300000000000000000000C302000000000005B
:1009400000000000000000000000000000000000A7
:100950000000000000000000000000000000000097
:100960000000000000000000000000000000000087
:100970000000000000000000000000000000000077
:10098000000000000000000000000000000000C3A4
:100990000000000000000000000000000000000057
:1009A0000000000000000000000000000000000047
:1009B0000000000000000000000000000000000037
:1009C00000000000000000500000000000000000D7
:1009D0000000000000000000000000000000000017
:1009E00000000000000C30200000000000000000AB
:1009F00000000000000000000000000000000020D7
:100A00000A5200000000000000000000000000008A
:100A100000000000000000000000000000000000D6
:100A20000000000000000000000000001A000000AC
:100A3000000004000000000000000000C3000000EF
:100A400000000000000000000000000000000000A6
:100A5000000000000000405A0000000000000000FC
:100A600000000000000000F0000000000000000096
:100A70000000000000000000000000000000000076
:100A80000000000000000000000000000000000066
:100A900000000C30200000000000000000000000FA
:100AA0000000000000000000000000000000000046
:100AB0000000000000000000000000000000000036
:100AC0000000000000000000000000000000000026
:100AD0000000000000000000000000000000000016
:100AE000000000000000000000C300000000000043
:100AF00000000000000000000000000000000000F6
:100B000000000000000000000000000000000000E5
:100B100000000000000000000000000000000000D5
:100B200000000000000000000000000000000000C5
:100B30000000000000000000000000000000000CA9
:100B40003020000000000000000000000000000055
:100B50000000000000000000000000000000000095
:100B60000000000000000000000000000000000085
:100B70000000000000000000000000000000000075
:100B800000000000000D0006829000000000000040
:100B9000000000000000C300000000000000000092
:100BA0000000000000000000000000000000000045
:100BB0000000000000000000000000000000000035
:100BC0000000000000000000000000000000000025
:100BD00000000000000000000000000018014015A7
:100BE0000000000000000000000000000C302000A9
:100BF00000000000000000000000000000000000F5
:100C000000000000000000000000000000000000E4
:100C100000000000000000000000000000000000D4
:100C200000000000000000000000000000000000C4
:100C300001800000DB9410000000046EF508000045
:100C4000000000C3000000000000000000000000E1
:100C50000000000000000000000000000000000094
:100C60000000000000000000000000000000000084
:100C70000000000000000000000000000000000074
:100C80000000002C0000000000000DA08500000006
:100C900002830F5000000000000C30200000000014
:100CA0000000000000000000000000000000000044
:100CB0000000000000000000000000000000000034
:100CC0000000000000000000000000000000000024
:100CD0000000000000000000000000000000000014
:100CE0000000000000000000000000000000000004
:100CF000C300000000000000000000000000000031
:100D000000000000000000000000000000000000E3
:100D100000000000000000000000000000000000D3
:100D20000000000000000000000000000000800043
:100D300000000000000100000000000000000000B2
:100D40000000000000000C30200000000000000047
:100D50000000000000000000000000000000000093
:100D60000000000000000000000000000000000083
:100D70000000000000000000000000000000000073
:100D8000000000000000000000000000001B000048
:100D900000000140000000000000000000C300004F
:100DA0000000000000000000000000000000000043
:100DB0000000000000000000000000000000000033
:100DC0000000000000000000000000000000000023
:100DD0000000000000000000000000000000000013
:100DE00000000000E0000000000000000000000023
:100DF0000000000C30200000000000000000000097
:100E000000000000000000000000000000000000E2
:100E100000000000000000000000000000000000D2
:100E200000000000000000000000000000000000C2
:100E300000000200000000000000000000000000B0
:100E400000000000000000000000C30000000000DF
:100E50000000000000000000000000000000000092
:100E60000000000000000000000000000000000082
:100E70000000000000000000000000000000000072
:100E8000000000000000000000140000000000004E
:100E90000000000000000000000000000000000052
:100EA0000C302000000000000000000000000000E6
:100EB0000000000000000000000000000000000032
:100EC0000000000000000000000000000000000022
:100ED0000000000000000000000000000000000012
:100EE000000000000000000013A00000000000004F
:100EF00000000000000000C300000000000000002F
:100F000000000000000000000000000000000000E1
:100F100000000000000000000000000000000000D1
:100F200000000000000000000000000000000000C1
:100F3000000000000000000000000000000007208A
:100F4000000000000000000000000000000C302045
:100F50000000000000000000000000000000000091
:100F60000000000000000000000000400000000041
:100F70000000000000000000000000000000000071
:100F80000000000000000000000000000000000061
:100F900000000001807EBD108000003800000000CD
:100FA00000000000C300000000000000000000007E
:100FB0000000000000000000000000000000000031
:100FC0000000000000000000000000000000000021
:100FD0000000000000000000000000000000000011
:100FE000000000000000000000007000C3D10000FD
:100FF000000400000000000000000C302000000091
:1010000000000000000000000000000000000000E0
:1010100000000000000000000000000000000000D0
:1010200000000000000000000000000000000000C0
:10103000000000000000000000000006CA000300DD
:10104000000100000000000000000000000000009F
:1010500000C30000000000000000000000000000CD
:101060000000000000000000000000000000000080
:101070000000000000000000000000000000000070
:101080000000000000000000000000000000000060
:10109000000020A0002000008000000000000000F0
:1010A000000000000000000C3020000000000000E4
:1010B0000000000000000000000000000000000030
:1010C0000000000000000000000000000000000020
:1010D0000000000000000000000000000000000010
:1010E000000000000000000000000000000180007F
:1010F0000000000000000000000000000000C3002D
:1011000000000000000000000000000000000000DF
:1011100000000000000000000000000000000000CF
:1011200000000000000000000000000000000000BF
:1011300000000000000000000000000000000000AF
:10114000000000000000000000000340000000005C
:10115000000000000C302000000000000000000033
:10116000000000000000000000000000000000007F
:10117000000000000000000000000000000000006F
:10118000000000000000000000000000000000005F
:101190000000600000000000018005007F001006D4
:1011A0000000000000000000000000C3000000007C
:1011B000000000000000000000000000000000002F
:1011C000000000000000000000000000000000001F
:1011D000000000000000000000000000000000000F
:1011E00000000000000000000000000000000000FF
:1011F000000001C03D0000000000000000000000F1
:10120000000C302000000000000000000000000082
:1012100000000000000000000000000000000000CE
:1012200000000000000000000000000000000000BE
:1012300000000000000000000000000000000000AE
:101240000200000000000000000000000C0400008C
:101250000000000000000000C300000000000000CB
:10126000000000000000000000000000000000007E
:10127000000000000000000000000000000000006E
:10128000000000000000000000000000000000005E
:10129000000000000000002400000000000000002A
:1012A000000000C0000000000000000000000C3042
:1012B000200000000000000000000000000000000E
:1012C000000000000000000000000000000000001E
:1012D000000000000000000000000000000000000E
:1012E00000000000000000000000000000000000FE
:1012F00000000000000000000000000000000000EE
:101300000000000000C3000000000000000000001A
:1013100000000000000000000000000000000000CD
:1013200000000000000000000000000000000000BD
:1013300000000000000000000000000000000000AD
:10134000000000000000000000000000A0000000FD
:1013500000000000000000000000000C3020000031
:10136000000000000000000000000000000000007D
:10137000000000000000000000000000000000006D
:10138000000000000000000000000000000000005D
:10139000000000000000000000000000000000004D
:1013A0000000001EA8100000000000000000000067
:1013B0000000C3000000000000000000000000006A
:1013C000000000000000000000000000000000001D
:1013D000000000000000000000000000000000000D
:1013E00000000000000000000001000000000000FC
:1013F0000000000000000000000042810100000029
:1014000000000000000000000C3020000000000080
:1014100000000000000000000000000000000000CC
:1014200000000000000000000000000000000000BC
:1014300000000000000000000000000000000000AC
:10144000000000000000000003C0000000000000D9
:101450000000000000000040A5600000000000C384
:10146000000000000000000000000000000000007C
:10147000000000000000000000000000000000006C
:10148000000000000000000000000000000000005C
:10149000000000000000000000000000000000202C
:1014A000000000000000E0000000000000000A54FE
:1014B00000000000000C30200000000000000000D0
:1014C000000000000000000000000000000000001C
:1014D000000000000000000000000000000000000C
:1014E00000000000000000000000000000000000FC
:1014F00000000000000035C00404000000000000EF
:10150000000000380000000000000000C3000000E0
:1015100000000000000000000000000000000000CB
:1015200000000000000000000000000000000000BB
:1015300000000000000000000000000000000000AB
:1015400000000000000000000000000002D00F407A
:101550000000000000000000000400000000000087
:1015600000000C302000000000000000000000001F
:10157000000000000000000000000000000000006B
:10158000000000000000000000000000000000005B
:10159000000000000000000000000000000000004B
:1015A000C00000000000030000180000000C000054
:1015B000000000000000000000C300000000000068
:1015C000000000000000000000000000000000001B
:1015D000000000000000000000000000000000000B
:1015E00000000000000000000000000000000000FB
:1015F00000000000000008000000000000200001C2
:101600000000000080000000000000000000000C4E
:10161000302000000000000000000000000000007A
:1016200000000000000000000000000000000000BA
:1016300000000000000000000000000000000000AA
:10164000000000000000000000000000000000009A
:101650000000000000000003BC10000000036A50FE
:10166000400000000000C300000000000000000077
:10167000000000000000000000000000000000006A
:10168000000000000000000000000000000000005A
:10169000000000000000000000000000000000004A
:1016A000000000000000000000000001000043C135
:1016B000000000C026884400000000000C3020001C
:1016C000000000000000000000000000000000001A
:1016D000000000000000000000000000000000000A
:1016E00000000000000000000000000000000000FA
:1016F00000000000000000000000000000000000EA
:1017000001800000000000060000026E5040000052
:10171000000000C300000000000000000000000006
:1017200000000000000000000000000000000000B9
:1017300000000000000000000000000000000000A9
:101740000000000000000000000000000000000099
:101750000000000000000000000000000000000089
:1017600002F600A500000000000C30200000000080
:101770000000000000000000000000000000000069
:101780000000000000000000000000000000000059
:101790000000000000000000000000000000000049
:1017A00000000000000000000000400000000008F1
:1017B00000000000000020016F1440000000000045
:1017C000C300000000000000000000000000000056
:1017D0000000000000000000000000000000000009
:1017E00000000000000000000000000000000000F9
:1017F00000000000000000000000000000000000E9
:1018000038000000000010000000000000401F939E
:101810000500000000000C30200000000000000067
:1018200000000000000000000000000000000000B8
:1018300000000000000000000000000000000000A8
:101840000000000000000000000000000000000098
:101850000000000000020000000000200000000066
:1018600000000000040000000000000000C30000B1
:101870000000000000000000000000000000000068
:101880000000000000000000000000000000000058
:101890000000000000000000000000000000000048
:1018A0000000000000000000000000001C0000001C
:1018B0000001000000000000000003C00000000064
:1018C0000000000C302000000000000000000000BC
:1018D0000000000000000000000000000000000008
:1018E00000000000000000000000000000000000F8
:1018F00000000000000000000000000000000000E8
:10190000000000000000000000000002BC10000009
:1019100000000000000000000000C3000000000004
:1019200000000000000000000000000000000000B7
:1019300000000000000000000000000000000000A7
:101940000000000000000000000000000000000097
:101950000000000000000000000000000000000087
:10196000000003C1050000000000000000000000AE
:101970000C3020000000000000000000000000000B
:101980000000000000000000000000000000000057
:101990000000000000000000000000000000000047
:1019A0000000000000000000000000000000000037
:1019B000000000000000000000000000A000000087
:1019C00000000000000000C3000000000000000054
:1019D0000000000000000000000000000000000007
:1019E00000000000000000000000000000000000F7
:1019F00000000000000000000000000000000000E7
:101A000000000000000000000000000000000000D6
:101A1000000004000000000000000000000C302066
:101A200000000000000000000000000000000000B6
:101A300000000000000000000000000000000000A6
:101A40000000000000000000000000000000000096
:101A5000000000000000000000000000000015A5CC
:101A6000F10000000000000000000604000000007B
:101A700000000000C30000000000000000000000A3
:101A80000000000000000000000000100000000046
:101A90000000000000000000000000000000000046
:101AA0000000000000000000000000000000000036
:101AB0000000100000205F00004000B000000001A6
:101AC000000200000000000000000C3020000000B8
:101AD0000000000000000000000000000000000006
:101AE00000000000000000000000000000000000F6
:101AF00000000000000000000000000000000000E6
:101B000000000000000000000000000000000300D2
:101B100000000000000C00000000000000000000B9
:101B200000C30000000000000000000000000000F2
:101B300000000000000000000000000000000000A5
:101B40000000000000000000000000000000000095
:101B50000000000000000000000000000000001075
:101B60000000000000204000000000008100000094
:101B70000000000000000000000000000000000065
:101B80000000000000000000000000000000000055
:101B90000000000000000000000000000000000045
:101BA00000000000000000000000014CF540800033
:101BB00000000000000000C0000000000000000065
:101BC0000000000400000000000000000000000011
:101BD0000000000000000000000000000000000005
:101BE00000000000000000000000000000000000F5
:101BF00000000000000000000000000000000000E5
:101C000000010F5410000000000000000000000060
:101C100000000000000000000000000000000000C4
:101C200000000000000000000000000000000000B4
:101C300000000000000000000000000000000000A4
:101C40000000000000000000000000000000000094
:101C50000000000006000000000000180000000066
:101C60000000600000000000018000000000000093
:101C70000000000000000000000000000000000064
:101C80000000000000000000000000000000000054
:101C90000000000000000000000000000000000044
:101CA0000000000000000000000000000000000034
:101CB0000000000000000000000000000000000024
:101CC0000000000000000000000000000000000014
:101CD0000000000000000000000000000000000004
:101CE00000000000000000000000000000000000F4
:101CF00000000000000000000000000000000000E4
:101D000000000020000000000000000000000000B3
:101D10000000040A540100800F00000001000000D0
:101D200000000000000000000000000000000000B3
:101D300000000000000000000000000000000000A3
:101D40000000000000000000000000000000000093
:101D50000000000000000000000040000000000043
:101D600000000000000000000000A54030000190CD
:101D70000000000000000000000000000000000063
:101D80000000000000000000000000000000000053
:101D90000000000000000000000000000000000043
:101DA0000000000000000000000000000000010032
:101DB0000000000000000000000000000000000023
:101DC0000000000000000000000000000000000013
:101DD0000000000000000000000000000000000003
:101DE00000000000000000000000000000000000F3
:101DF00000000000000000000000000000000000E3
:101E000000000000000000000000000000000000D2
:101E100000000000000000000000000000000000C2
:101E200000000000000000000000000000000000B2
:101E300000000000000000000000000000000000A2
:101E40000000000000000000000000000000000092
:101E5000000000000000000000000000000068001A
:101E60000000000000000000000000000000000072
:101E70000000000000000000002000000000000042
:101E80000000000000000000000000000000000052
:101E90000000000000000000000000000000000042
:101EA0000000000000000000000000000000000032
:101EB000000000000400000000000000000000001E
:101EC000000000000000000000000000000000040E
:101ED0000000000000000000000000000000000002
:101EE00000000000000000000000000000000000F2
:101EF00000000000000000000000000000000000E2
:101F000000000000000000000000000000000000D1
:101F1000008007F5950000000000000000000000B0
:101F200000000000000000000000000000000000B1
:101F300000000000000000000000000000000000A1
:101F40000000000000000000000000000000000091
:101F50000000000000000000000000000000000081
:101F6000000000000000000B0073E570000000009E
:101F70000000000000000000000000004000000021
:101F80000000000000000000000000000000000051
:101F90000000000000000000000000000000000041
:101FA0000000000000000000000000000000000031
:101FB00000000000000000000000000000008000A1
:101FC0000000000000000000000050200002BC10D3
:101FD00040000039EDFF000000000000000000009C
:101FE00000000000000000000000000000000000F1
:101FF00000000000000000000000400000000000A1
:10200000000000000000400000000000010000008F
:10201000000000040B0000000000100000000000A1
:102020000040000043C1000100003DCFB0000000AF
:1020300000000000000000000000000000000000A0
:102040000000000000000000000000000000000090
:102050000000000000000000000000000000000080
:1020600000000C000000000000300018000000001C
:10207000C00000000000030000000000000000207D
:102080000000000000000000000000000000000050
:102090000000000000000000000000000000000040
:1020A00000000000000000400000000000000000F0
:1020B000000000400000000000810000000000025D
:1020C00004000E0000000810000000000020400086
:1020D00000000000010140000000000000000000BE
:1020E00000000000000000000000000000000000F0
:1020F00000000000000000000000000000000000E0
:102100000000000000000000000000001800200196
:10211000000001E0008000007007643E000000063F
:1021200000000000000000000000000000000000AF
:10213000000000000000000000000000000000009F
:10214000000000000000000000000000000000008F
:10215000000000000000000000000000000000007F
:1021600000000080000800000240F00000000000B5
:102170000243C000003C000000000000F00000002E
:10218000000000000000000000000000000000004F
:10219000000000000000000000000000000000003F
:1021A000000000000000000000000000000000002F
:1021B00000000000000180000A1A3C200600000117
:1021C000E8F08018005017303E0060020000000068
:1021D0000180000100000006000000000000000077
:1021E00000000000000000000000000000000000EF
:1021F00000000000000000000000000000000000DF
:102200000000000000000000000000000000D1B04D
:1022100003C000000000000F0000000B0E07C3C049
:1022200000003400000000000200800000000000F8
:10223000000000000000000000000000000000009E
:10224000000000000000000000000000000000008E
:10225000000000000000000000000000000000007E
:1022600000000000000A723C2005000001E8F0A018
:1022700030000195303E0000000200000000000028
:10228000000000000C0C80020CA0400000000000C8
:10229000000000000000000000000000000000003E
:1022A000000000000000000000000000000000002E
:1022B0000000000000000000000000010003C0005A
:1022C000480000020F00030000080F03C0000000D8
:1022D0004000000000000000000000C010003C05AD
:1022E00004100000000000000000000000000000DA
:1022F00000000000000000000000000000000000DE
:1023000000000000000000000000000000000000CD
:102310000000001A3C2000000001E8F0A00000804E
:1023200005703E000001E02F803400100000000026
:1023300000000C0001EEA0500000000000000000B2
:10234000000000000000000000000000000000008D
:10235000000000000000000000000000000000007D
:102360000000000000000000000083C0000000002A
:10237000020F00000005000A03C000000201E9F39B
:10238000C000800000000000000000020A040000FD
:10239000000000000000000000000000000000003D
:1023A000000000000000000000000000000000002D
:1023B000000000000000000000000000000000001D
:1023C000FA245200000001C85540000001A7EC3E6D
:1023D000000000002FF4740000078C0000000000D3
:1023E0001C000000000000000000000000000000D1
:1023F00000000000000000000000000000000000DD
:1024000000000000000000000000000000000000CC
:10241000000000000000032D29000000000005540A
:1024200000000D0B0203C0000000007CD140000042
:102430000800000000000000000000000000000094
:10244000000000000000000000000000000000008C
:10245000000000000000000000000000000000007C
:102460000000000000000000000000080000000064
:102470000000000000000000008007A14180000271
:102480000285E504000000000000000000000000DC
:10249000000000000000000000000000000000003C
:1024A000000000000000000000000000000000002C
:1024B000000000000000000000000000000000001C
:1024C00000001000000000000000000000000005F7
:1024D000000814100000046C105049C00000900067
:1024E00000000000000000000000000000000000EC
:1024F00000000000000000000000000000000000DC
:1025000000000000000000000000000000000000CB
:10251000000000000000000080000000000000003B
:1025200028000000000098F00000000000000000FB
:102530000000000000B3715000000E2000000000F9
:10254000000000000000000000000000000000008B
:10255000000000000000000000000000000000007B
:10256000000000000000000000000000000000501B
:10257000000000000002400000000000011E0000FA
:1025800000000000000000000000000BA701800018
:102590000004000000000000000000000000000037
:1025A000000000000000000000000000000000002B
:1025B000000000000000000000000000000000001B
:1025C000000000030008000000000C0014280000B8
:1025D0000030008080000000C0020256AAF1030013
:1025E00000001029544C00003800000000000000DA
:1025F00000000000000000000000000000000000DB
:1026000000000000000000000000000000000000CA
:10261000000000000000000000002000B0000000EA
:10262000008001428000000200010000000008005C
:102630003C7C10AF002000000002970080000000EA
:10264000000000000000000000000000000000008A
:10265000000000000000000000000000000000007A
:10266000000000000000000000000000000000006A
:102670000000050A00000000002069E8C2400000D8
:1026800001870002000000000000000000000000C0
:1026900000000000006800000000000000000000D2
:1026A000000000000000000000000000000000002A
:1026B000000000000000000000000000000000001A
:1026C000000000000000000000000000000000000A
:1026D000402F8C840000000B02400000000000002E
:1026E00000000000000000000000000240000000A8
:1026F00000000000000000000000000000000000DA
:1027000000000000000000000000000000000000C9
:102710000000000000000000000000000001800038
:102720000000000006000000000000180000072262
:102730005B00000000000000000005000000000633
:102740000000000000000000000000000000000089
:102750000000000000000000000000000000000079
:102760000000000000000000000000000000000069
:1027700000000000000000B00000000000000000A9
:1027800000000000000B2590000000000000000089
:1027900000D8000000000000000000000000000061
:1027A0000000000000000000000000000000000029
:1027B0000000000000000000000000000000000019
:1027C0000000000000000000000000000018DF977B
:1027D000C000001403DC654000000007A25B00009D
:1027E00000000000000000000000000004000028BD
:1027F0000CA040C00000000000000000000000002D
:1028000000000000000000000000000000000000C8
:1028100000000000000000000000000000000000B8
:10282000000000009F403C000000001FA95400036E
:1028300000000B6590000000000000000000000098
:102840000000004000042D0504000000000000000E
:102850000000000000000000000000000000000078
:102860000000000000000000000000000000000068
:10287000000000000000000000000BF696C0800081
:10288000000000000000001813A25B000000000020
:102890000000000380009FCCC0000000000000008A
:1028A0000000000000000000000000000000000028
:1028B0000000000000000000000000000000000018
:1028C0000000000000000000000000000000000008
:1028D000F183C16800006000000000000000080AE9
:1028E000659200000000000000000000BD633000A1
:1028F0000003400000000000000000000000000095
:1029000000000000000000000000000000000000C7
:1029100000000000000000000000000000000000B7
:10292000000000000000000097B410C00000040088
:10293000000000001813A65B000400000000000067
:102940000000000000000000002C1EA0400000005D
:102950000000000000000000000000000000000077
:102960000000000000000000000000000000000067
:10297000000000000000000000000000000009034B
:102980001100000002400000000100080B25920029
:1029900000000000000000000000000000000347ED
:1029A0006D050408000000000000000000000000A9
:1029B0000000000000000000000000000000000017
:1029C0000000000000000000000000000000000007
:1029D00000000001180000000000003000000000AE
:1029E0000080A5A3C300000000000000000000005C
:1029F00000000000000001CC3300000000000000D7
:102A000000000000000000000000000000000000C6
:102A100000000000000000000000000000000000B6
:102A2000000000000000000000000800000000009E
:102A300000040000000000011B0003D000000000A3
:102A4000000000000000000000000000003CDCC0AE
:102A50000000000000000000000000000000000076
:102A60000000000000000000000000000000000066
:102A70000000000000000000000000000000000056
:102A800000085A6D5800000004000000000000A576
:102A9000A3C30010000000000000010000000000BF
:102AA000000014005A3302C00000000000000000C3
:102AB0000000000000000000000000000000000016
:102AC0000000000000000000000000000000000006
:102AD00000000000000000010DE4110000000200F1
:102AE0000000000005100803D0000A0000000000EC
:102AF00000000000000000000022F60CC0000000F2
:102B000000000000000000000000000000000000C5
:102B100000000000000000000000000000000000B5
:102B20000000000000000000000000030008089AF8
:102B3000A8900C00160000000030000197A3C3000D
:102B40000000000000000000001C0000000C00005D
:102B50000000000000000000000000000000000075
:102B60000000000000000000000000000000000065
:102B70000000000000000000000000000000000055
:102B80000000200010EBED6101800002C000000297
:102B900000000D0803D0000000000000000000014C
:102BA00000000000800002C00000000000000000E3
:102BB0000000000000000000000000000000000015
:102BC0000000000000000000000000000000000005
:102BD000000000000000000000000700004020008E
:102BE0000000000000000000580521550000000012
:102BF00001EC0800000181F000100000000000005E
:102C000000000000000000000000000000000000C4
:102C100000000000000000000000000000000000B4
:102C200000000000000000000000000000000000A4
:102C30000098003800080007C00000000001800074
:102C4000001553000000000EC0020000008F8295A6
:102C500082000000000000000000000000000000F2
:102C60000000000000000000000000000000000064
:102C70000000000000000000000000000000000054
:102C8000000000000000000018784020000E000145
:102C9000ECA0201800000770910064E200148F0877
:102CA000018380007B141030000028000000000029
:102CB0000000000000000000000000000000000014
:102CC0000000000000000000000000000000000004
:102CD00000000000000000000000000000000000F4
:102CE000B40000000000010A00800000003209D09A
:102CF00000A0140000F0000000000081410000006E
:102D000004000000000000000000000000000000BF
:102D100000000000000000000000000000000000B3
:102D200000000000000000000000000000000000A3
:102D3000000000008788700020000000001CC022F6
:102D400000008013A81500000160009F0803000028
:102D50000090001000001428000000000000000097
:102D60000000000000000000000000000000000063
:102D70000000000000000000000000000000000053
:102D800000000000000000000000000900800000BA
:102D9000000000010C001020010AB43E9000000069
:102DA000000CF0003000000F0295A00A0026C000C1
:102DB0000000000000000000000000000000000013
:102DC0000000000000000000000000000000000003
:102DD00000000000000000000000000000000000F3
:102DE000000F80DA2940000000000EC002000080C1
:102DF0000000000000D000068F08000000007A14D8
:102E000010000000394B33000000000000000000FB
:102E100000000000000000000000000000000000B2
:102E200000000000000000000000000000000000A2
:102E30000000000000000000700500140100000008
:102E4000000C00000001000000000000800000F005
:102E50000000000000C14180000346F5ACC0000046
:102E60000000000000000000000000000000000062
:102E70000000000000000000000000000000000052
:102E80000000000000000000000000000000000042
:102E900000000000000000000000000059BB6DC1F0
:102EA000000001E04C842600000800F8001000003B
:102EB0001E01785500000000000000000000000026
:102EC0000000000000000000000000000000000002
:102ED00000000000000000000000000000000000F2
:102EE000000000000070000000000000034000002F
:102EF000000000083BCC5000003E3ECC9340000058
:102F000010AF829500000000030550000000000093
:102F100000000000000000000000000000000000B1
:102F200000000000000000000000000000000000A1
:102F30000000000000000000000000000800000089
:102F4000000E00280000000000100000000000003B
:102F500000000000000000017F14100000000000CD
:102F60000000000000000000000000000000000061
:102F70000000000000000000000000000000000051
:102F80000000000000000000000000000000000041
:102F90000000000000000000000400000000000F1E
:102FA000000000000000140000000000000080C1CC
:102FB00041C0000000000000000000000000000010
:102FC0000000000000000000000000000000000001
:102FD00000000000000000000000000000000000F1
:102FE00000000000000000000001163FC0000016B5
:102FF00005EEA00002801800000000000140000063
:10300000000000001D004910000A0038DFF2000037
:1030100000000000000000000000000000000000B0
:1030200000000000000000000000000000000000A0
:103030000000000000000000000000000000000090
:10304000F56FEC2000A002010A0000000000000063
:103050000000000000000000000000CB3C612000E8
:1030600000043DBF30100000000000000000000020
:103070000000000000000000000000000000000050
:103080000000000000000000000000000000000040
:103090000000000000090893000000002E0040A579
:1030A00000300000E0000000C0020000000003004B
:1030B000001C0000000000000400000000000000F0
:1030C0000000000000000000000000000000000000
:1030D00000000000000000000000000000000000F0
:1030E0000000000000000000000000007907002838
:1030F000000001403C000002000010000000080039
:103100003C00000000200001A0000000000003803F
:1031100000000000000000000000000000000000AF
:10312000000000000000000000000000000000009F
:10313000000000000000000000000000000000008F
:103140000000010010002000001438400080000042
:103150000003F0140002024005CA40000300000012
:10316000000000400000000000000000000000001F
:10317000000000000000000000000000000000004F
:10318000000000000000000000000000000000003F
:1031900000000000000000000008C000000808084F
:1031A0002400000020000F0008014000003E004CF9
:1031B0002400000010000000000A000200000000CF
:1031C00000000000000000000000000000000000FF
:1031D00000000000000000000000000000000000EF
:1031E000000180000000000000000000000000005E
:1031F000003F142000002079CC0F80000081E00007
:1032000000006000002EEF1621800801F64118062C
:103210000E80014E0540000000000000000000008C
:10322000000000000000000000000000000000009E
:10323000000000000000000000000000000000008E
:1032400000000000000000004140040803440100A9
:10325000F001000710000000000000036050414032
:103260000010F36E9D0000040003005608000000EB
:10327000000000000000000000000000000000004E
:10328000000000000000000000000000000000003E
:103290000000000000000000000000000000023CF0
:1032A00000100000055E0F8000000000000000001C
:1032B00001400000000000000000000004800060E9
:1032C0000C5048000000000000000000000000005A
:1032D00000000000000000000000000000000000EE
:1032E00000000000000000000000000000000000DE
:1032F000000000000003C0000000020200F0000017
:1033000000000000000000020000000000000000BB
:103310000000004400003C0A06000000000000001D
:10332000000000000000000000000000000000009D
:10333000000000000000000000000000000000008D
:10334000000000000000000000000000000000007D
:103350001E0008F000000078E000000008000040B7
:1033600000000002A181000000004160000E054045
:10337000000000000000000000000000000000004D
:10338000000000000000000000000000000000003D
:10339000000000000000000000000000000000002D
:1033A0000000000000000020000F001000001000CE
:1033B000000000400028000000000400E0000000C1
:1033C0000A08402D00A600000000000000000000D8
:1033D00000000000000000000000000000000000ED
:1033E00000000000000000000000000000000000DD
:1033F00000000000000000000000000000000400C9
:103400000000000050100000000003E00000000079
:10341000100000F750D8000006601C50400000006B
:10342000000000000000000000000000000000009C
:10343000000000000000000000000000000000008C
:10344000000000000000000000000000000000007C
:10345000000000140340000000000009000000000C
:10346000003C00000000008000A9A08D00000004C6
:103470003D0A0600000000000000000000000000FF
:10348000000000000000000000000000000000003C
:103490000000000000000000007F3D5430000000EC
:1034A000000000000000000000814000000000005B
:1034B000057099E8280400006061EA000000278098
:1034C00007BC1A400000600000000000000000007F
:1034D00000000000000000000000000000000000EC
:1034E000000000000000000000000000000090004C
:1034F00003D5000000000000000090D00000000490
:1035000008100000000000201D7000080000243595
:10351000C050000001080043C1010000000000008D
:10352000000000000000000000000000000000009B
:10353000000000000000000000000000000000008B
:10354000000000000000000000000000000000007B
:10355000000000000000000600000000000000095C
:10356000B43C0000006000000000000181779D1065
:10357000000000701A504000000000000000000031
:10358000000000000000000000000000000000003B
:10359000000000000000000000000000000000002B
:1035A000000000000000000000000000000000001B
:1035B000000000000000DB4340000140000000006C
:1035C0000008909175410508E0003C0A04080000DD
:1035D00000000000000000000000000000000000EB
:1035E00000000000000000000000000000000003D8
:1035F0000001800000000000000000000000001733
:1036000015404000200378A7000000000132800030
:10361000C003400EA0A20309801F06BC100C0C06BC
:1036200001EE054000000000000000000000000066
:10363000000000000000000000000000000000008A
:10364000000000000000200000000000000000005A
:10365000000000380000C154800002C0249FF00424
:1036600000070004280208002C00C00F0020000101
:103670008003C10182002001005408000000000006
:10368000000000000000000000000000000000003A
:10369000000000000000000000000000000000002A
:1036A000000000000000000000000000BF801000CB
:1036B000020039E000800000180BE0280000000044
:1036C0005581800000050092FC00000614040000F3
:1036D00000000000000000000000000000000000EA
:1036E00000000000000000000000000000000000DA
:1036F00000000000000000000000000000000000CA
:10370000000003C029010400040200002000050895
:103710005242000000003F7E08000000080F3740C2
:1037200000000063C0000000000000000000000076
:103730000000000000000000000000000000000089
:103740000000000000000000000000000000000079
:1037500000000000000180000A0000000001147950
:10376000D90F80180058013AB508600002818354CF
:1037700028000000F7B040A000000000000000009A
:103780000000000000000000000000000000000039
:103790000000000000000000000000000000000029
:1037A0000000000000000000000000000000900089
:1037B000000000000366C0C0F000000000101612F8
:1037C00000003C6CD03AD0400000AFC30C0000C0F9
:1037D00000000000000000000000000000000000E9
:1037E00000000000000000000000000000000000D9
:1037F00000000000000000000000000000000000C9
:103800000000001100001BA95000608005580F80C7
:10381000000000000000000000064CC10000000095
:103820000000000000000000FE1800000000000082
:103830000000000000000000000000000000000088
:103840000000000000000000000000000000000078
:103850000000000000000000000000000BC3E902AF
:103860000001C20200F000000000000000000000A3
:1038700022EF30000100D0000000000000000C909A
:1038800040000000000000000000000000000000F8
:103890000000000000000000000000000000000028
:1038A0000000000000000000000000000000000018
:1038B00000000000000000000071D80F80000058D8
:1038C0000000000000000004F0000000050A0000F5
:1038D00000000116017C050000000000000000004F
:1038E00000000000000000000000000000000000D8
:1038F00000000000000000000000000000000000C8
:103900000000000000000000D00000000000600483
:103910000300F0000000800000000000003EFB01FA
:1039200000000000000000000000002D000000006A
:103930000000000000000000000000000000000087
:103940000000000000000000000000000000000077
:103950000000000000000000000000000000838163
:10396000B6F8D00022000669400000080000000000
:1039700000000067DEC0A200020500F34400500012
:10398000207800000000000000000000000000009F
:103990000000000000000000000000000000000027
:1039A0000000000000000000000000000000000017
:1039B000000000000000813345000401C266FC10D5
:1039C0000020000000000000800030000A200000FD
:1039D000080730C0000002C4000000000000000022
:1039E00000000000000000000000000000000000D7
:1039F00000000000000000000000000000000000C7
:103A00000000000000000000000000080E000000A0
:103A100000003C017CA50000001000000000000137
:103A2000607FC0D02000481F5E940040A0140000BA
:103A30000000000000000000000000000000000086
:103A40000000000000000000000000000000000076
:103A50000000000000000000000000000000000066
:103A60000000100000000000004026A1000000003F
:103A70000000000000000038D00F004000718041BD
:103A800040000080238000000000000000000000D3
:103A90000000000000000000000000000000000026
:103AA0000000000000000000000000000000000016
:103AB00000000000000000405000073C10400006DD
:103AC00061DF3F01000078000000000001E380009A
:103AD000000000098FF71600000020000000000021
:103AE00000000000000000000000000000000000D6
:103AF00000000000000000000000000000000000C6
:103B000000000000000000000000000000000000B5
:103B10009043C1400004036EE3E000000000000099
:103B200000000002400000000000F8F9F940000029
:103B3000C1C0000000000000000000000000000004
:103B40000000000000000000000000000000000075
:103B50000000000000000000000000000000000065
:103B60000000000300000100000000001471ECA43C
:103B7000033000000000000040004000000000137F
:103B8000010E00000000002E005EF00000000000AA
:103B90000000000000000000000000000000000025
:103BA0000000000000000000000000000000000015
:103BB0000000000000000000000020000080000065
:103BC0000000C142820A4002000000000000040020
:103BD0001C00000000008000900000000002C01CDB
:103BE0008E02080000110101010000000000000029
:103BF0000000000010000000000000400000000075
:103C0000000100000000000004000000000000109F
:103C10000000000000004000000000100000000054
:103C2000000040000000000001000000000000044F
:103C30000000000000001000000000000040000034
:103C40000000000000000000000002000000000072
:103C500000080000000000002000000000000080BC
:103C6000000000000002000000000000080000004A
:103C7000000200000000000008000000000000201A
:103C800000000000000080000000000002000000B2
:103C9000000000080000000000000000000000001C
:103CA0000000000000000000000000000000000014
:103CB0000000000000000000000000000000000004
:103CC00000000000000000000000000000000000F4
:103CD00000000000000000000000000000000000E4
:103CE0000000000000004000000000000000000094
:103CF00000000000000000000000000000000000C4
:103D000000000000000000000000000000000000B3
:103D100000000000000000000000000000000000A3
:103D20000000000000000000000000000000000093
:103D30000000000000000000000000000000000083
:103D40000000000000000000000000000000000073
:103D50000000000000000000000000000000000063
:103D60000000000000000000000000000000000053
:103D70000000000000000000000000000000000043
:103D80000000000000000000000000000000000033
:103D90000000000000000000000000000000000023
:103DA0000000000000000000000000000000000013
:103DB0000000000000000000000000000000000003
:103DC00000000000000000000000000000000000F3
:103DD00000000000000000000000000000000000E3
:103DE00000000000000000000000000000000000D3
:103DF00000000000000000000000000000000000C3
:103E000000000000000000000000000000000000B2
:103E100000000000000000000000000000000000A2
:103E20000000000000000000000000000000000092
:103E30000000000000000000000000000000000082
:103E4000400003000000000000000000000000002F
:103E50000000000000000000000000000000000062
:103E60000000000000000000000000000000000052
:103E70000000000000000000000000000000000042
:103E80000000000000000000000000000000000032
:103E90000000000000000000010000000000000021
:103EA0000000000000000000000000000000000012
:103EB0000000000000000000000000000000000002
:103EC00000000000000000000000000000000000F2
:103ED00000000000000000000000000000000000E2
:103EE00000000000000000000000000000000002D0
:103EF00000000000000000000000000000000000C2
:103F000000000000000000000000000000000000B1
:103F100000000000000000000000000000000000A1
:103F20000000000000000000000000000000000091
:103F30000000000000000000000000000000000081
:103F40000000000000000000000000000000000071
:103F50000000000000000000000000000000000061
:103F60000000000000000000000000000000000051
:103F70000000000000000040000000000000000001
:103F80000000000000000000000000000000000031
:103F90000000000000000000000000000000000021
:103FA0000000000000000000000000000000000011
:103FB0000000000000000000000000000000000001
:103FC00000000000000000000000003800040000B5
:103FD00000000000000000000000000000000000E1
:103FE00000000000000000000000000000000000D1
:103FF00000000000000000000000000000000000C1
:1040000000000000000000000000000000000000B0
:104010000000000000004000000000000000000060
:10402000000000000000000000000000000000068A
:104030000000000000000000000000000000000080
:104040000000000000000000000000000000000070
:104050000000000000000000000000000000000060
:104060000000000000000000000000000000000050
:104070000000000000000000000000000000000040
:104080000000000000000000000000000000000030
:104090000000000000000000000000000000000020
:1040A0000000000000000000000000000000000010
:1040B0000000000000000000000000000000000000
:1040C00000000000000000000000000000000000F0
:1040D00000000000000000000000000000000000E0
:1040E00000000000000000000000000000000000D0
:1040F00000000000000000000000000000000000C0
:1041000000000000000000000000000000000000AF
:10411000000000000000000000000000000000009F
:10412000000000000000000000000000000000008F
:10413000000000000000000000000000000000007F
:10414000000000000000000000000000000000006F
:1041500000000000000C3000000000000000000023
:10416000000000000000000000000000000000004F
:10417000000000000000000000000000000000003F
:10418000000000000000000000000000000000002F
:10419000000000000000000000000000000000001F
:1041A000000000000000000000000000C30200004A
:1041B00000000000000000000000000000000000FF
:1041C00000000000000000000000000000000000EF
:1041D00000000000000000000000000000000000DF
:1041E00000000000000000000000000000000000CF
:1041F00000000000000000000000000000000000BF
:1042000000000C3000000000000000000000000072
:10421000000000000000000000000000000000009E
:10422000000000000000000000000000000000008E
:10423000000000000000000000000000000000007E
:10424000000000000000000000000000000000006E
:10425000000000000000000000C302000000000099
:10426000000000000000000000000000000000004E
:10427000000000000000000000000000000000003E
:10428000000000000000000000000000000000002E
:10429000000000000000000000000000000000001E
:1042A0000000000000000000000000000000000C02
:1042B00030000000000000000000000000000000CE
:1042C00000000000000000000000000000000000EE
:1042D00000000000000000000000000000000000DE
:1042E00000000000000000000000000000000000CE
:1042F00000000000000000000000000000000000BE
:10430000000000000000C3020000000000000000E8
:10431000000000000000000000000000000000009D
:10432000000000000000000000000000000000008D
:10433000000000000000000000000000000000007D
:10434000000000000000000000000000000000006D
:104350000000000000000000000000000C30000021
:10436000000000000000000000000000000000004D
:10437000000000000000000000000000000000003D
:10438000000000000000000000000000000000002D
:10439000000000000000000000000000000000001D
:1043A000000000000000000000000000000000000D
:1043B000000000C302000000000000000000000038
:1043C00000000000000000000000000000000000ED
:1043D00000000000000000000000000000000000DD
:1043E00000000000000000000000000000000000CD
:1043F00000000000000000000000000000000000BD
:104400000000000000000000000C30000000000070
:10441000000000000000000000000000000000009C
:10442000000000000000000000000000000000008C
:10443000000000000000000000000000000000007C
:10444000000000000000000000000000000000006C
:10445000000000000000000000000000000000005C
:10446000C302000000000000000000000000000087
:10447000000000000000000000000000000000003C
:10448000000000000000000000000000000000002C
:10449000000000000000000000000000000000001C
:1044A000000000000000000000000000000000000C
:1044B0000000000000000C300000000000000000C0
:1044C00000000000000000000000000000000000EC
:1044D00000000000000000000000000000000000DC
:1044E00000000000000000000000000000000000CC
:1044F00000000000000000000000000000000000BC
:1045000000000000000000000000000000C30200E6
:10451000000000000000000000000000000000009B
:10452000000000000000000000000000000000008B
:10453000000000000000000000000000000000007B
:10454000000000000000000000000000000000006B
:10455000000000000000000000000000000000005B
:104560000000000C3000000000000000000000000F
:10457000000000000000000000000000000000003B
:10458000000000000000000000000000000000002B
:10459000000000000000000000000000000000001B
:1045A000000000000000000000000000000000000B
:1045B00000000000000000000000C3020000000036
:1045C00000000000000000000000000000000000EB
:1045D00000000000000000000000000000000000DB
:1045E00000000000000000000000000000000000CB
:1045F00000000000000000000000000000000000BB
:1046000000000000000000000000000000000000AA
:104610000C3000000000000000000000000000005E
:10462000000000000000000000000000000000008A
:10463000000000000000000000000000000000007A
:10464000000000000000000000000000000000006A
:104650000000000000000000000000000400000056
:1046600000000000000000C3020000000000000085
:10467000000000000000000000000000000000003A
:10468000000000000000000000000000000000002A
:10469000000000000000000000000000000000001A
:1046A000000000000000000000000000000000000A
:1046B000000000000000000000000000000C3000BE
:1046C00000000000000000000000000000000000EA
:1046D00000000000000000000000000000000000DA
:1046E00000000000000000000000000000000000CA
:1046F00000000000000000000000000000000000BA
:1047000000000000000000000000000000000000A9
:104710000000000EC30200000000000000000000C6
:104720000000000000000000000000000000000089
:104730000000000000000000000000000000000079
:104740000000000000000000000000000000000069
:104750000000000000000000000000000000000059
:10476000000000000000000000000C30000000000D
:104770000000000000000000000000000000000039
:104780000000000000000000000000000000000029
:104790000000000000000000000000000000000019
:1047A0000000000000000000000000000000000009
:1047B00000000000000000000000000000000E00EB
:1047C00000C3020000000000000000000000000024
:1047D00000000000000000000000000000000000D9
:1047E00000000000000000000000000000000000C9
:1047F00000000000000000000000000000000000B9
:1048000000000000000000000000000000000000A8
:10481000000000000000000C30000000000000005C
:104820000000000000000000000000000000000088
:104830000000000000000000000000000000000078
:104840000000000000000000000000000000000068
:104850000000000000000000000000000000000058
:104860000000000000000000000000000000C30283
:104870000000000000000000000000000000000038
:104880000000000000000000000000000000000028
:104890000000000000000000000000000000000018
:1048A0000000000000000000000000000000000008
:1048B00000000000000000000000000000000000F8
:1048C000000000000C3000000000000000000000AC
:1048D00000000000000000000000000000000000D8
:1048E00000000000000000000000000000000000C8
:1048F00000000000000000000000000000000000B8
:1049000000000000000000000000000000000000A7
:1049100000000000000000000E0000C302000000C4
:104920000000000000000000000000000000000087
:104930000000000000000000000000000000000077
:104940000000000000000000000000000000000067
:104950000000000000000000000000000000000057
:104960000000000000000000000000000000000047
:10497000000C3000000000000000000000000000FB
:104980000000000000000000000000000000000027
:104990000000000000000000000000000000000017
:1049A0000000000000000000000000000000000007
:1049B00000000000000000000000000000000000F7
:1049C0000000000000000000C30200000000000022
:1049D00000000000000000000000000000000000D7
:1049E00000000000000000000000000000000000C7
:1049F00000000000000000000000000000000000B7
:104A000000000000000000000000000000000000A6
:104A100000000000000000000000000000000C305A
:104A20000000000000000000000000000000000086
:104A30000000000000000000000000000000000076
:104A40000000000000000000000000000000000066
:104A50000000000000000000000000000000000056
:104A60000000000000000000000000000000000046
:104A70000000000000C30200000000000000000071
:104A80000000000000000000000000000000000026
:104A90000000000000000000000000000000000016
:104AA0000000000000000000000000000000000006
:104AB00000000000000000000000000000000000F6
:104AC00000000000000000000000000C30000000AA
:104AD00000000000000000000000000000000000D6
:104AE00000000000000000000000000000000000C6
:104AF00000000000000000000000000000000000B6
:104B000000000000000000000000000000000000A5
:104B10000000000000000000000000000000000095
:104B20000000C302000000000000000000000000C0
:104B30000000000000000000000000000000000075
:104B40000000000000000000000000000000000065
:104B50000000000000000000000000000000000055
:104B60000000000000000000000000000000000045
:104B700000000000000000000C30000000000000F9
:104B80000000000000000000000000000000000025
:104B90000000000000000000000000000000000015
:104BA0000000000000000000000000000000000005
:104BB00000000000000000000000000000000000F5
:104BC0000000000000000000000000000000C0C362
:104BD00002000000000000000000000000000000D3
:104BE00000000000000000000000000000000000C5
:104BF00000000000000000000000000000000000B5
:104C000000000000000000000000000000000000A4
:104C10000000000000000000000000000000000094
:104C200000000000000C3000000000000000000048
:104C30000000000000000000000000000000000074
:104C40000000000000000000000000000000000064
:104C50000000000000000000000000002000000034
:104C60000000000000000000000000000000000044
:104C7000000000000000000000000000C30200006F
:104C80000000000000000000000000000000000024
:104C90000000000000000000000000000000000014
:104CA0000000000000000000000000000000000004
:104CB00000000300000000000000000000000000F1
:104CC00000000000000000000000000000000000E4
:104CD00000000C3000000000000000000000000098
:104CE00000000000000000000000000000000000C4
:104CF00000000000000000000000000000000000B4
:104D000000000000000000000000000000000000A3
:104D10000000000000000000000000000000000093
:104D2000000000000000000000C3020000000000BE
:104D30000000000000000000000000000000000073
:104D40000000000000000000000000000000000063
:104D50000000000000000000000000000000000053
:104D60000000000000000000000000000000000043
:104D70000000000008000000000000000000000C1F
:104D800030000000000000000000000000000000F3
:104D90000000000000000000000000000000000013
:104DA0000000000000000000000000000000000003
:104DB00000000000000000000000000000000000F3
:104DC00000000000000000000000000000000000E3
:104DD000000000000000C30200000000000000000E
:104DE00000000000000000000000000000000000C3
:104DF00000000000000000000000000000000000B3
:104E000000000000000000000000000000000000A2
:104E10000000000000000000000000000000000092
:104E20000000000000000000000000000C30000046
:104E30000000000000000000000000000000000072
:104E40000000000000000000000000000000000062
:104E50000000000000000000000000000000000052
:104E60000000000000009003C100000000000000EE
:104E70000000000000000000000000000000000032
:104E8000000000C30200000000000000000000005D
:104E90000000000000000000000000000000000012
:104EA0000000000000000000000000000000000002
:104EB0000000000000000000000000000006BC1020
:104EC00020000000000000000000000000000000C2
:104ED0000000000000000000000C30000000000096
:104EE00000000000000000000000000000000000C2
:104EF00000000000000000000000000000000000B2
:104F000000000000000000000000000000000000A1
:104F10000000F000000000000000000000000000A1
:104F20000000000000000000000000000000000081
:104F3000C3020000000000000000000000000000AC
:104F40000000000000000000000000000000000061
:104F50000000000000000000000000000000000051
:104F60000000000000000000000000000000000041
:104F70000000000000000000000000000000000031
:104F80000000000000000C300000000000000000E5
:104F90000000000000000000000000000000000011
:104FA0000000000000000000000000000000000001
:104FB00000000000000000000000000000100000E1
:104FC00000000000000000000000000000000000E1
:104FD00000000000000000000000000000C302000C
:104FE00000000000000000000000000000000000C1
:104FF00000000000000000000000000000000000B1
:1050000000000000000000000000000000000000A0
:10501000000000030000000000000000000000008D
:10502000000000000000000000140000000000006C
:105030000000000C30000000000000000000000034
:105040000000000000000000000000000000000060
:105050000000000000000000000000000000000050
:105060000000000000000000000000000000000040
:105070000000000000000000000000000000000030
:1050800000000000000000000000C302000000005B
:105090000000000000000000000000000000000010
:1050A0000000000000000000000000000000000000
:1050B00000000000000000000000000000000000F0
:1050C000018000000000000000000000000000005F
:1050D00000000000000000000000000000000000D0
:1050E0000C30000000000000000000000000000084
:1050F00000000000000000000000000000000000B0
:10510000000000000000000000000000000000009F
:10511000000000000000000000000000000000008F
:10512000000000000000000000000000000000007F
:1051300000000000000000C30200000000000000AA
:10514000000000000000000000000000000000005F
:10515000000000000000000000000000000000004F
:10516000000000000000000000000000000000003F
:10517000000000000000000000000000000000002F
:10518000000000000000000000000000000C3000E3
:10519000000000000000000000000000000000000F
:1051A00000000000000000000000000000000000FF
:1051B00000000000000000000000000000000000EF
:1051C000200000000040000000000000000000007F
:1051D00000000000000000000000000000000000CF
:1051E00000000000C30200000000000000000000FA
:1051F00000000000000000000000000000000000AF
:10520000000000000000000000000000000000009E
:10521000000000000000000000000000000000008E
:10522000000000000000000000000000000000007E
:10523000000000000000000000000C300000000032
:10524000000000000000000000000000000000005E
:10525000000000000000000000000000000000004E
:10526000000000000000000000000000007BF000D3
:1052700000004000000000000000000000000000EE
:10528000000000000000000000000000000000001E
:1052900000C3020000000000000000000000000049
:1052A00000000000000000000000000000000000FE
:1052B00000000000000000000000000000000000EE
:1052C000000000039DE50000000000000000000059
:1052D00000000000000000000000000000000000CE
:1052E000000000000000000C300000000000000082
:1052F00000000000000000000000000000000000AE
:10530000000000000000000000000000000000009D
:1053100000000000000000000A0000000000000083
:10532000000000000000000000000000000000007D
:1053300000000000000350FA000000000000C3025B
:10534000000000000000000000000000000000005D
:10535000000000000000000000000000000000004D
:10536000000000000000000000000000000000003D
:10537000000000000000000000000000000000002D
:10538000000000000000000000000000218F52001B
:10539000000000000C3000000000000000000000D1
:1053A00000000000000000000000000000000000FD
:1053B00000000000000000000000000000000000ED
:1053C00000000000000000000000000000000000DD
:1053D00000000000020000000000000000000000CB
:1053E0000000000000000000000000C302000000F8
:1053F00000000000000000000000000000000000AD
:10540000000000000000000000000000000000009C
:10541000000000000000000000000000000000008C
:10542000000000000000000000000000000000007C
:10543000000000000000000000000000000000006C
:10544000000C300000000000000000000000000020
:10545000000000000000000000000000000000004C
:1054600000000000000000800000000000000000BC
:10547000000000000000000000000000000000002C
:105480000400000000000000000000000000003CDC
:105490000000000000000000C30200000000000047
:1054A00000000000000000000000000000000000FC
:1054B00000000000000000000000000000040000E8
:1054C00000000000000000000000000000000000DC
:1054D000000000000000408000000000000000000C
:1054E00000000000000000000000000000000C3080
:1054F00000000000000000000000000000000000AC
:10550000000000000000000000000000000000009B
:10551000000000000000000000000000000000008B
:10552000000000000000000000000000000000007B
:10553000000000000000000000000000000000006B
:105540000000000000C30200000000000000000096
:10555000000000000000000000000000000000004B
:10556000000000000000000000000000000000003B
:10557000000000000000000000000000000000002B
:10558000000000000000000000000000000000001B
:1055900000000000000000000000000C30000000CF
:1055A00000000000000000000000000000000000FB
:1055B00000000000000000000000000000000000EB
:1055C00000000000000000000000000000000000DB
:1055D00000000000000000000000000000000000CB
:1055E0000000000000000000002C0000000000008F
:1055F0000000C302000000000000000000000000E6
:10560000000000000000000000000000000000009A
:10561000000000000000000000000000000000008A
:10562000000000000000000000000000000000007A
:105630000000280000000000000000000000000042
:1056400040000000000000000C30000000000000DE
:10565000000000000000000000000000000000004A
:10566000000000000000000000000000000000003A
:10567000000000000000000000000000000000002A
:105680000000000000000000002D0050000000009D
:10569000000000000000000000000000000000C347
:1056A00002000000000000000000000000000000F8
:1056B00000000000000000000000000000000000EA
:1056C00000000000000000000000000000000000DA
:1056D00000000000000000000000000000000000CA
:1056E000180A000000000000000000000000000098
:1056F00000000000000000000000000000000000AA
:105700000000000000000000000000000000000099
:105710000000000400000000000000000000000481
:1057200005000000000C10002670C240A04010854B
:10573000C00000C1C3E4040854820400100000004B
:1057400000100002F0AF0040000000000000000068
:105750000000000000000000000000000000000049
:105760000000000000000000000000000000000039
:10577000000000000000008000000000C001E00DFB
:10578000AC062B0008195E140004002461DEA5623B
:10579000300200E000000000000034EFF1000000E3
:1057A00000000000000000000000000000000000F9
:1057B00000000000000000000000000000000000E9
:1057C00004000000000000000000000004000000D1
:1057D000000000110442400C000040910040150000
:1057E00001000386CA5000070B00000000001000F3
:1057F00000000000000000000000000000000000A9
:105800000000000000000000000000000000000098
:105810000000000000000000000000000000000088
:1058200000000000000000000000E86335C1C02057
:1058300000080C5B015000000707DE5800002080C4
:1058400000000000000002800000000000000000D6
:105850000000000000000000000000000000000048
:105860000000000000000000000000000000000038
:105870000000000000000000000000087C14080088
:10588000060203F00A000000300B42810000000015
:1058900000000000000000000000000000400000C8
:1058A00000000000000000000000000000000000F8
:1058B00000000000000000000000000000000000E8
:1058C00000000000000000000000000000000000D8
:1058D00000300DE204080001603DA00000000180DE
:1058E00003941000000060000000000000000000B1
:1058F00000000003000000000000000000000000A5
:105900000000000000000000000000000000000097
:105910000000000000000000000000000000000087
:1059200000000000000000000EB34000000000274F
:10593000C0F0698000B0E3402900040043C00000CB
:1059400000000010D029500080000000000000007E
:105950000000000000000000000000000000000047
:105960000000000000000000000000000000000037
:105970000000000000000000000000000000300BEC
:1059800070200000006005AF162000099F830150C1
:105990000080007C000000000000E58001000000A5
:1059A00000000000000000000000000000000000F7
:1059B00000000000000000000000000000000000E7
:1059C00000000000000000000000000000000000D7
:1059D0000000000000000000000000043CFB02008A
:1059E0000000700B0281000000032DDE7000000F2C
:1059F000000C141000000000000000000000000077
:105A00000000000000000000000000000000000096
:105A10000000000000000000000000000000000086
:105A2000000000000000000000000001C0000000B5
:105A300000020624B00000000D0A03141000001E2E
:105A4000055FF700000080057941000000000000BC
:105A50000000010000000000000000000000000045
:105A60000000000000000000000000000000000036
:105A70000000000000000000000000000000000026
:105A80000000000000000000240000A0089000704A
:105A90000583D4000C000000000001000010D8298C
:105AA0005000000040000000000000000000000066
:105AB00000000000000000000000000000000000E6
:105AC00000000000000000000000000000000000D6
:105AD00000001000000000000000000000000007AF
