:10000000FF004C6174746963650069434563756200
:10001000653220323031342E31322E3237303532A3
:1000200000506172743A20694345354C50344B2D71
:10003000535747333600446174653A204D6172204E
:10004000323620323031372031333A30383A00FFFF
:100050003131007EAA997E51000105920020620292
:10006000B37200B082000011000101000000000026
:100070000000000000001000000000000040000030
:10008000000000010000000000000400000000006B
:1000900000100000400000000010006000000000A0
:1000A000400000000000000000000100000000000F
:1000B00000040000000000001000000000000040EC
:1000C000000000000000000000000000020000002E
:1000D00000000008000000000000200000000000F8
:1000E000008000000000000200000000000000008E
:1000F00000020000000000000000000000000000FE
:10010000002000000000000080000000000002004D
:1001100000000000000000000000000000000000DF
:1001200000000000000000000000000000000000CF
:1001300000000000000000000000000000000000BF
:1001400000400F00000010014000000000400000CF
:10015000000000000000000000000000000000009F
:100160000000000000000000000D00000000000082
:10017000000000000000000000000000000000007F
:10018000000000000000000000000000000000006F
:1001900000000000000000000080000000001600C9
:1001A000000000000000000000000000000000004F
:1001B000000000000000000000000000000000003F
:1001C00080000000000000000000000000000000AF
:1001D000000000000000000000000000000000001F
:1001E000000000000000000000000000000080008F
:1001F000000B00200000038000008001800400004C
:1002000000000000000000000000000000000000EE
:1002100000000000000000000000000000000000DE
:1002200000000000000000000000000000000000CE
:1002300000000000000000000000000000000000BE
:10024000000000000000000050000000003400002A
:1002500000000900C00000000000000000000000D5
:10026000000000000000000000000000000000008E
:10027000000000000000000000000000000000007E
:10028000000000000000000000000000000000006E
:100290000000000000000000000000000B00000053
:1002A0000001C0000000000000010000000000008C
:1002B000000000000000000000000000000000003E
:1002C0000000000F0000000000000000000000001F
:1002D000000000000000000000000000000000001E
:1002E000000000000000000000000000000000000E
:1002F00000000000000000002000000000000000DE
:1003000000000000000000000000000000000000ED
:10031000000000000000000000008000000000005D
:1003200000000000000000000000000000000000CD
:1003300000000000000000000000000000000000BD
:1003400000000000000000000008020000000000A3
:100350008000000000058300000000000000000095
:10036000000000000000000000000000000000008D
:10037000000100000000000000000000000000007C
:10038000000000000000000000000000000000006D
:10039000000000000000000000000000000000005D
:1003A00070000000000000000000000008000000D5
:1003B000000000000000000000000000000000003D
:1003C000000000000000000000000000000000002D
:1003D000000000000000000000000000000000001D
:1003E000000000000000000000000000000000000D
:1003F0000000000000000500078000000001400030
:10040000000000000C0000000000000000000000E0
:1004100000000000000000000000000000000004D8
:10042000800000000000000000000000000000004C
:1004300000000000000000000000000000000000BC
:100440000000000000000000000000040000001494
:10045000010000003C0000040000008000000000DB
:10046000000000000000000000000000000000008C
:10047000000004000000C4000000000000000000B4
:10048000000000000000000000000000000000006C
:10049000000000000000000000000000000000005C
:1004A000000000000000000000000000000000004C
:1004B0000006000000000000000000000000000036
:1004C000000000000000000000000000000000002C
:1004D000000000000000000000000000000000001C
:1004E000000000000000000000000000000000000C
:1004F00000000000000000000400000000010000F7
:1005000000000000040000000000000000000000E7
:1005100000000000000000000000000000000004D7
:1005200000000000000000000000000000000000CB
:1005300000000000000000000000000000000000BB
:1005400000000000000000000000000000000000AB
:100550000001000000000040000000000001000059
:10056000000000000000000000000000000000008B
:10057000000000000000400001000000000000003A
:10058000000000000000000000000000000000006B
:10059000000000000000000000000000000000005B
:1005A0000000000000080038000002000000000009
:1005B0000008000100000000000000000000000032
:1005C0000000010000000000000000000800000022
:1005D000000000000000000C3020000000000000BF
:1005E000000000000000000000000000000000000B
:1005F00000000000000000000000000000000000FB
:10060000000000000000000000000000FF400000AB
:10061000000000000000C00000000000000000001A
:100620000000000000000000000000000000C30007
:1006300000000000000000000000000000000000BA
:1006400000000000000000000000000000000000AA
:10065000000000200000000000000000000000007A
:1006600000000FF10000000000000000000000008A
:10067000000000000000000000000000000000007A
:10068000000000000C30200000000000000000000E
:10069000000000000000000000000000000000005A
:1006A00000000000000000000000000000008000CA
:1006B000000000000A000000000000000000000030
:1006C0000000A0400000000000000000000000004A
:1006D0000000000000000000000000C30000000057
:1006E000000000000000000000000000000000000A
:1006F00000000000000000000000000000000000FA
:100700000000000028000000000000A00000000021
:1007100000000000000000000A00000000000000CF
:1007200000000000000000000000000000000000C9
:10073000000C30200000000000000000000000005D
:1007400000000000000000000000000000000000A9
:100750000000000000000000000000000780000012
:100760000000000000000000000000000000000089
:100770000000000000000000000000000000000079
:100780000000000000000000C300000000000000A6
:100790000000000000000000000000000000000059
:1007A0000000000000000000000000000000000049
:1007B00000000008000000000003C000000000006E
:1007C0000000000000000000000000000000000029
:1007D00000000000000000000000000000000C30DD
:1007E00020000000000000000000000000000000E9
:1007F00000000000000000000000000000000000F9
:1008000000000000000000000000000000000000E8
:1008100000000EA0000000000000000000600000CA
:1008200000000000000000000001000000000000C7
:100830000000000000C300000000000000000000F5
:1008400000000000000000000000000000000000A8
:100850000000000000000000000000000000000098
:10086000000000000000000015050000000000006E
:100870000000000000000000000000000000000078
:1008800000000000000000000000000C302000000C
:100890000000000000000000000000000000000058
:1008A0000000000000000000000000000000000048
:1008B0000000000000000000003FD0000000000029
:1008C000FF4000000000000000000000000FF600E4
:1008D0000000000000000000000000000000000018
:1008E0000000C30000000000000000000000000045
:1008F00000000000000000000000000000000000F8
:1009000000000000000000000000000000000003E4
:10091000FC00006000000FF000000000000000007C
:1009200000000000FF0000000000000000000000C8
:1009300000000000000000000C302000000000005B
:1009400000000000000000000000000000000000A7
:100950000000000000000000000000000000000097
:100960000000000000000000000000000000000087
:100970000000000000000000000000000000000077
:10098000000000000000000000000000000000C3A4
:100990000000000000000000000000000000000057
:1009A0000000000000000000000000000000000047
:1009B0000000000000000000000000000000000037
:1009C0000000000000000000000000000000000027
:1009D0000000000000000000000000000000000017
:1009E00000000000000C30200000000000000000AB
:1009F00000000000000000000000000000000000F7
:100A000000000000000000000000000000000000E6
:100A1000000000000000001C30000000000000008A
:100A20000000000000E000000000000000000000E6
:100A3000000000000000000000000000C3000000F3
:100A400000000000000000000000000000000000A6
:100A50000000000000000000000000000000000096
:100A60000000000000000000000000000000240062
:100A70000000000000000000000000000000000076
:100A80000000000000000000000000000000000066
:100A900000000C30200000000000000000000000FA
:100AA0000000000000000000000000000000000046
:100AB0000000000000000000000000000000000036
:100AC0003FD0000000000000000000000000000017
:100AD0000000000000000000000000000000000016
:100AE000000000000000000000C300000000000043
:100AF00000000000000000000000000000000000F6
:100B000000000000000000000000000000000000E5
:100B100000000000000003FC0000000000000000D6
:100B200000000000000000000000000000000000C5
:100B30000000000000000000000000000000000CA9
:100B40003020000000000000000000000000000055
:100B50000000000000000000000000000000000095
:100B60000000000000000000000000000000000085
:100B70000000000000000000000000000000000075
:100B80000000000000001A0000000000000000004B
:100B9000000000000000C300000000000000000092
:100BA0000000000000000000000000000000000045
:100BB0000000000000000000000000000000000035
:100BC0000000000000000000000000000000000025
:100BD0000000000000000000000000000000000015
:100BE0000000000000000000000000000C302000A9
:100BF00000000000000000000000000000000000F5
:100C000000000000000000000000000000000000E4
:100C100000000000000000000000000000000000D4
:100C200000000000000000000000200000000000A4
:100C3000000000000000000A0000000000000000AA
:100C4000000000C3000000000000000000000000E1
:100C50000000000000000000000000000000000094
:100C60000000000000000000000000000000000084
:100C70000000000000000000000000000000000074
:100C8000080000000000000002100000000020002A
:100C90000000000000000000000C302000000000F8
:100CA0000000000000000000000000000000000044
:100CB0000000000000000000000000000000000034
:100CC0000000000000000000000000000000000024
:100CD0000000000000000000000000000000000014
:100CE000000000000100000000FF400000000000C4
:100CF000C300000000000000000000000000000031
:100D000000000000000000000000000000000000E3
:100D100000000000000000000000000000000000D3
:100D200000000000000000000000000000000000C3
:100D30000000000000000000000000000000000FA4
:100D4000F010000000000C30200000000000000047
:100D50000000000000000000000000000000000093
:100D60000000000000000000000000000000000083
:100D70000000000000000000000000000000000073
:100D80000000000000000001EF04010000007E3CB4
:100D900000200000000000000000000000C3000070
:100DA0000000000000000000000000000000000043
:100DB0000000000000000000000000000000000033
:100DC0000000000000000000000000000000000023
:100DD000000000000000000000000000000000F023
:100DE000400000000903D480000000000000000063
:100DF0000000000C30200000000000000000000097
:100E000000000000000000000000000000000000E2
:100E10000000000000000000000000000000004092
:100E200000000000000000000000000000000000C2
:100E300000000000000000000000000000000000B2
:100E400020000000000000000000C30000000000BF
:100E50000000000000000000000000000000000092
:100E60000000000000000000000000000000000082
:100E70000000000000000000000000000000000072
:100E80000000000000000000000000000000000062
:100E900000000000000003C000000000000000008F
:100EA0000C302000000000000000000000000000E6
:100EB0000000000000000000000000000000000032
:100EC00000000000000000000000005000000000D2
:100ED0000001000000000000000000000000000011
:100EE0000000000000000000000000000000000002
:100EF00000000000000000C300000000000000002F
:100F000000000000000000000000000000000000E1
:100F100000000000000000000000000000000000D1
:100F200000020000000000000800000000000000B7
:100F300000000000000000000000000000000000B1
:100F4000000000000000000000000000000C302045
:100F50000000000000000000000000000000000091
:100F60000000000000000000000000400000000041
:100F70000000000000000000000000000000000071
:100F80000000000000000000000000000000000061
:100F90000000000000000000000000000000000051
:100FA00000000000C300000000000000000000007E
:100FB0000000000000000000000000000000000031
:100FC0000000000000000000000000000000000021
:100FD0000000000000000000000000000000000011
:100FE0000000000000000000000000000000000001
:100FF000000000000000000000000C302000000095
:1010000000000000000000000000000000000000E0
:1010100000000000000000000000000000000000D0
:1010200000000000000000000000000001000000BF
:101030000000000000000000400040000000000030
:101040000700000000000000000000000000000099
:1010500000C30000000000000000000000000000CD
:101060000000000000000000000000000000000080
:101070000000000000000000000000000000000070
:101080000000000000000000000000000000000060
:10109000020000000000000000000000000000004E
:1010A000000000000000000C3020000000000000E4
:1010B0000000000000000000000000000000000030
:1010C0000000000000000000000000000000000020
:1010D0000000000000000000000000000000000010
:1010E000000000000000000000000000000000728E
:1010F0003C34010000000000000000000000C300BC
:1011000000000000000000000000000000000000DF
:1011100000000000000000000000000000000000CF
:1011200000000000000000000000000000000000BF
:101130000000000000000000000000000800200087
:10114000000000000000003D08100000000000004A
:10115000000000000C302000000000000000000033
:10116000000000000000000000000000000000007F
:10117000000000000000000000000000000000016E
:101180000000000000000000000000080000000057
:101190000000E0000000000000800000723C34000D
:1011A0000000000000000000000000C3000000007C
:1011B000000000000000000000000000000000002F
:1011C000000000000000000000000000000000001F
:1011D000000000000000000000000000000000000F
:1011E000000200000000000008003C000000002099
:1011F000000000003D0000000000000000000000B2
:10120000000C302000000000000000000000000082
:1012100000000000000000000000000000000000CE
:1012200000000000000000000000000000000000BE
:10123000000000000000000000000000000000406E
:101240006000000A540B000019523C3000000000FE
:101250000000000000000000C300000000000000CB
:10126000000000000000000000000000000000007E
:10127000000000000000000000000000000000006E
:10128000000000000000000000000000000000005E
:10129000000000000004000001C05A40300000803F
:1012A000803D8000000000000000000000000C30C5
:1012B000200000000000000000000000000000000E
:1012C000000000000000000000000000000000001E
:1012D000000000000000000000000000000000000E
:1012E00000000000000000000000000000000000FE
:1012F000000000000199523C300000000000000096
:101300000000000000C3000000000000000000001A
:1013100000000000000000000000000000000000CD
:1013200000000000000000000000000000000000BD
:1013300000000000000000000000000000000000AD
:1013400000000000000000000000000080803D80E0
:1013500000000000000000000000000C3020000031
:10136000000000000000000000000000000000007D
:10137000000000000000000000000000000000006D
:1013800000000000030007800000000000000000D3
:101390000000000000007BC106000000000000000B
:1013A0000000007A3C34000400000000000000004F
:1013B0000000C3000000000000000000000000006A
:1013C000000000000000000000000000000000001D
:1013D00000000000000000000000001000000000FD
:1013E000000000000000000000000000043C1000AD
:1013F00000000000000000000000003D00000000B0
:1014000000000000000000000C3020000000000080
:1014100000000000000000000000000000000000CC
:1014200000000000000000000000000000000000BC
:1014300000000000000000000000000000000000AC
:10144000000000000000000000000000000000009C
:101450005A3C34000000000000000000000000C3FF
:10146000000000000000000000000000000000007C
:10147000000000000000000000000000000000006C
:10148000000000000000000000000000000000005C
:10149000000000000000000000000000000000004C
:1014A00000000000000000003D00000000000000FF
:1014B00000000000000C30200000000000000000D0
:1014C000000000000000000000000000000000001C
:1014D000000000000000000000000000000000000C
:1014E0000000363D4000000000000000000001B098
:1014F0003BC100000040000000000009885A3C3455
:10150000000000000000000000000000C300000018
:1015100000000000000000000000000000000000CB
:1015200000000000000000000002000000000000B9
:1015300000000000000000000003D4800000000054
:1015400000000000001A043C100000000000000031
:1015500000001000803D00000000000000000000BE
:1015600000000C302000000000000000000000001F
:10157000000000000000000000000000000000006B
:10158000000000000000000000000000000000005B
:10159000000000000000000000300000103BC1000F
:1015A00040000000000003000B005A15540000002A
:1015B000000000000000000000C300000000000068
:1015C000000000000000000000000000000000001B
:1015D000000000000000000000000000000000000B
:1015E00000000000000000000000000000000002F9
:1015F000000008043C100400000000000030001847
:101600000081550000000000000000000000000CF8
:10161000302000000000000000000000000000007A
:1016200000000000000000000000000000000000BA
:101630000000000000000000000008005B295801C5
:1016400000000000000004000001F281800000069C
:1016500000000000100000000000000000020EA0CA
:10166000100000000000C3000000000000000000A7
:10167000000000000000000000000000000000006A
:10168000000000000000000000000000000000005A
:1016900000F001003D20100002C0000000400000EA
:1016A00004281000000000000000000000000000FE
:1016B0000000040005050000000000000C302000C0
:1016C000000000000000000000000000000000001A
:1016D000000000000000000000000000000000000A
:1016E000000000000000800000000000000000007A
:1016F00000000008007800000000200140400000C9
:1017000000000000000000000020000000000000B9
:10171000000000C300000000000000000000000006
:1017200000000000000000000000000000000000B9
:101730000000000000000000000000002000000089
:101740000000000000000000000200008000000017
:101750000800363C000000000000000000000022ED
:10176000C000000000000000000C3020000000005D
:101770000000000000000000000000000000000069
:101780000000000000000000000000000000200039
:101790000000000000000000000000000000000049
:1017A00000000000000000000000008F04040000A2
:1017B000007714000041400000000000000000001D
:1017C000C300000000000000000000000000000056
:1017D0000000000000000000000000000000000009
:1017E00000000000000000000000000000000000F9
:1017F00000000000000000000000000000000000E9
:101800000010F040002000004140000000000000F7
:101810000000000000000C3020000000000000006C
:1018200000000000000000000000000000000000B8
:1018300000000000000000000000000000000000A8
:10184000000800000000000000000000000400008C
:10185000A0000000000000018F0400010000000053
:101860000000011E000000000000000000C3000096
:101870000000000000000000000000000000000068
:101880000000000000000000000000000000000058
:101890000000000000000030100000000000000008
:1018A000000000004000000000000000340010F0C4
:1018B00040001000000000000000000000000000D8
:1018C0000000000C302000000000000000000000BC
:1018D0000000000000000000000000000000000008
:1018E00000000000000000000000000000040100F3
:1018F0000303D000000000000000004000000000D2
:10190000000100001DC052000400000000000100A2
:1019100000000000000000000000C3000000000004
:1019200000000000000000000000000000000000B7
:1019300000000000000000000000000000000000A7
:1019400000000000000000003D0000040240000014
:101950000000000000000000100000100500004022
:101960000000000000040000000000000000000073
:101970000C3020000000000000000000000000000B
:101980000000000000000000000000000000000057
:101990000000000000000000000000000000000047
:1019A00001000000000000000000E0000000000056
:1019B000020000000000001C00000000000001DA2E
:1019C000A0110000000000C30000000000000000A3
:1019D0000000000000000000000000000000000007
:1019E00000000000000000000000000000000000F7
:1019F00000000000000000000010000000000000D7
:101A00000000000000000040000000000001000095
:101A10000000000000000A0000000000000C302060
:101A200000000000000000000000000000000000B6
:101A300000000000000000000000000000000000A6
:101A40000000A000000000000000000000000000F6
:101A500001DE7F008000000000000000020007AAF5
:101A60000008000800000000000016000000000050
:101A700000000000C30000000000000000000000A3
:101A80000000000000000000000000000000000056
:101A90000000000000000000000000000000000046
:101AA0000000000000014024DFF000000000000002
:101AB0000000001C0000A0000000F000000000007A
:101AC000002340000000000000000C302000000057
:101AD0000000000000000000000000000000000006
:101AE00000000000000000000000000000000001F5
:101AF0004000000380000000000000000000000023
:101B000000300000006BC1044100002180A01000E3
:101B100000000000000000000000000000000000C5
:101B200000C30000000000000000000000000000F2
:101B300000000000000000000000000000000000A5
:101B4000000000000000080000002040000000002D
:101B5000000001C000000002040000043C1000006E
:101B60000000400500000000000000000000000030
:101B70000000000000000000000000000000000065
:101B8000000000034895E0000059B1B420000000B7
:101B9000001C895C00000D9B9B02000000003400CB
:101BA0000000800057FC3000000021DC0A400002E9
:101BB0000009B829000000001C850C00001000720C
:101BC0003C38000020055A424000000000000000A0
:101BD000000000000000000000002CD56420000080
:101BE0000A324000000000014D5642000050A9306A
:101BF0000000010003B40000000000743D0000007C
:101C0000040100A4000000009C003000000003C09C
:101C1000054300000000003D0800004225885410E4
:101C200000000000000000000000000000020000B2
:101C300001C850C00800D81D6A00082000001C859B
:101C40000C00800581D6A00082001C680003800083
:101C500000723C30030020016EA0000800809776DF
:101C600091002000001C850C00800000723C3802AE
:101C700000067000A5400000000000000000000009
:101C8000000000008000003C00540200050A5800DB
:101C90000008000003C00540210000AD8000008066
:101CA00002E4240020000000003D00800040020A01
:101CB0000002008118F3DD3008000002C005412059
:101CC00000F000003D008003443405A40000000043
:101CD00000000000000000000000000020654850E7
:101CE000C00000818073CC080000C654850C001031
:101CF000081802BCC080002C780003000819523C70
:101D00003000003461FCDF420028000F670100C092
:101D1000000654850C03008019523C3800002061F5
:101D20006C500000000000000000000000000000F7
:101D3000000003C22E005400000100043CC000005B
:101D40000022E00540000010C043CC000001C01498
:101D50000000001080803D000000602F0DAC0000EE
:101D600000003FB95004000023E00541300000802E
:101D7000803D000001C2C00500000000000000001E
:101D800000000000000000000006054850C00000F0
:101D900019ADF8000000006054850C0000099BDFBD
:101DA0008000000016020000000719523C300000BD
:101DB000003ACA3040000000103BC10000006054EF
:101DC000850C00007199523C3400002003CA306237
:101DD0000000000000000000000000000000000003
:101DE000023E005400000D00FE004000000023E011
:101DF00005400000508FE004000000202400000097
:101E00000880803D000000002DAB14000000080495
:101E10003C1800014022E0054100070080803D00A1
:101E2000000042EF038400000000000000000000FA
:101E30000000000000100005E850C00040500D6A8E
:101E400001880100005E850C0004050AD6A0108000
:101E500010000200000400007A3C3000102005DC75
:101E6000054000407003FE81000100031E850C0048
:101E70000400007A3C32001086040CF040000000A0
:101E80000000000000000000000000000002AC00A4
:101E90005400000D805000100000002AC0054000D2
:101EA00000D905400180000000140000400000003F
:101EB0003D000102420100540000008076345800C9
:101EC00000007BC0054000000000003D0001000252
:101ED000400F0400000000000000000000000000AF
:101EE00000000000016850C0000070E1A420000064
:101EF000000016850C0000000012420000000002E5
:101F000000000040007A3C300010067A6C0040402F
:101F100040B809FA952001080016850C0000000061
:101F20005A3C320000007E5942410000000000008F
:101F30000000000000000000000003BC005400008E
:101F4000008097000000000003C005400000D00999
:101F50006800000000000400000200F0003D0000E6
:101F600000042C005410280B80D017D00010400221
:101F7000C0054000000000003D000100022684A4CE
:101F80000000000000000000000000000000000051
:101F900006056850C0000000000000000002605606
:101FA000850C00008000B3C20000000000000004A7
:101FB00001805A3C3000002E00E8A000000018BF4D
:101FC000B0010400026316850C1000099C5A3C32D3
:101FD0000000007FCF034000000000000000000070
:101FE0000000000000000002AE00540000000000ED
:101FF00000000000042AE00540000000B3F80000E3
:10200000000000240000000000803D0000024001AC
:102010000A000000001870015000000443E0054071
:1020200000001000803D000001C61DD074100000AB
:1020300000000000000000000000000C002061E82B
:1020400050C0300000A0000000C002061E850C0336
:1020500044050A0000000410000000010409805A31
:1020600015500C100067EAF0523041B80000000033
:10207000C162061E850C110408005A15500D10246B
:1020800006C907400000000000000000000000003A
:1020900000008100403E00540204001B00000008C4
:1020A000100403E00540244009B000000040000097
:1020B0001400304010F08155008100439E0F44020F
:1020C00004238B00000008114402E005401040107A
:1020D000008155809102C3DFF03500000000000050
:1020E000000000000000000000000005C850C00013
:1020F0000001B00000000000005C850C00000180C1
:102100000029580000007AE000000D9BFF3D5000C0
:10211000000603FCE200000000A000000000020036
:102120001C8504000109983FB89C00016000FFA1D4
:10213000404000000000000000000000000000001F
:1021400000026400544000000A0000000000002665
:102150004005440000000D0169A4000000360000A5
:1021600000D0AD4141000800001DE5200000001036
:1021700000000000000400400A440000F00DA30D20
:102180000000084006DE24000000000000000000FF
:10219000000000000002000001C850C00000D8008C
:1021A0000000002000001C850C0080000050401042
:1021B0000E000003C0008008013FBD500200000077
:1021C000DCE3420A000007E81500200000000000E0
:1021D0000381801F3AB8D402A000001AF04000002A
:1021E000000000000000000000000000800000343B
:1021F00000540000050000000008000003400540F6
:1022000020000001AB9D00800243F600200050B585
:10221000414100800000000E341210000C0C0158E7
:1022200008000000000000200011F7E10D04840008
:1022300002400F0400000000000000000000000049
:10224000000000000065C850C00000000000000051
:102250000000065C850C00000798801690000026A0
:10226000664001100F0F5FA9500000002A4AA50028
:1022700000000000000000C000000000000000009E
:102280001F3AB894000000000EF04000000000006B
:102290000000000000000000000000026600540082
:1022A0000000000000000000002660054000000063
:1022B000050295000002665600300059B182A9005F
:1022C0000003C00C0F5000000000000000040000DC
:1022D00000000000000000CDF70D200000C0000F3E
:1022E00004000000000000000000000000000000EA
:1022F0000006654850C000000000000000000066B5
:1023000054850C00000F805050900000266660003D
:10231000000D9B5F295000003401DE64420502007D
:10232000E000000000000000000003028700D6B8B3
:1023300094400006000EF040000000000000000085
:102340000000000000000000023600540000000001
:102350000000000000002360054000001801A801F3
:102360000000026656000030D0AD02A90000004017
:10237000070A440460000B00000000000000000099
:10238000001038000BA70D00000000000F04000033
:10239000000000000000000000000000000000013C
:1023A000E850C0000000096020000000001E850CFD
:1023B00000000000DBBC1840000001E00000000E3F
:1023C000FEBD50000024036E1550000000117A81FC
:1023D000040000004000000000001B3E7898000050
:1023E00000000AF0400000000000000000000000B3
:1023F000000000000000240054000000001A40000B
:102400000000000240054000000005429504000065
:10241000403600000001010141000003C03DE256CA
:102420000000000B0828100000003400000000002D
:10243000008DF30D00000400000F040000000000F8
:10244000000000000000000000000000016850C013
:102450000280000000000000000016850C00280328
:102460008000000000002030C00000001C3E3D50F5
:102470004000A063ECC04000180008602900000084
:102480000000000000000989D6789000001C640E4E
:10249000F04000000000000000000000000000000C
:1024A0000000003400540010000000000000000094
:1024B00003400540010008000000000000C0340097
:1024C000000050094141000002C02CCE5400000021
:1024D0000DD4017200A00000000000000011DBF329
:1024E0000D80000242C10F04000000000000000047
:1024F000000000000000000026056850C000000039
:102500000000000000026056850C00000001000081
:102510000000000021C0000000007B3D50000026AC
:1025200067DD0540028000000000000000000000A0
:1025300000000005803FF45C000006281CF040000D
:102540000000000000000000000000000000004249
:102550002600540000000000000000000422600576
:1025600040000000800000000002C41400000000D1
:102570000941410100A3C21DC8B4000000000000D1
:102580000000002C000000000001900DFBC10000C5
:102590000344000F040000000000000000000000E1
:1025A0000000000C00200168504000000000000006
:1025B00000C0160016850403000018FAC4140C00AD
:1025C0000000600300000E3ABD500C0026235AA5FF
:1025D00040310080A373D402C01400000000030047
:1025E0000F01763C004C000002F92540000000007D
:1025F0000000000000000000000080004036005491
:102600000000000000000008008403600540200076
:102610000003AAD50240000214002000510101412C
:10262000008001402E0AF402080B100C3D405801B6
:1026300080000000002018308B03D4008002402D61
:10264000E1D40000000000000000000000000000D5
:10265000000000000000000000000000000000007A
:1026600006808F06000008010000000000800000C6
:102670000000000A3BA814000000600000000000F9
:1026800081833E954000000635C0040000000E0620
:102690003C1400000666CE080000000000000000A8
:1026A000000000000000000000000000000000002A
:1026B000000000000000004010F0400000D0F000DA
:1026C000000000100000000000D1033EE100008087
:1026D00002C0000000000100176B5A000014005DEA
:1026E00080400000010003C1000000023CF0000037
:1026F00000000000000000000000000000020000D8
:1027000000000000000000000000002000000000A9
:10271000000080000000000000A000000000800712
:102720000A5662C002002000DA0A000800180FB240
:10273000BD802001E06580800388010007BC16028F
:10274000A000036C03020000000000000000000075
:1027500000000000800000000000000000000000F9
:10276000000800000000000020000000000000043D
:10277000000000002000D8B9AA9C00800042EF00B1
:102780000002000700B016B008001C375B000021F3
:1027900000080043C160800003ED08200000000035
:1027A0000000000000000000000000000000000029
:1027B0000000000000000000C00000000000000059
:1027C000000080295200000000000000050AD2EE3F
:1027D0000000000003E88162800001C73F4500005F
:1027E00003476FA03023280000023C180000A629F0
:1027F0005E01420000000000000000000000000038
:1028000000000000000000000000000000000400C4
:1028100000000000000200D00B0169010000000070
:1028200000000450A566D400000000070804100250
:102830000000D714B040002E77C0820011000000C5
:1028400043C140000266CF000410000000000000F9
:1028500000000000000000000000696E054040001C
:102860000000000000000000000000000000000068
:10287000000000000000000040050AB2EE00000069
:1028800016605A050000003811E815000016001502
:10289000800420200000073C18008006734C014093
:1028A0000000000000000000000000000000000028
:1028B000040300548000000000000000000000003D
:1028C0000000000000000000000000000000040202
:1028D000590921E800000020020050000080889083
:1028E0002BD02000AD396080400100000043C100C2
:1028F0000460043E800400000000000000000000AE
:1029000000000000000000000000000000000000C7
:102910000000000000400000000000000000000077
:10292000000000000000098073201080000623ECE6
:10293000A0430400D007BC0D0000020045DA0000EF
:1029400000480103BC1010003606E88100000000BA
:102950000000000000000000000000000000000077
:1029600000000000000000000000003C000000002B
:1029700000000000000000000000000000100180C6
:102980000302000003860DA400000180D369D20079
:10299000000420EF6000000030C003C100080142C5
:1029A00097950000000000000000000000000000FB
:1029B0000000000000000000000000000000000017
:1029C000000000000000028018000000000000006D
:1029D0000000000180F6A9100002002C18A04000A1
:1029E0000081A0714100000066BEA0C4200000016B
:1029F000033C1000000061580C4200000000000081
:102A000000000000000000000000000000000000C6
:102A10000000000000000000000000000000008036
:102A2000000000000000000000000003FAE30000C6
:102A30000007AD05041003810B74281000A00040AE
:102A4000400860000000C003C180008000150084C1
:102A50000000000000000000000000000000000076
:102A60000020000000000000000000000000000046
:102A70000000000020000000000000000000000036
:102A8000001F000000000000000000000000801D8A
:102A9000E4D1240000028F9B5400000800000000D5
:102AA0000000006AEBD340000000000000000000BE
:102AB0000000000000000004000000000000000012
:102AC0000000000000000000000005000000000001
:102AD0000000000000000250800000000000000024
:102AE000000000020D085BC410000000014F5A40B6
:102AF0000000B000000000000140169C34000000FF
:102B000000000000000000000000000C00000000B9
:102B1000000000000000000000C0000000000003F2
:102B20000000001269D00000000000030010000047
:102B300000000C000002FB30403000D9E000000033
:102B4000C800461EFF440300000E00000004A00061
:102B50006D7BA740000000000000000000000000A6
:102B600000008000000000000000000000000008DD
:102B70000000000000002000000576952000000005
:102B8000000020020000000000800002AFF7A482D5
:102B9000000100000000084000027CF640A0050093
:102BA00000000000040002A6DB7404000000000026
:102BB0000000000000000000000000000000000015
:102BC00000000000000000000001AF040010200021
:102BD0007702800000000000000000187362C0004F
:102BE0000014657CA140020080132B4540000002C8
:102BF000800000002988007F800400005E0058F5F6
:102C000000000000000000000000000000000000C4
:102C100000000000000000000000000000000000B4
:102C200000F0400085700080284000800000000017
:102C30000000E9B96C000000035DFD1408180708E6
:102C4000725090000040000000000000F081680811
:102C500000000020010F50080000000000000000EC
:102C60000000000000000000000000000000000064
:102C700000000020140001AF0400C00000000000AC
:102C8000000000000000A8080000295002002001F8
:102C9000C9A440080081A93B450000800261AA0048
:102CA000000028005A00000E0024201AF040000006
:102CB0000000000000000000000000000000000014
:102CC0000000000000000000000800800010F0403C
:102CD0002438000000000000000000002004100F55
:102CE0000169008000401DD745020181003B14B0FE
:102CF0000000007EC050000038700FC280008003CA
:102D0000C0010F04040000000000000000000000EB
:102D100000000000000000000000000000000000B3
:102D2000C0000000000000100800000000002000AB
:102D300000000300000003BC1000000007DCC040DE
:102D40000000800063C100000002A0AA0000000192
:102D500080FF80008C2000021AA00000000000000C
:102D60000000000000000000000000000000000063
:102D70000000000000000C0000000000000080D0F7
:102D80000000000000800000001000000003C100EF
:102D9000000003EFEE5410000100043C1000007C22
:102DA00000C05020000000E1810000440000140534
:102DB0000000000000000000000000000000000013
:102DC0000000000000000000000000000000000300
:102DD00000000000000018000000000000000000DB
:102DE00040000000295000000002DF1A00000058D7
:102DF000000000000081E78000000000081E7B004A
:102E00000000A0267A1A0A0000000000000000005E
:102E100000000000000000000000000000000000B2
:102E2000000000000034400000000000000000002E
:102E300000000000000004000003016900000140E0
:102E400016E0000000000000000000000068000024
:102E50000000007007801400040264140050000099
:102E60000000000000000000000000000000000062
:102E70000000000000000000000000000000000052
:102E800000000008000000000000000000000180B9
:102E9000023C10000000064A800001087013728195
:102EA000000000003D8FF2000010007BC080040095
:102EB0000005F8F500000000000000000000000020
:102EC0000000000000000000000000000000000002
:102ED00000000000000000000000000000000000F2
:102EE000000000002400F043C1000000022DD000CB
:102EF0000008000E00281000000002D0FA000002B6
:102F0000F009600002000003C20F5004000000003E
:102F100000000000000000000000000000000000B1
:102F20000000000000000000000000000000200180
:102F300000000000000000000000000181063C10BD
:102F40000000207DFCE74203B81015E28101000279
:102F500007F58F500829000003B000900020000002
:102F60005A00800000000000000000000000000087
:102F70000000000000000000000000000000000051
:102F80000000000001000800000000000000000038
:102F90000000008003C100001542840C740008008A
:102FA0000E002812000E143B70FF080000000043C2
:102FB00000000041C33C0A50000000000000000077
:102FC0000000000000000000000000000000000001
:102FD00000000000000007000000000000000000EA
:102FE00000000000000000008001073C1000000607
:102FF0003649024000101808328100000200168F86
:1030000050080388090283C84C000000000000003B
:1030100000000000000000000000000000000000B0
:103020000000000000000000000000000040000060
:1030300000000000F0000000000000000000007030
:103040008003C1000000461DD0A480005000B014D1
:10305000100000240030F500020090E0403C200009
:1030600000038000000000000000000000000000DD
:103070000000000000000000000000000000000050
:1030800000C000000000000000000016BC1040005E
:1030900000000003000100073C100C002601F9F1BC
:1030A000403000001933FC00000006BFAA000000F9
:1030B000001896C0800C000000F8500100000000CD
:1030C0000000000000000000000000000000000000
:1030D00000000000000000080000000000000000E8
:1030E000000576E00100000000002000000043C160
:1030F0008080014004EF060200000FF43E80400192
:103100000401F00020800031FFE8002240000202AC
:10311000050090000000000000000000000000001A
:10312000000000000000000000000000000000019E
:103130004601EF040010801ABAAD500100000200F1
:103140000010050112B30000000003C850C00000C9
:103150001009B280000A00003EE1F00000038E7BFF
:10316000EF40000080000CF0400000000000000074
:10317000000000000000000000000000000000004F
:10318000000000000000140010F04000000005B82E
:1031900094041100003C000000088730000000008B
:1031A000003C00542000008BF03D4000400001FA3C
:1031B00015000100090D6EFC20080003C00F0D0072
:1031C00000000000000000000000000000000000FF
:1031D000000000000000000000000020000000CF00
:1031E000040080001A76BD440E0000020000008535
:1031F00000DE620002001603C850C0080031E7E894
:103200001408E0140067AB90208020185A96800EB6
:1032100040800008F04000000000000000000000B6
:10322000000000000000000000000000000000009E
:10323000000800000000F050A000000003D404804B
:1032400000003C00000008BFF444008000000400BF
:103250005402000080140900080C843BE034002074
:1032600034F00FC3E8408A5400010F04040000004A
:10327000000000000000000000000000000000004E
:103280000000000000000000C0000000000000007E
:103290000818F6AD5020008002000001070A9EF3D6
:1032A000000C0000674850C0311811C97828000090
:1032B000E9E00EEA50000103980029500C0B2000B1
:1032C0000CF04000000000000000000000000000C2
:1032D00000000000000000000000000000000C00E2
:1032E000000000000000005005F894000000001CE1
:1032F000000000D1B7300000C000023E005403209F
:103300000390F32F4000000201D0AA000001080D35
:10331000016900400BC0010F041400000000000010
:10332000000000000000000000000000000000009D
:10333000000000000000000601AF0400000B995AD5
:10334000BC1010001E02000020000A72A200000043
:1033500006674850C0000101E3A91808C000422ECA
:10336000C1002010500E802950004A3E001CF04041
:10337000000000000000000000000000000000004D
:10338000000000000000000000000000000000102D
:10339000F040000050A976E0040000201C0001006D
:1033A000D10DFC8800000002060054000020101C13
:1033B00032C008000043C07000022A010901690000
:1033C0000003C0010F040400000000000000000022
:1033D00000000000000000000000000000000000ED
:1033E0000000000200040A540000019EFE2D54005B
:1033F000000000000020298033A000C0008003E806
:1034000050C000009013BB9408000063AECE702043
:1034100020500097A80000004E7C1AF040000000E9
:10342000000000000000000000000000000000009C
:1034300000000000000000000000040000A54000A3
:103440000008057894000A00003C000004500900C0
:1034500000000014003C005400200F8E743FC00098
:10346000001C43E0EF000020000FC3D400141C3602
:10347000400F0504000000000000000000000000F4
:10348000000000000000000000000000000000003C
:1034900000000000000000001C5FBC1040000000A5
:1034A000000000081A02B3C8800000036850C00082
:1034B00002181B2954000008F2D7C184200000081C
:1034C000D706008000000400A54080000000000036
:1034D00000000000000000000000000000000000EC
:1034E00000000000000000000000000000000007D5
:1034F00036E0000000003C0000005000033C0000EB
:1035000000000400540003500898168000013C2A73
:10351000F01040040050BB42BC00000003FC05A5B5
:103520000400000000000000000000000000000097
:103530000000000000000000000000000000020089
:103540008F0400000F01FEAD504000142800000160
:103550000D9B000000000026236850C0000018E00A
:103560002BC10000004000000000200F8193AE40FE
:10357000800000040AF04900000000000000000084
:10358000000000000000000000000000000000003B
:1035900000000000000010F04000009885B8940082
:1035A000000366DC00000010A00000000004403EA4
:1035B00000540000000F003C100000002400000038
:1035C0000000B08300E000000003800F0400000052
:1035D00000000000000000000000000000000000EB
:1035E000000000000000000000C00000440A540079
:1035F0000009815EBC1044001428000000258100F1
:1036000000000500207B685040300078E92AA800BF
:103610004001E7C000000100081D03BC10040E00BB
:10362000001AF04000000000000000000000000050
:103630000000000000000000000000000000000882
:1036400000002000A5400000108376E001C0036662
:10365000DC00000100A00000001000400600540241
:10366000000F80982940140000300000001000B1C5
:10367000F003C100800000000F04100000000000F3
:10368000000000000000000000000000000000003A
:1036900000000F21430000024067F8800000800016
:1036A000567C3000400006600800000003BC10009B
:1036B000000C32EAD9000100908334980000000623
:1036C0001D8F0000000000FB80002003A0274CA5F8
:1036D00040000000000000000000000000000000AA
:1036E0000000000000000000083001508000042BA2
:1036F000E92200000000006C3D000201C37E0000D2
:1037000000000003C304000027ECF58000000F1C3C
:10371000FBD6C000000001F0F52080000003280463
:10372000000008C3CD0AA4800000000000000000D3
:103730000000000000000000000000000800000F72
:10374000214300000166F5CCC00383001E723C30AB
:103750000200003EC0078000008029504E00000596
:103760004A05023802780B228008201002000A5411
:1037700003C00100802950024C8020DCF5000000CD
:103780000000000000000000000000000000000039
:103790000000020000007001500000002ADA000062
:1037A00020000100003D008000038E00200000E3A7
:1037B00001690080484226024002034109DC2040A2
:1037C00008488003C05A402000080B0169048A049D
:1037D00004240A00100000000000000000000000A7
:1037E0000000000000000000001000019D214300C7
:1037F0000003669EA88003000819523C30000000B8
:1038000001E00708000007BC1000003C7DFA1842E8
:1038100000007805F861080003C7808F040303A146
:103820008083954004440E3168A5008000000000AC
:103830000000000000000000000000000000000187
:103840000000083801500000143A7B1100320010CB
:1038500080803D000000003E00110000C043C10018
:103860000003E38E01060000000014021000001E99
:103870000010F0401004000302A8004A03C405052C
:1038800050000000000000000000000000000000E8
:103890000000000000000000999D2143000002008C
:1038A00024E8022010019F523C3000003C01E0005F
:1038B000030000063C100C007E006E2A0030000061
:1038C000E7EC7C0000000000CF0400000000FFA92E
:1038D000C0A0006400EAF5008000000000000000C5
:1038E00000000000000000000000000000000108CF
:1038F00078015000001400C0000002800180803D6B
:10390000000001E00C010000000043C18080006263
:10391000E7E1F0020005091E054000017C0000F00F
:103920004000050001400400001DC0270A000000FF
:103930000000000000000000000000000000000087
:103940000000000000000DA14300000000040DB0C5
:10395000200000007A3C3000002E05E00402800EBA
:1039600002BC1000000E785A3402001031A820B8B2
:103970000004000780C1B0002800019BC080000047
:10398000007268A5000000000000000000000000B8
:1039900000000000000000000000000000300150A6
:1039A0000000000000DB0000000000003D000002FD
:1039B000634400000000F043C1800060C6670760F8
:1039C00000000018D68740008024415F27000030A7
:1039D00000FF3000000080403F0AA000000000000F
:1039E00000000000000000000000000000000000D7
:1039F0000000800DA143000000627EFCC0000000BA
:103A0000005A3C3000000E724000000101073C10DB
:103A1000000006016C1B000105580FB97C0800006E
:103A200007BCA5F000000808FF00804106007B5A93
:103A30000000000000000000000000000000000086
:103A400000000000000000000500700150000000B0
:103A50007C5A00000000F000003D000000202E0411
:103A6000000078D003C10100000345D170000800B8
:103A700000D8108000002442F0050000003101B899
:103A80000000100247EC00A0100000000000000041
:103A9000000000000000000000000000000000988E
:103AA0000DA14300000062000000000001885A3CA4
:103AB0003000000077C004000800033C1000000044
:103AC000794CF5000000798FF24408C400675CAAC5
:103AD000000000078083F9400040143A1CA0000059
:103AE00000000000000000000000000000000000D6
:103AF00000000000000100380150000000400000FC
:103B00000000000000803D0000000666000000305C
:103B10000043C1800002442E0A00000000009038DB
:103B2000C000A02463C0F5000000FC0F3368210032
:103B30000064150500800000000000000000000087
:103B4000000000000000000000003000800DA141D6
:103B500000000242400000030028187A15500400BB
:103B60002676C009000000073C10040C000000008D
:103B700000100080900000004014002EEA50031254
:103B8000818E8391C084280079CEA00000000000BF
:103B90000000000000000000000000000000000025
:103BA0000200050078015000001E7800000010059A
:103BB0001000815500C0026654000002008043C11D
:103BC000804000028000000100050800000008009D
:103BD000800150551022827901022C0004A4001E9D
:103BE0000FA0000000110101010000000000000012
:103BF0000000000010000000000000400000000075
:103C0000000100000000000004000000000000109F
:103C10000000000000004000000000100000000054
:103C2000000040000000000001000000000000044F
:103C30000000000000001000000000000040000034
:103C40000000000000000000000002000000000072
:103C500000080000000000002000000000000080BC
:103C6000000000000002000000000000080000004A
:103C7000000200000000000008000000000000201A
:103C800000000000000080000000000002000000B2
:103C9000000000080000000000000000000000001C
:103CA0000000000000000000000000000000000014
:103CB0000000000000000000000000000000000004
:103CC00000000000000000000000000000000000F4
:103CD00000000000000000000000000000000000E4
:103F70000000000000000040000000000000000001
:103F80000000000000000000000000000000000031
:103F90000000000000000000000000000000000021
:103FA0000000000000000000000000000000000011
:103FB0000000000000000000000000000000000001
:103FC0000000000000000000000000580004000095
:103FD00000000000000000000000000000000000E1
:103FE00000000000000000000000000000000000D1
:103FF00000000000000000000000000000000000C1
:1040000000000000000000000000000000000000B0
:1040100000000000000000000000000000000000A0
:10402000000000000000000001000000000000008F
:104030000000000000000000000000000000000080
:1040400000000000800000000000000000000000F0
:104050000000000000000000000000000000000060
:104060000000000000000000000000000000000050
:104070000000000000000000000000000000000040
:104080000000000000000000000000000000000030
:104090000000000000000000000000000000000020
:1040A0000000000000000000000000000000000010
:1040B0000000000000000000000000000000000000
:1040C00000000000000000000000000000000000F0
:1040D00000000000000000000000000000000000E0
:1040E00000000000000000000000000000000000D0
:1040F00000000000000000000000000000000000C0
:1041000000000000000000000000000000000000AF
:10411000000000000000000000000000000000009F
:10412000000000000000000000000000000000008F
:10413000000000000000000000000000000000007F
:10414000000000000000000000000000000000006F
:1041500000000000000C3000000000000000000023
:10416000000000000000000000000000000000004F
:10417000000000000000000000000000000000003F
:10418000000000000000000000000000000000002F
:10419000000000000000000000000000000000001F
:1041A000000000000000000000000000C30200004A
:1041B00000000000000000000000000000000000FF
:1041C00000000000000000000000000000000000EF
:1041D00000000000000000000000000000000000DF
:1041E00000000000000000000000000000000000CF
:1041F00000000000000000000000000000000000BF
:1042000000000C3000000000000000000000000072
:10421000000000000000000000000000000000009E
:10422000000000000000000000000000000000008E
:10423000000000000000000000000000000000007E
:10424000000000000000000000000000000000006E
:10425000000000000000000000C302000000000099
:10426000000000000000000000000000000000004E
:10427000000000000000000000000000000000003E
:10428000000000000000000000000000000000002E
:10429000000000000000000000000000000000001E
:1042A0000000000000000000000000000000000C02
:1042B00030000000000000000000000000000000CE
:1042C00000000000000000000000000000000000EE
:1042D00000000000000000000000000000000000DE
:1042E00000000000000000000000000000000000CE
:1042F00000000000000000000000000000000000BE
:10430000000000000000C3020000000000000000E8
:10431000000000000000000000000000000000009D
:10432000000000000000000000000000000000008D
:10433000000000000000000000000000000000007D
:10434000000000000000000000000000000000006D
:104350000000000000000000000000000C30000021
:10436000000000000000000000000000000000004D
:10437000000000000000000000000000000000003D
:10438000000000000000000000000000000000002D
:10439000000000000000000000000000000000001D
:1043A000000000000000000000000000000000000D
:1043B000000000C302000000000000000000000038
:1043C00000000000000000000000000000000000ED
:1043D00000000000000000000000000000000000DD
:1043E00000000000000000000000000000000000CD
:1043F00000000000000000000000000000000000BD
:104400000000000000000000000C30000000000070
:10441000000000000000000000000000000000009C
:10442000000000000000000000000000000000008C
:10443000000000000000000000000000000000007C
:10444000000000000000000000000000000000006C
:10445000000000000000000000000000000000005C
:10446000C302000000000000000000000000000087
:10447000000000000000000000000000000000003C
:10448000000000000000000000000000000000002C
:10449000000000000000000000000000000000001C
:1044A000000000000000000000000000000000000C
:1044B0000000000000000C300000000000000000C0
:1044C00000000000000000000000000000000000EC
:1044D00000000000000000000000000000000000DC
:1044E00000000000000000000000000000000000CC
:1044F00000000000000000000000000000000000BC
:1045000000000000000000000000000000C30200E6
:10451000000000000000000000000000000000009B
:10452000000000000000000000000000000000008B
:10453000000000000000000000000000000000007B
:10454000000000000000000000000000000000006B
:10455000000000000000000000000000000000005B
:104560000000000C3000000000000000000000000F
:10457000000000000000000000000000000000003B
:10458000000000000000000000000000000000002B
:10459000000000000000000000000000000000001B
:1045A000000000000000000000000000000000000B
:1045B00000000000000000000000C3020000000036
:1045C00000000000000000000000000000000000EB
:1045D00000000000000000000000000000000000DB
:1045E00000000000000000000000000000000000CB
:1045F00000000000000000000000000000000000BB
:1046000000000000000000000000000000000000AA
:104610000C3000000000000000000000000000005E
:10462000000000000000000000000000000000008A
:10463000000000000000000000000000000000007A
:10464000000000000000000000000000000000006A
:10465000000000000000000000000000000000005A
:1046600000000000000000C3020000000000000085
:10467000000000000000000000000000000000003A
:10468000000000000000000000000000000000002A
:10469000000000000000000000000000000000001A
:1046A000000000000000000000000000000000000A
:1046B000000000000000000000000000000C3000BE
:1046C00000000000000000000000000000000000EA
:1046D00000000000000000000000000000000000DA
:1046E00000000000000000000000000000000000CA
:1046F000000000000000000000000040000000007A
:1047000000000000000000000000000000000000A9
:104710000000001AC30200000000000000000000BA
:104720000000000000000000000000000000000089
:104730000000000000000000000000000000000079
:104740000000000000000000000000000000000069
:104750000004000000000000000000000000000055
:10476000000000000000000000000C30000000000D
:104770000000000000000000000000000000000039
:104780000000000000000000000000000000000029
:1047900000000000002000000000000000000000F9
:1047A00000000000000000000000400000000000C9
:1047B00000000000000000010000000000000000F8
:1047C00000C3020000000000000000000000000024
:1047D00000000000000000000000000000000000D9
:1047E00000000000000000000000000400000000C5
:1047F00000000000000000000000000000000000B9
:104800002600000000000000000000000000000082
:10481000000000000000000C30000000000000005C
:104820000000000000000000000000000000000088
:104830000000000000000000000000000000000078
:104840000000200000000000000000000000000048
:1048500000000000000000000000000003800000D5
:104860000000000000000000000000000000C30283
:104870000000000000000000000000000000000038
:104880000000000000000000000000000000000028
:104890000000000000000000040000000000000014
:1048A0000000000000000000000000000000000008
:1048B00000000000000000000000000000000000F8
:1048C000000000000C3000000000000000000000AC
:1048D00000000000000000000000000000000000D8
:1048E00000000000000000000000000000000000C8
:1048F00000000000000000000000000000000000B8
:1049000000000000000000000000000000000000A7
:104910000000000000000000000000C302000000D2
:104920000000000000000000000000000000000087
:104930000000000000000000000000000000000077
:104940000000000000000000000000000000000067
:104950000000000000000000000000000000000057
:104960000000000000000000000000000000000047
:10497000000C3000000000000000000000000000FB
:104980000000000000000000000000000000000027
:104990000000000000000000000000000000000017
:1049A0000000000000000000000000000000008087
:1049B000000002055480000000000000000000001C
:1049C0000000000000040000C3020000000000001E
:1049D00000000000000000000000000000000000D7
:1049E00000000000000000000000000000000000C7
:1049F00000000000000000000000000000000000B7
:104A000000000000000C00000148554800000000B4
:104A100000000000000000000000000040000C301A
:104A20000000000000000000000000000000000086
:104A30000000000000000000000000000000000076
:104A40000000000000000000000000000000000066
:104A50000000000000000000000000000000020252
:104A600000F48000000000000000000000000000D2
:104A70000000000000C30200000000000000000071
:104A80000000000000000000000000000000000026
:104A90000000000000000000000000000000000016
:104AA0000000000000000000000000000000000006
:104AB00000000000006548F0C10000000000000098
:104AC00000000000000000000000000C30000000AA
:104AD00000000000000000000000000000000000D6
:104AE00000000000000000000000000000000000C6
:104AF00000000000000000000000000000000000B6
:104B00000000000000000000008000400000F400F1
:104B10000000000000000000000000000000000095
:104B20000000C302000000000000000000000000C0
:104B30000000000000000000000000000000000075
:104B40000000000000000000000000000000000065
:104B50000000000000000000000000000000000E47
:104B6000000001C8F0C800000000000000000000C4
:104B700000000000000000000C30000000000000F9
:104B80000000000000000000000000000000000025
:104B90000000000000000000000000000000000015
:104BA0000000000000000000000000000000000005
:104BB0000000000000000000000000F440000000C1
:104BC000000000000000000000000000000140C3E1
:104BD00002000000000000000000000000000000D3
:104BE00000000000000000000000000000000000C5
:104BF00000000000000000000000000000000000B5
:104C000000000000000000000000000000000001A3
:104C1000C8F0C80000000000000000000000000014
:104C200000000000000C3000000000000000000048
:104C30000000000000000000000000000000000074
:104C40000000000000000000000000000000000064
:104C50000000000000000000000000000000000054
:104C60000000004000400200F408000000000000C6
:104C7000000000000000000000000000C30200006F
:104C80000000000000000000000000000000000024
:104C90000000000000000000000000000000000014
:104CA0000000000000000000000000000000000004
:104CB00000000000000000000004002061E8F0C0D7
:104CC0008000000000000000000000000000000064
:104CD00000000C3000000000000000000000000098
:104CE00000000000000000000000000000000000C4
:104CF00000000000000000000000000000000000B4
:104D000000000000000000000000000000000000A3
:104D10000000400200F480000000000000000000DD
:104D2000000000000000000000C3020000000000BE
:104D30000000000000000000000000000000000073
:104D40000000000000000000000000000002000061
:104D50000000000000000000000000000000000053
:104D60000000000000000000260168F0D0000000F4
:104D70000000000000000000000000000000000C27
:104D800030000000000000000000000000000000F3
:104D90000000000000000000000000000000000013
:104DA0000000000000000000000000000000000003
:104DB00000000000000000000000000000000000F3
:104DC0000000F4800000000000000000000000006F
:104DD000000000000000C30200000000000000000E
:104DE00000000000000000000000000000000000C3
:104DF00000000000000000000000000000000000B3
:104E000000000000000000000000000000000000A2
:104E10000000000000000168F0C000000000000079
:104E20000000000000000000000000000C30000046
:104E30000000000000000000000000000000000072
:104E40000000000000000000000040000000000022
:104E50000000000000000000000000000000000052
:104E6000000000000000000000000000000000F44E
:104E7000080000000000000000000000000000002A
:104E8000000000C30200000000000000000000005D
:104E90000000000000000000000000000000000012
:104EA00004000000000000000000000000000000FE
:104EB00000000000000000000000000000000000F2
:104EC00000000001E8F0C040000000000000000009
:104ED0000000000000000000000C30000000000096
:104EE00000000000000000000000000000000000C2
:104EF00000000000000000000000000000000000B2
:104F000000000000000000000000000000000000A1
:104F1000000000000000008000020200F480000099
:104F20000000000000000000000000000000000081
:104F3000C3020000000000000000000000000000AC
:104F40000000000000000000000000000000000061
:104F50000000000000000000000000000000000051
:104F6000000000000000000000000000000C04062B
:104F70000548F0C000000000000000000000000034
:104F80000000000000000C300000000000000000E5
:104F90000000000000000000000000000000000011
:104FA0000000000000000000000000000000000001
:104FB00000000000000000000000000000000000F1
:104FC000000000000000020200F4000000000000E9
:104FD00000000000000000000000000000C302000C
:104FE00000000000000000000000000000000000C1
:104FF00000000000000000000000000000000000B1
:1050000000000000000000000000000000000000A0
:10501000000000000000000000000000006548F0F3
:10502000C8000000000000000000000000000000B8
:105030000000000C30000000000000000000000034
:105040000000000000000000000000000000000060
:105050000000000000000000000000000000000050
:105060000000000000000000000000000000000040
:10507000008000400000F408000000000000000074
:1050800000000000000000000000C302000000005B
:105090000000000000000000000000000000000010
:1050A0000000000000000000000000000000000000
:1050B00000000000000000000000000000000000F0
:1050C000000000000000000E000001C8F0D0000049
:1050D00000000000000000000000000000000000D0
:1050E0000C30000000000000000000000000000084
:1050F00000000000000000000000000000000000B0
:10510000000000000000000000000000000000009F
:10511000010000000000000000000000000000008E
:10512000000000F4A80000000000000000000000E3
:1051300000000000000000C30200000000000000AA
:10514000000000000000000000000000000000005F
:10515000000000000000000000000000000000004F
:10516000000000000000001000000000000000002F
:105170000000000000000001C8F0C80000000000AE
:10518000000000000000000000000000000C3000E3
:10519000000000000000000000000000000000000F
:1051A00000000000000000000000010001000000FD
:1051B0000000000000000204010098015004000CEF
:1051C00000000000100000000000004001C380004B
:1051D00000010000000000000400002000000000AA
:1051E00000000000C30200000000000000000000FA
:1051F00000000000000000000000000000000000AF
:10520000001040000000000000000000003000809E
:1052100005A141004102000000000104000000005F
:1052200000041006000000001040000000000041D3
:10523000000040000000000000000C3000000000F2
:10524000000000000000000000000000000000005E
:10525000000000000000000000000B000000000043
:105260000000000000011098015000000000000044
:1052700000000000000000000000024000000000EC
:105280005000003C3800000002C05A4000000000FE
:1052900000C3020000000000000000000000000049
:1052A00000000000000000000000000000000000FE
:1052B00018100000000000000000000099C5A14384
:1052C0000000C0000000000000000000000000001E
:1052D00000000000000002000003C10000000020E8
:1052E0000A5400000000000C300000000000000024
:1052F00000000000000000000000000000000000AE
:10530000000000000000000000000000000000009D
:1053100000000000900150000000000000000000AC
:1053200011000000000002403DCA540800000000C7
:1053300000000000003010F0400000000000C30238
:10534000000000000000000000000000000000005D
:10535000000000000000000000000000400000000D
:105360000000000000000000000005A14302010051
:10537000000000000004081800000000100001E810
:10538000B5600040000000000001000040CF0400B4
:10539000000000000C3000000000000000000000D1
:1053A00000000000000000000000000000000000FD
:1053B00000000000000000000000000000004000AD
:1053C00000900150000004000000000000B00DB388
:1053D0000D240400F30000000000000000000000A5
:1053E0000000200000000000000000C302000000D8
:1053F00000000000000000000000000000000000AD
:10540000000000000000000000000000000000009C
:105410000000000004400007A143010002600000FA
:1054200000000000003A58D040803C04000000001A
:10543000000000000000000000400000000000002C
:10544000000C300000000000000000000000000020
:10545000000000000000000000000000000002004A
:10546000000000000000000000000000000898019B
:1054700050180000000000002000010083C00080E0
:105480000022F60A5402000000000000080000009C
:1054900000F0400000000000C30200000000000017
:1054A00000000000000000000000000000000000FC
:1054B00000000000003000000000000000000000BC
:1054C0000008001995214300C000000000000300FF
:1054D000001E1A3C204C0014014AA6523000000065
:1054E000000000C0006001AF0400000000000C30AC
:1054F00000000000000000000000000000000000AC
:10550000000000000000000000000000000010008B
:1055100000000000000000030000089801500CA0EB
:10552000004000F04000000100003C20000022C7C5
:105530000020030000000000000400000010F04004
:105540000000000000C30200000000000000000096
:10555000000000000000000000000000000000004B
:105560000000000001A0000000000000000030006A
:10557000019521430040000380CF04100000181261
:105580003C20000014607A0012500001E00000008E
:1055900040000001EF0480000000000C300000001B
:1055A00000000000000000000000000000000000FB
:1055B00000000000000000000200010077E9500038
:1055C00000000000020000009001500800040000EC
:1055D000F040A00011D003C0008000441D00000A6C
:1055E00000010000000008000400000000000000AE
:1055F0000000C302000000000000000000000000E6
:105600000000000000000000000000000000003862
:1056100000000F28D5C0000000000008000007218E
:105620004300E0000000CF040380001D323C201E38
:1056300000002B6C022238000000000000E0000097
:1056400000000000000000000C300000000000001E
:10565000000000000000000000000000000000004A
:10566000000000000000000000000000000000003A
:1056700000000000089001508000800000F0480009
:10568000000000AC00000003460FC0000000000056
:10569000000000000000340000000000000000C313
:1056A00002000000000000000000000000000000F8
:1056B00000000000000000000000000000000000EA
:1056C0000000000000000000000000A721430000CF
:1056D000E00001EF04000807001840200000002C43
:1056E0005F08000000000000000000000000000053
:1056F00000000000000000000000000000000000AA
:105700000000000000000000000000000000000099
:10571000000000040000000000000000000002047F
:1057200007000000000410000340A5401040000DD9
:105730000014024000C780000001001000000000BB
:105740000010000000000000000000000000000049
:105750000000000000000000000000000000000049
:1057600000000000000000000000400000000000F9
:105770000000000000304081E000000041000620F1
:1057800005A6090400000702800410207000000034
:105790001040000000000001200000000000000098
:1057A00000000000000000000000000000000000F9
:1057B00000000000000000000000000000000000E9
:1057C00000000000000000000000000000009FD268
:1057D00040000000002BFD8340000008B0000000E6
:1057E000000043C0000000030000000000000000B3
:1057F00000000000000000000000000000000000A9
:105800000000000000000000000000000000000098
:105810000000000000000000000000000000000088
:105820000000000071CBFF30000000003DBE3400DE
:105830000001080000000000203C00000000000003
:105840000000000000000000000000000000000058
:105850000000000000000000000000000000000048
:105860000000000000000000000000000000000038
:10587000000000000000000000000088FE149000FE
:1058800001542368C340000010008028200002E477
:10589000000B340002000000000000100000205047
:1058A00001000000000000000000000000000000F7
:1058B00000000000000000000000000000000000E8
:1058C00000000000000000000000000000000000D8
:1058D0004078172E9D010100007EDE2400040800A0
:1058E00057028A10102E205AB342004000000000D8
:1058F0000000000015A502000000000000000000EC
:105900000000000000000000000000000000000097
:105910000000000000000000000000000000000087
:1059200000000000000000008D0039C000080400E5
:10593000E080000000080043C1060101C3430E00DF
:10594000040400000000000110000000000000003E
:105950000000000000000000000000000000000047
:105960000000000000000000000000000000000037
:1059700000400000000000000000000000707801FE
:10598000039C0C00020025A0002004078003BC1823
:1059900040100035D8E012000000000000000000B8
:1059A00000000000000000000000000000000000F7
:1059B00000000000000000000000000000000000E7
:1059C00000000000000000000000000000000000D7
:1059D000000000000B10F4294018001438300500B6
:1059E0002000D00D0169048000001D0EF11200009E
:1059F00000000000000002000000000000000000A5
:105A00000000000000000000000000000000000096
:105A10000000000000000000000000000000000086
:105A2000000000000000000000000080A77368086C
:105A3000C06000548050030000000029525C000642
:105A400002CAFF02700000000000000001400000D8
:105A50000000000000000000000000000000000046
:105A60000000000000000000000000000000000036
:105A70000000000000000000000000000000000026
:105A8000000180F0000000000020F0A54030000080
:105A9000F08028000000043C000007038110000093
:105AA0000000003C6C10010000000000000000003D
:105AB00000000000000000000000000000000000E6
:105AC00000000000000000000000000000000000D6
:105AD0000000E00000000084D18B28C00800C00254
:105AE000F48E542300001956828000000020EE40FE
:105AF00002100081A000000000000294A010240009
:105B00000000000000000000000000000000000095
:105B10000000000000000000000000000000000085
:105B20000000000000000000000000000200000B68
:105B30000C1540080104007800002001100003C18A
:105B4000408000402D0000020001000000000080A5
:105B50000000200A0100000000000000000000001A
:105B60000000000000000000000000000000000035
:105B70000000000000000000000000000000000025
:105B800000000008001801315400E0686005D010E2
:105B900003808000073C184E000072EC0A003800B9
:105BA000000000000000400015A0A0000000000060
:105BB00000000000000000000000000000000000E5
:105BC00000000000000000000000000000000000D5
:105BD00000000000000000000000000D0B5A000053
:105BE00000000067400F0000180007B0000004012B
:105BF000427F90000010200000155100A000035AC1
:105C00002011000000000000000000000000000063
:105C10000000000000000000000000000000000084
:105C20000000000000000000000000000000000074
:105C3000000011E16B3000000146440F000000003D
:105C40000053440200A00002DE080002010005210A
:105C5000550000000014B00000000000000000002B
:105C60000000000000000000000000000000000034
:105C70000000000000000000000002000000000022
:105C8000000000000000010000009800080400244B
:105C90000020E200128500F0C388004A002406F0CC
:105CA0002001000D0008000000001C36D08100001B
:105CB00000000000000000000000000000000000E4
:105CC00000000000000000000000000000000000D4
:105CD0000030000000000000000000000010000084
:105CE000A1B8200840000007AE20211027893FB846
:105CF00080A4400C7BCC0000103800018002000022
:105D000000006CCE20300000000000000000000009
:105D10000000000000000000000000000000000083
:105D20000000000000000000100000000000000063
:105D30000000000000000834000200000000DDAB9D
:105D4000000002010DC000000000028D00000000F4
:105D5000000008000000203C034053000000000049
:105D60000000000000000000000000000000000033
