:1000000000201100000000000000000000000000BF
:10001000000000000000000000E0060000000000FA
:1000200030F109000000000040F10900000000006C
:10003000A405000000000000D4050000000000003E
:1000400018BA0A000000000028100000000000009C
:10005000940F000000000000A0100000000000004D
:1000600020E00D0000000000200011000000000052
:1000700010F109000000000024F109000000000058
:1000800038F1090000000000B0040000000000008A
:10009000780500000000000020C00A0000000000F9
:1000A00020C00A0000000000440F00000000000013
:1000B00010E109000000000020C00A00000000005C
:1000C00020E00D000000000000BA05000000000064
:1000D000BC0B0000000000000ADA0600000000006F
:1000E00020C00A000000000020C00A00000000003C
:1000F000A00000000000000028F609000000000039
:100100002CF6090000000000E4BB05000000000020
:1001100030F609000000000048F609000000000069
:10012000A0E9010000000000F8F20100000000005A
:1001300010C50300000000004CD3000000000000C8
:1001400030E007000000000030E006000000000082
:1001500098B80A000000000030E00800000000002D
:10016000ACF7090000000000584D0100000000003D
:1001700044C9030000000000589C02000000000079
:10018000C8F709000000000018F80900000000008E
:1001900048BB0A00000000008C14050000000000AD
:1001A0004C180500000000006C1B0500000000005A
:1001B000101F050000000000FC22050000000000E8
:1001C000B0AC05000000000094070400000000002F
:1001D000FC02050000000000EC0605000000000025
:1001E0000408050000000000A40A0500000000004B
:1001F000C8CE040000000000B8CD040000000000DC
:08020000549F050000000000FE
:00000001FF
