:100000005000000000000000030400000000000099
:1000100010E109000000000080FD09000000000060
:10002000030400000000000068F409000000000064
:1000300088FD09000000000003040000000000002B
:1000400048F409000000000090FD090000000000D5
:10005000030400000000000038F409000000000064
:1000600098FD0900000000000304000000000000EB
:1000700038F4090000000000A0FD090000000000A5
:10008000030400000000000058F409000000000014
:10009000A8FD0900000000000304000000000000AB
:1000A00088F4090000000000B0FD09000000000015
:1000B000030400000000000038F409000000000004
:1000C000B8FD09000000000003040000000000006B
:1000D00038F4090000000000C0FD09000000000025
:1000E0000304000000000000F8F409000000000014
:1000F000C8FD09000000000003040000000000002B
:10010000C8F4090000000000D0FD09000000000054
:10011000030400000000000058F509000000000082
:10012000D8FD0900000000000304000000000000EA
:1001300038F4090000000000E0FD090000000000A4
:10014000030400000000000008F5090000000000A2
:10015000E8FD0900000000000304000000000000AA
:1001600038F4090000000000F0FD09000000000064
:100170000304000000000000E8F409000000000093
:10018000F8FD09000000000003040000000000006A
:1001900068F509000000000000FE090000000000F2
:1001A000030400000000000038F409000000000013
:1001B00008FE090000000000030400000000000029
:1001C00098F409000000000010FE09000000000083
:1001D000030400000000000038F4090000000000E3
:1001E00018FE0900000000000304000000000000E9
:1001F00038F409000000000020FE090000000000A3
:10020000030400000000000038F4090000000000B2
:1002100028FE0900000000000304000000000000A8
:1002200038F409000000000030FE09000000000062
:10023000030400000000000038F409000000000082
:1002400038FE090000000000030400000000000068
:1002500038F409000000000040FE09000000000022
:10026000030400000000000038F409000000000052
:1002700048FE090000000000030400000000000028
:1002800038F409000000000050FE090000000000E2
:10029000030400000000000038F409000000000022
:1002A00058FE0900000000000304000000000000E8
:1002B00038F409000000000060FE090000000000A2
:1002C000030400000000000038F4090000000000F2
:1002D00068FE0900000000000304000000000000A8
:1002E00038F409000000000070FE09000000000062
:1002F000030400000000000038F4090000000000C2
:1003000078FE090000000000030400000000000067
:1003100038F409000000000080FE09000000000021
:10032000030400000000000078F409000000000051
:1003300088FE090000000000030400000000000027
:1003400038F409000000000090FE090000000000E1
:100350000304000000000000B8F4090000000000E1
:1003600098FE0900000000000304000000000000E7
:1003700038F4090000000000A0FE090000000000A1
:10038000030400000000000038F409000000000031
:10039000A8FE0900000000000304000000000000A7
:1003A000A8F4090000000000B0FE090000000000F1
:1003B000030400000000000038F409000000000001
:1003C000B8FE090000000000030400000000000067
:1003D00038F4090000000000C0FE09000000000021
:1003E0000304000000000000D8F409000000000031
:1003F000C8FE090000000000030400000000000027
:1004000038F5090000000000D0FE090000000000DF
:10041000030400000000000018F5090000000000BF
:10042000D8FE0900000000000304000000000000E6
:1004300028F5090000000000E0FE090000000000AF
:10044000030400000000000068F50900000000003F
:10045000E8FE0900000000000304000000000000A6
:1004600048F509000000000038FF09000000000006
:100470000304000000000000402100000000000014
:10048000D0FF09000000000003040000000000008D
:100490005ABC050000000000D8FF09000000000061
:1004A000030400000000000060BC05000000000024
:1004B000E0FF09000000000003040000000000004D
:1004C00066BC050000000000E8FF09000000000015
:1004D00003040000000000006CBC050000000000E8
:1004E000F0FF09000000000003040000000000000D
:1004F00072BC050000000000F8FF090000000000C9
:10050000030400000000000078BC050000000000AB
:1005100000000A00000000000304000000000000CA
:100520007EBC05000000000008000A00000000007A
:10053000030400000000000028F70900000000008C
:1005400010000A000000000003040000000000008A
:1005500020F709000000000018000A000000000059
:10056000030400000000000050F709000000000034
:1005700020000A000000000003040000000000004A
:1005800044BE05000000000048000A000000000012
:100590000304000000000000F0AB0A0000000000AF
:1005A00068000A00000000000304000000000000D2
:1005B0001C7F06000000000088000A000000000008
:1005C0000304000000000000609E01000000000025
:1005D00090000A000000000003040000000000007A
:1005E000489F010000000000E0000A000000000039
:1005F0000304000000000000609E010000000000F5
:10060000E8000A00000000000304000000000000F1
:10061000C89F01000000000038010A00000000002F
:100620000304000000000000609E010000000000C4
:1006300040010A0000000000030400000000000068
:1006400068A001000000000090010A000000000006
:100650000304000000000000609E01000000000094
:1006600098010A00000000000304000000000000E0
:10067000CCA0010000000000E8010A00000000001A
:100680000304000000000000609E01000000000064
:10069000F0010A0000000000030400000000000058
:1006A00034A101000000000040020A000000000028
:1006B0000304000000000000609E01000000000034
:1006C00048020A00000000000304000000000000CF
:1006D00048A201000000000098020A00000000008B
:1006E0000304000000000000609E01000000000004
:1006F000A0020A0000000000030400000000000047
:10070000B0A2010000000000F0020A00000000009A
:100710000304000000000000609E010000000000D3
:10072000F8020A00000000000304000000000000BE
:10073000489F01000000000048030A00000000007C
:100740000304000000000000609E010000000000A3
:1007500050030A0000000000030400000000000035
:10076000C89F010000000000A0030A000000000074
:100770000304000000000000609E01000000000073
:10078000A8030A00000000000304000000000000AD
:1007900068A0010000000000F8030A00000000004B
:1007A0000304000000000000609E01000000000043
:1007B00000040A0000000000030400000000000024
:1007C000CCA001000000000050040A00000000005E
:1007D0000304000000000000609E01000000000013
:1007E00058040A000000000003040000000000009C
:1007F00034A1010000000000A8040A00000000006D
:100800000304000000000000609E010000000000E2
:10081000B0040A0000000000030400000000000013
:1008200048A201000000000000050A0000000000CE
:100830000304000000000000609E010000000000B2
:1008400008050A000000000003040000000000008A
:10085000B0A201000000000058050A0000000000DE
:100860000304000000000000609E01000000000082
:1008700060050A0000000000030400000000000002
:10088000489F010000000000B0050A0000000000C1
:100890000304000000000000609E01000000000052
:1008A000B8050A000000000003040000000000007A
:1008B000C89F01000000000008060A0000000000B8
:1008C0000304000000000000609E01000000000022
:1008D00010060A00000000000304000000000000F1
:1008E00068A001000000000060060A00000000008F
:1008F0000304000000000000609E010000000000F2
:1009000068060A0000000000030400000000000068
:10091000CCA0010000000000B8060A0000000000A2
:100920000304000000000000609E010000000000C1
:10093000C0060A00000000000304000000000000E0
:1009400034A101000000000010070A0000000000B0
:100950000304000000000000609E01000000000091
:1009600018070A0000000000030400000000000057
:1009700048A201000000000068070A000000000013
:100980000304000000000000609E01000000000061
:1009900070070A00000000000304000000000000CF
:1009A000B0A2010000000000A8070A00000000003B
:1009B0000304000000000000B580060000000000F5
:1009C000B0070A000000000003040000000000005F
:1009D000BB80060000000000C0070A000000000005
:1009E000030400000000000084E90500000000008E
:1009F000D0070A000000000003040000000000000F
:100A0000C580060000000000D8070A0000000000B2
:100A10000304000000000000CC800600000000007D
:100A2000E8070A00000000000304000000000000C6
:100A300085E9050000000000F8070A00000000003A
:100A40000304000000000000E48006000000000035
:100A500000080A000000000003040000000000007D
:100A6000E98006000000000010080A0000000000F5
:100A700003040000000000008BE9050000000000F6
:100A800020080A000000000003040000000000002D
:100A9000068106000000000028080A00000000008F
:100AA00003040000000000000A81060000000000AE
:100AB00038080A00000000000304000000000000E5
:100AC00092E905000000000048080A00000000004C
:100AD00003040000000000000E810600000000007A
:100AE00050080A000000000003040000000000009D
:100AF000128106000000000060080A0000000000EB
:100B000003040000000000009AE905000000000056
:100B100070080A000000000003040000000000004C
:100B2000168106000000000078080A00000000009E
:100B300003040000000000001A810600000000000D
:100B400088080A0000000000030400000000000004
:100B5000A2E905000000000098080A00000000005B
:100B600003040000000000001E81060000000000D9
:100B7000A0080A00000000000304000000000000BC
:100B80001E81060000000000B0080A0000000000FE
:100B90000304000000000000AAE9050000000000B6
:100BA000C0080A000000000003040000000000006C
:100BB0002C81060000000000C8080A0000000000A8
:100BC0000304000000000000348106000000000063
:100BD000D8080A0000000000030400000000000024
:100BE000B3E9050000000000E8080A00000000006A
:100BF000030400000000000049810600000000001E
:100C0000F0080A00000000000304000000000000DB
:100C1000518106000000000000090A0000000000E9
:100C20000304000000000000BCE905000000000013
:100C300010090A000000000003040000000000008A
:100C4000668106000000000018090A00000000008C
:100C50000304000000000000728106000000000094
:100C600028090A0000000000030400000000000042
:100C7000C5E905000000000038090A000000000076
:100C8000030400000000000087810600000000004F
:100C900040090A00000000000304000000000000FA
:100CA000938106000000000050090A0000000000C7
:100CB0000304000000000000CEE905000000000071
:100CC00060090A00000000000304000000000000AA
:100CD000A88106000000000068090A00000000006A
:100CE0000304000000000000AD81060000000000C9
:100CF00078090A0000000000030400000000000062
:100D0000D7E905000000000088090A000000000083
:100D10000304000000000000C8810600000000007D
:100D200090090A0000000000030400000000000019
:100D3000C881060000000000A0090A0000000000B1
:100D40000304000000000000D8E9050000000000D6
:100D5000B0090A00000000000304000000000000C9
:100D6000CD81060000000000B8090A000000000064
:100D70000304000000000000D08106000000000015
:100D8000C8090A0000000000030400000000000081
:100D9000DAE9050000000000D8090A0000000000A0
:100DA0000304000000000000DB81060000000000DA
:100DB000E0090A0000000000030400000000000039
:100DC000DD81060000000000F0090A0000000000BC
:100DD0000304000000000000DDE905000000000041
:100DE000000A0A00000000000304000000000000E8
:100DF000E981060000000000080A0A000000000067
:100E00000304000000000000EB8106000000000069
:100E1000180A0A000000000003040000000000009F
:100E2000E0E9050000000000280A0A0000000000B8
:100E30000304000000000000F8810600000000002C
:100E4000300A0A0000000000030400000000000057
:100E5000FB81060000000000400A0A0000000000BC
:100E60000304000000000000E3E9050000000000AA
:100E7000500A0A0000000000030400000000000007
:100E80000F82060000000000580A0A00000000005F
:100E900003040000000000001182060000000000B2
:100EA000680A0A00000000000304000000000000BF
:100EB000E6E9050000000000780A0A0000000000D2
:100EC0000304000000000000228206000000000071
:100ED000800A0A0000000000030400000000000077
:100EE0002582060000000000900A0A0000000000B1
:100EF0000304000000000000E9E905000000000014
:100F0000A00A0A0000000000030400000000000026
:100F10003C82060000000000A80A0A000000000051
:100F200003040000000000004082060000000000F2
:100F3000B80A0A00000000000304000000000000DE
:100F4000ECE9050000000000C80A0A0000000000EB
:100F500003040000000000004482060000000000BE
:100F6000D00A0A0000000000030400000000000096
:100F70004482060000000000E00A0A0000000000B1
:100F80000304000000000000F0E90500000000007C
:100F9000F00A0A0000000000030400000000000046
:100FA0004A82060000000000F80A0A000000000063
:100FB00003040000000000004A8206000000000058
:100FC000080B0A00000000000304000000000000FD
:100FD000F8E9050000000000180B0A0000000000FE
:100FE000030400000000000055820600000000001D
:100FF000200B0A00000000000304000000000000B5
:101000005582060000000000300B0A0000000000BE
:10101000030400000000000001EA050000000000D9
:10102000400B0A0000000000030400000000000064
:101030006682060000000000480B0A000000000065
:1010400003040000000000006682060000000000AB
:10105000580B0A000000000003040000000000001C
:101060000AEA050000000000680B0A00000000000A
:1010700003040000000000007A8206000000000067
:10108000700B0A00000000000304000000000000D4
:101090007A82060000000000800B0A0000000000B9
:1010A000030400000000000013EA05000000000037
:1010B000900B0A0000000000030400000000000084
:1010C0009782060000000000980B0A000000000054
:1010D00003040000000000009782060000000000EA
:1010E000A80B0A000000000003040000000000003C
:1010F0001CEA050000000000B80B0A000000000018
:101100000304000000000000A882060000000000A8
:10111000C00B0A00000000000304000000000000F3
:10112000A882060000000000D00B0A0000000000AA
:10113000030400000000000025EA05000000000094
:10114000E00B0A00000000000304000000000000A3
:10115000BC82060000000000E80B0A00000000004E
:101160000304000000000000BC8206000000000034
:10117000F80B0A000000000003040000000000005B
:101180002EEA050000000000080C0A000000000024
:101190000304000000000000C282060000000000FE
:1011A000100C0A0000000000030400000000000012
:1011B000C282060000000000200C0A0000000000AF
:1011C000030400000000000036EA050000000000F3
:1011D000300C0A00000000000304000000000000C2
:1011E000D182060000000000380C0A000000000058
:1011F0000304000000000000D98206000000000087
:10120000480C0A0000000000030400000000000079
:101210003FEA050000000000580C0A000000000032
:101220000304000000000000E1820600000000004E
:10123000600C0A0000000000030400000000000031
:10124000E982060000000000700C0A0000000000A7
:10125000030400000000000044EA05000000000054
:10126000800C0A00000000000304000000000000E1
:10127000F182060000000000880C0A000000000057
:101280000304000000000000F982060000000000D6
:10129000980C0A0000000000030400000000000099
:1012A00049EA050000000000A80C0A000000000048
:1012B000030400000000000001830600000000009D
:1012C000B00C0A0000000000030400000000000051
:1012D0000983060000000000C00C0A0000000000A6
:1012E00003040000000000004EEA050000000000BA
:1012F000D00C0A0000000000030400000000000001
:101300001183060000000000D80C0A000000000055
:1013100003040000000000001A8306000000000023
:10132000F80C0A00000000000304000000000000A8
:101330002383060000000000000D0A0000000000EA
:1013400003040000000000002C83060000000000E1
:10135000100D0A000000000003040000000000005F
:1013600053EA050000000000200D0A000000000004
:1013700003040000000000003583060000000000A8
:10138000280D0A0000000000030400000000000017
:101390003E83060000000000480D0A000000000027
:1013A0000304000000000000478306000000000066
:1013B000500D0A00000000000304000000000000BF
:1013C0005083060000000000700D0A0000000000BD
:1013D0000304000000000000598306000000000024
:1013E000780D0A0000000000030400000000000067
:1013F0006183060000000000880D0A000000000064
:1014000003040000000000005EEA05000000000088
:10141000980D0A0000000000030400000000000016
:101420006983060000000000A00D0A000000000013
:1014300003040000000000007183060000000000AB
:10144000C00D0A00000000000304000000000000BE
:101450007983060000000000C80D0A0000000000AB
:10146000030400000000000081830600000000006B
:10147000E80D0A0000000000030400000000000066
:101480008983060000000000F00D0A000000000043
:10149000030400000000000091830600000000002B
:1014A000100E0A000000000003040000000000000D
:1014B0009983060000000000180E0A0000000000DA
:1014C00003040000000000009D83060000000000EF
:1014D000280E0A00000000000304000000000000C5
:1014E00066EA050000000000380E0A000000000057
:1014F0000304000000000000A183060000000000BB
:10150000400E0A000000000003040000000000007C
:10151000A983060000000000500E0A000000000031
:1015200003040000000000006BEA0500000000005A
:10153000600E0A000000000003040000000000002C
:10154000BE83060000000000680E0A0000000000D4
:101550000304000000000000CA8306000000000031
:10156000880E0A00000000000304000000000000D4
:10157000D683060000000000900E0A000000000064
:101580000304000000000000E383060000000000E8
:10159000A00E0A000000000003040000000000008C
:1015A00070EA050000000000B00E0A000000000014
:1015B0000304000000000000F083060000000000AB
:1015C000B80E0A0000000000030400000000000044
:1015D000F883060000000000C80E0A0000000000AA
:1015E000030400000000000078EA0500000000008D
:1015F000D80E0A00000000000304000000000000F4
:101600000084060000000000E00E0A000000000058
:101610000304000000000000098406000000000030
:10162000000F0A000000000003040000000000009A
:101630001284060000000000080F0A0000000000ED
:1016400003040000000000001284060000000000F7
:10165000180F0A0000000000030400000000000052
:101660007DEA050000000000280F0A0000000000CD
:1016700003040000000000001884060000000000C1
:10168000300F0A000000000003040000000000000A
:101690001884060000000000400F0A00000000004F
:1016A000030400000000000085EA050000000000BF
:1016B000500F0A00000000000304000000000000BA
:1016C0002584060000000000580F0A0000000000FA
:1016D0000304000000000000258406000000000054
:1016E000680F0A0000000000030400000000000072
:1016F0008EEA050000000000780F0A0000000000DC
:101700000304000000000000368406000000000012
:10171000800F0A0000000000030400000000000029
:101720003684060000000000900F0A000000000050
:10173000030400000000000097EA0500000000001C
:10174000A00F0A00000000000304000000000000D9
:101750004284060000000000A80F0A0000000000FC
:1017600003040000000000004284060000000000A6
:10177000B80F0A0000000000030400000000000091
:10178000A0EA050000000000C80F0A0000000000E9
:101790000304000000000000508406000000000068
:1017A000D00F0A0000000000030400000000000049
:1017B0005084060000000000E00F0A000000000056
:1017C0000304000000000000A9EA0500000000007A
:1017D000F00F0A00000000000304000000000000F9
:1017E0005C84060000000000F80F0A000000000002
:1017F00003040000000000005C84060000000000FC
:1018000008100A00000000000304000000000000AF
:10181000B2EA05000000000018100A0000000000F5
:1018200003040000000000006D84060000000000BA
:1018300020100A0000000000030400000000000067
:101840006D8406000000000030100A000000000057
:101850000304000000000000BBEA050000000000D7
:1018600040100A0000000000030400000000000017
:101870007F8406000000000048100A0000000000FD
:1018800003040000000000007F8406000000000048
:1018900058100A00000000000304000000000000CF
:1018A000C4EA05000000000068100A000000000003
:1018B0000304000000000000938406000000000004
:1018C00070100A0000000000030400000000000087
:1018D000938406000000000080100A000000000051
:1018E0000304000000000000CDEA05000000000035
:1018F00090100A0000000000030400000000000037
:10190000B18406000000000098100A0000000000EA
:101910000304000000000000BA840600000000007C
:10192000A8100A00000000000304000000000000EE
:10193000D6EA050000000000B8100A000000000010
:101940000304000000000000D8840600000000002E
:10195000C0100A00000000000304000000000000A6
:10196000E284060000000000D0100A000000000021
:101970000304000000000000DDEA05000000000094
:10198000E0100A0000000000030400000000000056
:101990000185060000000000E8100A0000000000B9
:1019A00003040000000000000C8506000000000099
:1019B000F8100A000000000003040000000000000E
:1019C000E5EA05000000000008110A000000000020
:1019D00003040000000000001F8506000000000056
:1019E00010110A00000000000304000000000000C5
:1019F0002B8506000000000030110A0000000000E6
:101A0000030400000000000037850600000000000D
:101A100038110A000000000003040000000000006C
:101A2000448506000000000058110A000000000074
:101A300003040000000000005185060000000000C3
:101A400060110A0000000000030400000000000014
:101A50005D8506000000000080110A000000000003
:101A6000030400000000000069850600000000007B
:101A700088110A00000000000304000000000000BC
:101A80007685060000000000A8110A000000000092
:101A90000304000000000000458006000000000074
:101AA000B0110A0000000000030400000000000064
:101AB0008385060000000000C0110A00000000003D
:101AC0000304000000000000EDEA05000000000033
:101AD000D0110A0000000000030400000000000014
:101AE0005580060000000000D8110A000000000028
:101AF00003040000000000008885060000000000CC
:101B0000E8110A00000000000304000000000000CB
:101B1000F2EA050000000000F8110A0000000000D1
:101B200003040000000000009E8506000000000085
:101B300000120A0000000000030400000000000082
:101B4000A68506000000000010120A000000000038
:101B50000304000000000000FBEA05000000000094
:101B600020120A0000000000030400000000000032
:101B7000B18506000000000028120A0000000000E5
:101B80000304000000000000B9850600000000000A
:101B900038120A00000000000304000000000000EA
:101BA00000EB05000000000048120A0000000000E1
:101BB0000304000000000000CB85060000000000C8
:101BC00050120A00000000000304000000000000A2
:101BD000DB8506000000000060120A000000000023
:101BE000030400000000000005EB050000000000F9
:101BF00070120A0000000000030400000000000052
:101C0000F18506000000000078120A0000000000C4
:101C10000304000000000000F18506000000000041
:101C200088120A0000000000030400000000000009
:101C30000EEB05000000000098120A0000000000F2
:101C40000304000000000000F8850600000000000A
:101C5000A0120A00000000000304000000000000C1
:101C60000586060000000000B0120A000000000017
:101C7000030400000000000017EB05000000000056
:101C8000C0120A0000000000030400000000000071
:101C90001586060000000000C8120A0000000000BF
:101CA0000304000000000000208606000000000081
:101CB000D8120A0000000000030400000000000029
:101CC0001CEB050000000000E8120A000000000004
:101CD000030400000000000033860600000000003E
:101CE000F0120A00000000000304000000000000E1
:101CF0003D8606000000000000130A0000000000FE
:101D0000030400000000000025EB050000000000B7
:101D100010130A000000000003040000000000008F
:101D20004F8606000000000018130A0000000000A3
:101D300003040000000000005F86060000000000B1
:101D400028130A0000000000030400000000000047
:101D50002EEB05000000000038130A000000000010
:101D60000304000000000000778606000000000069
:101D700040130A00000000000304000000000000FF
:101D8000898606000000000050130A0000000000D1
:101D9000030400000000000037EB05000000000015
:101DA00060130A00000000000304000000000000AF
:101DB000A48606000000000068130A00000000006E
:101DC0000304000000000000B186060000000000CF
:101DD00078130A0000000000030400000000000067
:101DE00040EB05000000000088130A00000000001E
:101DF0000304000000000000C6860600000000008A
:101E000090130A000000000003040000000000001E
:101E1000D486060000000000A0130A0000000000A5
:101E2000030400000000000049EB05000000000072
:101E3000B0130A00000000000304000000000000CE
:101E4000EB86060000000000B8130A000000000046
:101E50000304000000000000FB86060000000000F4
:101E6000C8130A0000000000030400000000000086
:101E700052EB050000000000D8130A00000000002B
:101E800003040000000000001487060000000000AA
:101E9000E0130A000000000003040000000000003E
:101EA0001E87060000000000F0130A00000000007A
:101EB00003040000000000005BEB050000000000D0
:101EC00000140A00000000000304000000000000ED
:101ED0002F8706000000000008140A000000000020
:101EE00003040000000000003E8706000000000020
:101EF00018140A00000000000304000000000000A5
:101F000064EB05000000000028140A000000000037
:101F100003040000000000005C87060000000000D1
:101F200030140A000000000003040000000000005C
:101F3000658706000000000050140A000000000041
:101F400003040000000000006E870600000000008F
:101F500058140A0000000000030400000000000004
:101F60006E8706000000000068140A0000000000F0
:101F700003040000000000006DEB050000000000FD
:101F800078140A00000000000304000000000000B4
:101F9000748706000000000080140A0000000000A2
:101FA0000304000000000000898706000000000014
:101FB00090140A000000000003040000000000006C
:101FC0006FEB050000000000A0140A0000000000F4
:101FD0000304000000000000A787060000000000C6
:101FE000A8140A0000000000030400000000000024
:101FF000B087060000000000B8140A0000000000CE
:10200000030400000000000072EB05000000000067
:10201000C8140A00000000000304000000000000D3
:10202000C187060000000000D0140A000000000074
:102030000304000000000000D78706000000000035
:10204000E0140A000000000003040000000000008B
:1020500075EB050000000000F0140A00000000000D
:102060000304000000000000F787060000000000E5
:10207000F8140A0000000000030400000000000043
:10208000068806000000000008150A000000000095
:10209000030400000000000078EB050000000000D1
:1020A00018150A00000000000304000000000000F2
:1020B000268806000000000020150A00000000002D
:1020C0000304000000000000348806000000000047
:1020D00030150A00000000000304000000000000AA
:1020E0007BEB05000000000040150A000000000026
:1020F00003040000000000005388060000000000F8
:1021000048150A0000000000030400000000000061
:10211000648806000000000058150A000000000056
:1021200003040000000000007EEB0500000000003A
:1021300068150A0000000000030400000000000011
:102140007D8806000000000070150A0000000000F5
:102150000304000000000000878806000000000063
:1021600080150A00000000000304000000000000C9
:1021700081EB05000000000090150A00000000003F
:102180000304000000000000998806000000000021
:1021900098150A0000000000030400000000000081
:1021A000AD88060000000000A8150A00000000002D
:1021B000030400000000000084EB050000000000A4
:1021C000B8150A0000000000030400000000000031
:1021D000C988060000000000C0150A0000000000C9
:1021E0000304000000000000E0880600000000007A
:1021F000D0150A00000000000304000000000000E9
:1022000087EB050000000000E0150A000000000058
:102210000304000000000000008906000000000028
:10222000E8150A00000000000304000000000000A0
:102230000789060000000000F8150A0000000000F1
:1022400003040000000000008AEB0500000000000D
:1022500008160A000000000003040000000000004F
:102260000E8906000000000010160A0000000000A1
:1022700003040000000000001589060000000000B3
:1022800030160A00000000000304000000000000F7
:102290001C8906000000000038160A00000000003B
:1022A0000304000000000000238906000000000075
:1022B00058160A000000000003040000000000009F
:1022C0002A8906000000000060160A0000000000D5
:1022D0000304000000000000318906000000000037
:1022E00080160A0000000000030400000000000047
:1022F000388906000000000088160A00000000006F
:1023000003040000000000003D89060000000000FA
:1023100098160A00000000000304000000000000FE
:1023200093EB050000000000A8160A000000000062
:1023300003040000000000004289060000000000C5
:10234000B0160A00000000000304000000000000B6
:102350004B89060000000000C0160A0000000000C3
:10236000030400000000000097EB050000000000DF
:10237000D0160A0000000000030400000000000066
:102380005789060000000000D8160A00000000006F
:1023900003040000000000005E8906000000000049
:1023A000F8160A000000000003040000000000000E
:1023B000658906000000000000170A000000000008
:1023C0000304000000000000708906000000000007
:1023D00020170A00000000000304000000000000B5
:1023E0007B8906000000000028170A00000000009A
:1023F00003040000000000007E89060000000000C9
:1024000038170A000000000003040000000000006C
:102410009BEB05000000000048170A0000000000C8
:10242000030400000000000088890600000000008E
:1024300050170A0000000000030400000000000024
:102440008B8906000000000060170A0000000000F1
:1024500003040000000000009EEB050000000000E7
:1024600070170A00000000000304000000000000D4
:10247000938906000000000078170A0000000000A1
:102480000304000000000000938906000000000023
:1024900088170A000000000003040000000000008C
:1024A000A1EB050000000000C0170A0000000000BA
:1024B00003040000000000009C89060000000000EA
:1024C000C8170A000000000003040000000000001C
:1024D000B289060000000000D8170A0000000000C2
:1024E0000304000000000000A4EB05000000000051
:1024F000E8170A00000000000304000000000000CC
:10250000D189060000000000F0170A00000000005A
:102510000304000000000000DC8906000000000049
:1025200000180A0000000000030400000000000082
:10253000A7EB05000000000010180A0000000000D2
:102540000304000000000000E7890600000000000E
:1025500018180A000000000003040000000000003A
:10256000E78906000000000028180A0000000000AB
:102570000304000000000000ACEB050000000000B8
:1025800038180A00000000000304000000000000EA
:10259000F48906000000000040180A000000000056
:1025A0000304000000000000F489060000000000A1
:1025B00050180A00000000000304000000000000A2
:1025C000AFEB05000000000060180A0000000000EA
:1025D0000304000000000000FA890600000000006B
:1025E00068180A000000000003040000000000005A
:1025F000FA8906000000000078180A0000000000B8
:102600000304000000000000B2EB05000000000021
:1026100088180A0000000000030400000000000009
:10262000068A06000000000090180A000000000062
:102630000304000000000000108A060000000000F3
:10264000A0180A00000000000304000000000000C1
:10265000B5EB050000000000B0180A000000000003
:1026600003040000000000001A8A060000000000B9
:10267000B8180A0000000000030400000000000079
:10268000248A060000000000D8180A00000000009C
:1026900003040000000000002E8A06000000000075
:1026A000E0180A0000000000030400000000000021
:1026B000388A06000000000000190A00000000002F
:1026C0000304000000000000428A06000000000031
:1026D00008190A00000000000304000000000000C8
:1026E0004C8A06000000000028190A0000000000C3
:1026F0000304000000000000568A060000000000ED
:1027000030190A000000000003040000000000006F
:10271000568A06000000000040190A000000000070
:102720000304000000000000BEEB050000000000F4
:1027300050190A000000000003040000000000001F
:102740006C8A06000000000058190A000000000012
:102750000304000000000000758A0600000000006D
:1027600068190A00000000000304000000000000D7
:10277000C7EB05000000000078190A000000000007
:102780000304000000000000818A06000000000031
:1027900080190A000000000003040000000000008F
:1027A0008A8A060000000000A0190A00000000004C
:1027B00003040000000000004A8006000000000042
:1027C000A8190A0000000000030400000000000037
:1027D000938A060000000000B8190A0000000000FB
:1027E0000304000000000000CEEB05000000000024
:1027F000C8190A00000000000304000000000000E7
:102800009F8A060000000000D0190A0000000000A6
:102810000304000000000000A38A0600000000007E
:10282000E0190A000000000003040000000000009E
:10283000D3EB050000000000F0190A0000000000C2
:102840000304000000000000B18A06000000000040
:10285000F8190A0000000000030400000000000056
:10286000BB8A060000000000081A0A0000000000F1
:102870000304000000000000DAEB05000000000087
:10288000401A0A00000000000304000000000000DD
:10289000C58A060000000000481A0A000000000077
:1028A0000304000000000000D38A060000000000BE
:1028B000581A0A0000000000030400000000000095
:1028C000DFEB050000000000681A0A0000000000AD
:1028D0000304000000000000E48A0600000000007D
:1028E000701A0A000000000003040000000000004D
:1028F000EC8A060000000000801A0A0000000000B8
:102900000304000000000000E5EB050000000000EB
:10291000901A0A00000000000304000000000000FC
:10292000F48A060000000000981A0A000000000067
:102930000304000000000000FC8A06000000000004
:10294000B81A0A00000000000304000000000000A4
:10295000048B060000000000C01A0A0000000000FE
:1029600003040000000000000C8B060000000000C3
:10297000E01A0A000000000003040000000000004C
:10298000148B060000000000E81A0A000000000096
:1029900003040000000000001C8B06000000000083
:1029A000081B0A00000000000304000000000000F3
:1029B000248B060000000000101B0A00000000002D
:1029C0000304000000000000288B06000000000047
:1029D000201B0A00000000000304000000000000AB
:1029E000EDEB050000000000301B0A0000000000B5
:1029F00003040000000000003F8B06000000000000
:102A0000381B0A0000000000030400000000000062
:102A1000448B060000000000481B0A000000000074
:102A20000304000000000000F3EB050000000000BC
:102A3000581B0A0000000000030400000000000012
:102A4000558B060000000000601B0A00000000001B
:102A50000304000000000000668B06000000000078
:102A6000701B0A00000000000304000000000000CA
:102A7000FEEB050000000000801B0A0000000000C3
:102A80000304000000000000808B0600000000002E
:102A9000881B0A0000000000030400000000000082
:102AA000808B060000000000981B0A000000000058
:102AB000030400000000000001EC0500000000001D
:102AC000A81B0A0000000000030400000000000032
:102AD000858B060000000000B01B0A00000000000B
:102AE0000304000000000000858B060000000000C9
:102AF000C01B0A00000000000304000000000000EA
:102B000007EC050000000000D01B0A0000000000D8
:102B100003040000000000008B8B06000000000092
:102B2000D81B0A00000000000304000000000000A1
:102B3000968B060000000000E81B0A000000000061
:102B400003040000000000000EEC0500000000007F
:102B5000F81B0A0000000000030400000000000051
:102B6000B48B060000000000001C0A0000000000FA
:102B70000304000000000000BF8B060000000000FE
:102B8000101C0A0000000000030400000000000008
:102B900016EC050000000000201C0A0000000000E8
:102BA0000304000000000000DD8B060000000000B0
:102BB000281C0A00000000000304000000000000C0
:102BC000E98B060000000000381C0A00000000002D
:102BD00003040000000000001EEC050000000000DF
:102BE000481C0A0000000000030400000000000070
:102BF000F68B060000000000501C0A0000000000D8
:102C00000304000000000000068C06000000000025
:102C1000601C0A0000000000030400000000000027
:102C200026EC050000000000701C0A0000000000F7
:102C30000304000000000000188C060000000000E3
:102C4000781C0A00000000000304000000000000DF
:102C5000258C060000000000881C0A00000000000F
:102C600003040000000000002EEC0500000000003E
:102C7000981C0A000000000003040000000000008F
:102C8000338C060000000000A01C0A0000000000B9
:102C900003040000000000003D8C0600000000005E
:102CA000B01C0A0000000000030400000000000047
:102CB00036EC050000000000C01C0A000000000007
:102CC00003040000000000005F8C0600000000000C
:102CD000C81C0A00000000000304000000000000FF
:102CE000698C060000000000D81C0A0000000000EB
:102CF000030400000000000040EC0500000000009C
:102D0000E81C0A00000000000304000000000000AE
:102D10008B8C060000000000F01C0A000000000080
:102D20000304000000000000958C06000000000075
:102D3000001D0A0000000000030400000000000065
:102D40004AEC050000000000101D0A000000000011
:102D50000304000000000000B28C06000000000028
:102D6000181D0A000000000003040000000000001D
:102D7000B88C060000000000281D0A0000000000BA
:102D8000030400000000000054EC050000000000F7
:102D9000381D0A00000000000304000000000000CD
:102DA000D68C060000000000401D0A000000000054
:102DB0000304000000000000DC8C0600000000009E
:102DC000501D0A0000000000030400000000000085
:102DD0005EEC050000000000601D0A00000000001D
:102DE0000304000000000000FC8C0600000000004E
:102DF000681D0A000000000003040000000000003D
:102E0000028D060000000000781D0A00000000008E
:102E1000030400000000000068EC05000000000052
:102E2000881D0A00000000000304000000000000EC
:102E30001F8D060000000000901D0A000000000029
:102E40000304000000000000288D060000000000C0
:102E5000A01D0A00000000000304000000000000A4
:102E600071EC050000000000B01D0A000000000029
:102E70000304000000000000438D06000000000075
:102E8000B81D0A000000000003040000000000005C
:102E90004D8D060000000000C81D0A000000000063
:102EA000030400000000000074EC050000000000B6
:102EB000D81D0A000000000003040000000000000C
:102EC000648D060000000000E01D0A000000000004
:102ED0000304000000000000738D060000000000E5
:102EE000F01D0A00000000000304000000000000C4
:102EF00077EC050000000000001E0A000000000042
:102F00000304000000000000838D060000000000A4
:102F1000081E0A000000000003040000000000007A
:102F20008B8D060000000000181E0A000000000043
:102F300003040000000000007AEC0500000000001F
:102F4000281E0A000000000003040000000000002A
:102F50009E8D060000000000301E0A0000000000E8
:102F60000304000000000000AF8D06000000000018
:102F7000401E0A00000000000304000000000000E2
:102F80007FEC050000000000501E0A000000000059
:102F90000304000000000000C78D060000000000D0
:102FA000581E0A000000000003040000000000009A
:102FB000D78D060000000000681E0A000000000017
:102FC000030400000000000089EC05000000000080
:102FD000781E0A000000000003040000000000004A
:102FE000EE8D060000000000801E0A0000000000B8
:102FF0000304000000000000FC8D0600000000003B
:10300000901E0A0000000000030400000000000001
:1030100093EC050000000000A01E0A000000000064
:1030200003040000000000001D8E060000000000E8
:10303000A81E0A00000000000304000000000000B9
:103040002B8E060000000000B81E0A0000000000E1
:1030500003040000000000009DEC050000000000DB
:10306000C81E0A0000000000030400000000000069
:103070004C8E060000000000D01E0A000000000078
:1030800003040000000000005D8E06000000000048
:10309000E01E0A0000000000030400000000000021
:1030A000A7EC050000000000F01E0A000000000070
:1030B0000304000000000000798E060000000000FC
:1030C000F81E0A00000000000304000000000000D9
:1030D000898E060000000000081F0A0000000000A2
:1030E0000304000000000000B1EC05000000000037
:1030F000181F0A0000000000030400000000000088
:10310000A48E060000000000201F0A00000000003E
:103110000304000000000000A48E06000000000070
:10312000301F0A000000000003040000000000003F
:10313000BBEC050000000000401F0A00000000007A
:103140000304000000000000AB8E06000000000039
:10315000481F0A00000000000304000000000000F7
:10316000AB8E060000000000581F0A00000000009F
:103170000304000000000000C6EC05000000000091
:10318000681F0A00000000000304000000000000A7
:10319000BF8E060000000000701F0A000000000043
:1031A0000304000000000000BF8E060000000000C5
:1031B000801F0A000000000003040000000000005F
:1031C000D1EC050000000000901F0A000000000084
:1031D0000304000000000000C78E0600000000008D
:1031E000981F0A0000000000030400000000000017
:1031F000C78E060000000000A81F0A0000000000A3
:103200000304000000000000DCEC050000000000EA
:10321000B81F0A00000000000304000000000000C6
:10322000CE8E060000000000C01F0A000000000053
:103230000304000000000000CE8E06000000000025
:10324000D01F0A000000000003040000000000007E
:10325000E7EC050000000000E01F0A00000000008D
:103260000304000000000000D88E060000000000EB
:10327000E81F0A0000000000030400000000000036
:10328000D88E060000000000F81F0A0000000000B1
:103290000304000000000000F2EC05000000000044
:1032A00008200A00000000000304000000000000E5
:1032B000E88E06000000000010200A000000000058
:1032C0000304000000000000E88E0600000000007B
:1032D00020200A000000000003040000000000009D
:1032E000FDEC05000000000030200A000000000096
:1032F0000304000000000000F58E0600000000003E
:1033000038200A0000000000030400000000000054
:10331000F58E06000000000048200A0000000000B2
:10332000030400000000000006ED0500000000009E
:1033300058200A0000000000030400000000000004
:10334000008F06000000000060200A00000000005E
:103350000304000000000000008F060000000000D1
:1033600070200A00000000000304000000000000BC
:103370000FED05000000000080200A0000000000A2
:103380000304000000000000108F06000000000091
:1033900088200A0000000000030400000000000074
:1033A000108F06000000000098200A0000000000B6
:1033B000030400000000000019ED050000000000FB
:1033C000A8200A0000000000030400000000000024
:1033D000208F060000000000B0200A00000000005E
:1033E0000304000000000000208F06000000000021
:1033F000C0200A00000000000304000000000000DC
:1034000023ED050000000000D0200A0000000000AD
:103410000304000000000000288F060000000000E8
:10342000D8200A0000000000030400000000000093
:10343000288F060000000000E8200A0000000000BD
:1034400003040000000000002DED05000000000056
:10345000F8200A0000000000030400000000000043
:103460002E8F06000000000000210A00000000006E
:1034700003040000000000002E8F06000000000082
:1034800010210A00000000000304000000000000FA
:1034900036ED05000000000020210A0000000000B9
:1034A0000304000000000000358F0600000000004B
:1034B00028210A00000000000304000000000000B2
:1034C000358F06000000000038210A0000000000CF
:1034D00003040000000000003FED050000000000B4
:1034E00048210A0000000000030400000000000062
:1034F000428F06000000000050210A00000000007A
:1035000003040000000000004C8F060000000000D3
:1035100060210A0000000000030400000000000019
:1035200047ED05000000000070210A0000000000C7
:103530000304000000000000618F0600000000008E
:1035400078210A00000000000304000000000000D1
:103550006F8F06000000000088210A0000000000B4
:1035600003040000000000004FED05000000000013
:1035700098210A0000000000030400000000000081
:103580008C8F060000000000A0210A00000000004F
:103590000304000000000000978F060000000000F8
:1035A000C0210A0000000000030400000000000029
:1035B000A28F060000000000C8210A0000000000E1
:1035C0000304000000000000AD8F060000000000B2
:1035D000D8210A00000000000304000000000000E1
:1035E00057ED050000000000E8210A00000000007F
:1035F0000304000000000000C18F0600000000006E
:10360000F0210A0000000000030400000000000098
:10361000D08F06000000000000220A000000000019
:10362000030400000000000060ED05000000000041
:1036300010220A0000000000030400000000000047
:10364000E58F06000000000018220A0000000000BC
:103650000304000000000000F48F060000000000DA
:1036600028220A00000000000304000000000000FF
:1036700069ED05000000000038220A00000000008B
:103680000304000000000000099006000000000094
:1036900040220A00000000000304000000000000B7
:1036A000169006000000000050220A0000000000F2
:1036B000030400000000000072ED0500000000009F
:1036C00060220A0000000000030400000000000067
:1036D0002C9006000000000068220A000000000094
:1036E0000304000000000000359006000000000008
:1036F00078220A000000000003040000000000001F
:103700007BED05000000000088220A000000000098
:1037100003040000000000005190060000000000BB
:1037200090220A00000000000304000000000000D6
:103730005890060000000000A0220A0000000000CF
:10374000030400000000000085ED050000000000FB
:10375000B0220A0000000000030400000000000086
:103760006A90060000000000B8220A000000000075
:1037700003040000000000006A9006000000000042
:10378000C8220A000000000003040000000000003E
:103790008EED050000000000D8220A0000000000A5
:1037A00003040000000000006F900600000000000D
:1037B000E0220A00000000000304000000000000F6
:1037C0006F90060000000000F0220A0000000000D8
:1037D000030400000000000091ED0500000000005F
:1037E00000230A00000000000304000000000000A5
:1037F0007B9006000000000008230A000000000083
:1038000003040000000000007B90060000000000A0
:1038100018230A000000000003040000000000005C
:1038200094ED05000000000028230A0000000000BD
:10383000030400000000000081900600000000006A
:1038400030230A0000000000030400000000000014
:10385000819006000000000040230A0000000000E4
:1038600003040000000000009BED050000000000C4
:1038700050230A00000000000304000000000000C4
:10388000879006000000000058230A000000000096
:1038900003040000000000009B90060000000000F0
:1038A00068230A000000000003040000000000007C
:1038B000A2ED05000000000078230A0000000000CF
:1038C0000304000000000000B890060000000000A3
:1038D00080230A0000000000030400000000000034
:1038E000B89006000000000090230A0000000000CD
:1038F0000304000000000000AAED05000000000025
:10390000A0230A00000000000304000000000000E3
:10391000BD90060000000000A8230A00000000007F
:103920000304000000000000C79006000000000033
:10393000B8230A000000000003040000000000009B
:10394000B2ED050000000000C8230A0000000000DE
:103950000304000000000000D290060000000000F8
:10396000D0230A0000000000030400000000000053
:10397000DE90060000000000E0230A0000000000C6
:103980000304000000000000BAED05000000000084
:10399000F0230A0000000000030400000000000003
:1039A000EB90060000000000F8230A000000000071
:1039B0000304000000000000EF900600000000007B
:1039C00008240A00000000000304000000000000BA
:1039D000C2ED05000000000018240A0000000000ED
:1039E0000304000000000000F39006000000000047
:1039F00020240A0000000000030400000000000072
:103A0000FF9006000000000030240A0000000000C3
:103A10000304000000000000C3ED050000000000EA
:103A200040240A0000000000030400000000000021
:103A30000F9106000000000048240A00000000006A
:103A400003040000000000001691060000000000C2
:103A500058240A00000000000304000000000000D9
:103A6000C4ED05000000000068240A00000000000A
:103A7000030400000000000029910600000000007F
:103A800070240A0000000000030400000000000091
:103A90002F9106000000000080240A0000000000B2
:103AA0000304000000000000C7ED05000000000056
:103AB00090240A0000000000030400000000000041
:103AC000359106000000000098240A000000000064
:103AD00003040000000000003A910600000000000E
:103AE000A8240A00000000000304000000000000F9
:103AF000CCED050000000000B8240A000000000022
:103B000003040000000000004591060000000000D2
:103B1000C0240A00000000000304000000000000B0
:103B20004591060000000000D0240A0000000000BB
:103B30000304000000000000D2ED050000000000BA
:103B4000E0240A0000000000030400000000000060
:103B50004B91060000000000E8240A00000000006D
:103B600003040000000000004B910600000000006C
:103B7000F8240A0000000000030400000000000018
:103B8000DAED05000000000008250A000000000032
:103B90000304000000000000519106000000000036
:103BA00010250A00000000000304000000000000CF
:103BB000579106000000000020250A0000000000C8
:103BC0000304000000000000E2ED0500000000001A
:103BD00030250A000000000003040000000000007F
:103BE0005E9106000000000038250A000000000079
:103BF00003040000000000005E91060000000000C9
:103C000048250A0000000000030400000000000036
:103C1000EBED05000000000058250A000000000040
:103C200003040000000000006B910600000000008B
:103C300060250A00000000000304000000000000EE
:103C40006B9106000000000070250A0000000000D3
:103C50000304000000000000F5ED05000000000076
:103C600080250A000000000003040000000000009E
:103C7000779106000000000088250A00000000007F
:103C8000030400000000000077910600000000001F
:103C900098250A0000000000030400000000000056
:103CA000FFED050000000000A8250A00000000004C
:103CB00003040000000000008391060000000000E3
:103CC000B0250A000000000003040000000000000E
:103CD0008391060000000000C0250A0000000000DB
:103CE000030400000000000009EE050000000000D1
:103CF000D0250A00000000000304000000000000BE
:103D00009091060000000000D8250A000000000085
:103D10000304000000000000909106000000000075
:103D2000E8250A0000000000030400000000000075
:103D300013EE050000000000F8250A000000000056
:103D400003040000000000009C9106000000000039
:103D500000260A000000000003040000000000002C
:103D60009C9106000000000010260A0000000000E0
:103D700003040000000000001DEE0500000000002C
:103D800020260A00000000000304000000000000DC
:103D9000A99106000000000028260A00000000008B
:103DA0000304000000000000A991060000000000CC
:103DB00038260A0000000000030400000000000094
:103DC00027EE05000000000048260A000000000061
:103DD0000304000000000000B6910600000000008F
:103DE00050260A000000000003040000000000004C
:103DF000B69106000000000060260A0000000000E6
:103E0000030400000000000031EE05000000000087
:103E100070260A00000000000304000000000000FB
:103E2000C79106000000000078260A00000000008C
:103E30000304000000000000C7910600000000001D
:103E400088260A00000000000304000000000000B3
:103E50003CEE05000000000098260A00000000006B
:103E60000304000000000000D891060000000000DC
:103E7000A0260A000000000003040000000000006B
:103E8000D891060000000000B0260A0000000000E3
:103E9000030400000000000047EE050000000000E1
:103EA000C0260A000000000003040000000000001B
:103EB000E991060000000000C8260A00000000008A
:103EC0000304000000000000E9910600000000006B
:103ED000D8260A00000000000304000000000000D3
:103EE00052EE050000000000E8260A000000000075
:103EF0000304000000000000FD9106000000000027
:103F0000F0260A000000000003040000000000008A
:103F1000FD9106000000000000270A0000000000DC
:103F200003040000000000005DEE0500000000003A
:103F300010270A0000000000030400000000000039
:103F40001C9206000000000018270A000000000074
:103F500003040000000000001C92060000000000A6
:103F600028270A00000000000304000000000000F1
:103F700068EE05000000000038270A00000000007D
:103F800003040000000000003B9206000000000057
:103F900040270A00000000000304000000000000A9
:103FA0003B9206000000000050270A0000000000BD
:103FB000030400000000000073EE05000000000094
:103FC00060270A0000000000030400000000000059
:103FD0005A9206000000000068270A000000000056
:103FE00003040000000000005A92060000000000D8
:103FF00078270A0000000000030400000000000011
:104000007EEE05000000000088270A000000000086
:104010000304000000000000799206000000000088
:1040200090270A00000000000304000000000000C8
:104030007992060000000000A0270A00000000009E
:10404000030400000000000089EE050000000000ED
:10405000B0270A0000000000030400000000000078
:104060008D92060000000000B8270A000000000042
:1040700003040000000000008D9206000000000014
:10408000C8270A0000000000030400000000000030
:1040900094EE050000000000D8270A000000000090
:1040A0000304000000000000A292060000000000CF
:1040B000E0270A00000000000304000000000000E8
:1040C000A292060000000000F0270A000000000095
:1040D00003040000000000009FEE05000000000047
:1040E00000280A0000000000030400000000000097
:1040F000BA9206000000000008280A000000000034
:104100000304000000000000BA9206000000000056
:1041100018280A000000000003040000000000004E
:10412000AAEE05000000000028280A000000000098
:104130000304000000000000CE9206000000000012
:1041400030280A0000000000030400000000000006
:10415000CE9206000000000040280A000000000087
:104160000304000000000000B5EE050000000000A0
:1041700050280A00000000000304000000000000B6
:10418000E29206000000000058280A00000000002B
:104190000304000000000000E2920600000000009E
:1041A00068280A000000000003040000000000006E
:1041B000C0EE05000000000078280A0000000000A2
:1041C0000304000000000000FA9206000000000056
:1041D00080280A0000000000030400000000000026
:1041E000FA9206000000000090280A00000000007B
:1041F0000304000000000000CBEE050000000000FA
:10420000A0280A00000000000304000000000000D5
:104210001693060000000000A8280A000000000015
:1042200003040000000000001693060000000000D8
:10423000B8280A000000000003040000000000008D
:10424000D6EE050000000000C8280A0000000000AB
:10425000030400000000000033930600000000008B
:10426000D0280A0000000000030400000000000045
:104270003393060000000000E0280A000000000060
:104280000304000000000000E1EE05000000000053
:10429000F0280A00000000000304000000000000F5
:1042A0004E93060000000000F8280A0000000000FD
:1042B00003040000000000004E9306000000000010
:1042C00008290A00000000000304000000000000AC
:1042D000ECEE05000000000018290A0000000000B4
:1042E00003040000000000006893060000000000C6
:1042F00020290A0000000000030400000000000064
:10430000689306000000000030290A000000000049
:104310000304000000000000F7EE050000000000AC
:1043200040290A0000000000030400000000000013
:10433000849306000000000048290A0000000000E5
:104340000304000000000000849306000000000049
:1043500058290A00000000000304000000000000CB
:1043600002EF05000000000068290A0000000000BC
:1043700003040000000000009C9306000000000001
:1043800070290A0000000000030400000000000083
:104390009C9306000000000080290A000000000035
:1043A00003040000000000000DEF05000000000005
:1043B00090290A0000000000030400000000000033
:1043C000B59306000000000098290A0000000000D4
:1043D0000304000000000000B59306000000000088
:1043E000A8290A00000000000304000000000000EB
:1043F00018EF050000000000B8290A0000000000C6
:104400000304000000000000D2930600000000003A
:10441000C0290A00000000000304000000000000A2
:10442000D293060000000000D0290A00000000001E
:10443000030400000000000023EF0500000000005E
:10444000E0290A0000000000030400000000000052
:10445000F093060000000000E8290A0000000000B8
:104460000304000000000000F093060000000000BC
:10447000F8290A000000000003040000000000000A
:104480002EEF050000000000082A0A0000000000CE
:104490000304000000000000059406000000000076
:1044A000102A0A00000000000304000000000000C1
:1044B0000594060000000000202A0A000000000009
:1044C000030400000000000039EF050000000000B8
:1044D000302A0A0000000000030400000000000071
:1044E0002294060000000000382A0A0000000000A4
:1044F00003040000000000002294060000000000F9
:10450000482A0A0000000000030400000000000028
:1045100044EF050000000000582A0A0000000000D7
:1045200003040000000000003F94060000000000AB
:10453000602A0A00000000000304000000000000E0
:104540003F94060000000000702A0A0000000000EE
:1045500003040000000000004FEF05000000000011
:10456000802A0A0000000000030400000000000090
:104570005994060000000000882A0A00000000008C
:104580000304000000000000599406000000000031
:10459000982A0A0000000000030400000000000048
:1045A0005AEF050000000000A82A0A0000000000E1
:1045B00003040000000000007894060000000000E2
:1045C000B02A0A0000000000030400000000000000
:1045D0007894060000000000C02A0A0000000000D5
:1045E000030400000000000065EF0500000000006B
:1045F000D02A0A00000000000304000000000000B0
:104600009694060000000000D82A0A00000000006E
:104610000304000000000000969406000000000063
:10462000E82A0A0000000000030400000000000067
:1046300070EF050000000000F82A0A0000000000EA
:104640000304000000000000B19406000000000018
:10465000002B0A000000000003040000000000001E
:10466000B194060000000000102B0A0000000000BA
:1046700003040000000000007BEF050000000000C4
:10468000202B0A00000000000304000000000000CE
:10469000CD94060000000000282B0A000000000056
:1046A0000304000000000000CD940600000000009C
:1046B000382B0A0000000000030400000000000086
:1046C00086EF050000000000482B0A0000000000F3
:1046D0000304000000000000EC940600000000004D
:1046E000502B0A000000000003040000000000003E
:1046F000EC94060000000000602B0A00000000009F
:10470000030400000000000091EF0500000000001D
:10471000702B0A00000000000304000000000000ED
:104720000B95060000000000782B0A000000000036
:1047300003040000000000000B95060000000000CC
:10474000882B0A00000000000304000000000000A5
:104750009CEF050000000000982B0A0000000000FC
:104760000304000000000000269506000000000081
:10477000A02B0A000000000003040000000000005D
:104780002695060000000000B02B0A000000000083
:104790000304000000000000A7EF05000000000077
:1047A000C02B0A000000000003040000000000000D
:1047B0004395060000000000C82B0A00000000001E
:1047C0000304000000000000439506000000000004
:1047D000D82B0A00000000000304000000000000C5
:1047E000B2EF050000000000E82B0A000000000006
:1047F00003040000000000006495060000000000B3
:10480000F02B0A000000000003040000000000007C
:104810006495060000000000002C0A000000000063
:104820000304000000000000BDEF050000000000D0
:10483000102C0A000000000003040000000000002B
:104840008495060000000000182C0A0000000000FB
:104850000304000000000000849506000000000032
:10486000282C0A00000000000304000000000000E3
:10487000C8EF050000000000382C0A00000000000E
:104880000304000000000000A395060000000000E3
:10489000402C0A000000000003040000000000009B
:1048A000A395060000000000502C0A000000000044
:1048B0000304000000000000D3EF0500000000002A
:1048C000602C0A000000000003040000000000004B
:1048D000BE95060000000000682C0A0000000000E1
:1048E0000304000000000000BE9506000000000068
:1048F000782C0A0000000000030400000000000003
:10490000DEEF050000000000882C0A000000000017
:104910000304000000000000DF9506000000000016
:10492000902C0A00000000000304000000000000BA
:10493000DF95060000000000A02C0A000000000027
:104940000304000000000000E9EF05000000000083
:10495000B02C0A000000000003040000000000006A
:10496000FC95060000000000B82C0A0000000000C2
:104970000304000000000000FC9506000000000099
:10498000C82C0A0000000000030400000000000022
:10499000F4EF050000000000D82C0A000000000021
:1049A00003040000000000001D9606000000000047
:1049B000E02C0A00000000000304000000000000DA
:1049C0001D96060000000000F02C0A000000000008
:1049D0000304000000000000FFEF050000000000DD
:1049E000002D0A0000000000030400000000000089
:1049F0003E96060000000000082D0A00000000009E
:104A000003040000000000003E96060000000000C5
:104A1000182D0A0000000000030400000000000040
:104A20000AF0050000000000282D0A000000000028
:104A3000030400000000000058960600000000007B
:104A4000302D0A00000000000304000000000000F8
:104A50005896060000000000402D0A0000000000EB
:104A6000030400000000000015F005000000000035
:104A7000502D0A00000000000304000000000000A8
:104A80006D96060000000000582D0A00000000008E
:104A900003040000000000006D9606000000000006
:104AA000682D0A0000000000030400000000000060
:104AB00020F0050000000000782D0A000000000032
:104AC00003040000000000008796060000000000BC
:104AD000802D0A0000000000030400000000000018
:104AE0008796060000000000902D0A0000000000DC
:104AF00003040000000000002BF00500000000008F
:104B0000A02D0A00000000000304000000000000C7
:104B1000A096060000000000A82D0A00000000007A
:104B20000304000000000000A09606000000000042
:104B3000B82D0A000000000003040000000000007F
:104B400036F0050000000000C82D0A00000000003B
:104B50000304000000000000B696060000000000FC
:104B6000D02D0A0000000000030400000000000037
:104B7000B696060000000000E02D0A0000000000CC
:104B8000030400000000000041F0050000000000E8
:104B9000F02D0A00000000000304000000000000E7
:104BA000CB96060000000000F82D0A00000000006F
:104BB0000304000000000000CB9606000000000087
:104BC000082E0A000000000003040000000000009E
:104BD0004CF0050000000000182E0A000000000044
:104BE0000304000000000000DD9606000000000045
:104BF000202E0A0000000000030400000000000056
:104C0000DD96060000000000302E0A0000000000C3
:104C1000030400000000000057F005000000000041
:104C2000402E0A0000000000030400000000000005
:104C3000F696060000000000482E0A000000000062
:104C40000304000000000000F696060000000000CB
:104C5000582E0A00000000000304000000000000BD
:104C600062F0050000000000682E0A00000000004D
:104C700003040000000000000E9706000000000082
:104C8000702E0A0000000000030400000000000075
:104C90000E97060000000000802E0A0000000000B1
:104CA00003040000000000006DF00500000000009B
:104CB000902E0A0000000000030400000000000025
:104CC0001F97060000000000982E0A000000000058
:104CD00003040000000000001F9706000000000011
:104CE000A82E0A00000000000304000000000000DD
:104CF00078F0050000000000B82E0A000000000057
:104D000003040000000000003897060000000000C7
:104D1000C02E0A0000000000030400000000000094
:104D20003897060000000000D02E0A0000000000A6
:104D3000030400000000000083F0050000000000F4
:104D4000E02E0A0000000000030400000000000044
:104D50005597060000000000E82E0A000000000041
:104D6000030400000000000055970600000000004A
:104D7000F82E0A00000000000304000000000000FC
:104D80008EF0050000000000082F0A00000000005F
:104D900003040000000000007497060000000000FB
:104DA000102F0A00000000000304000000000000B3
:104DB0007497060000000000202F0A000000000089
:104DC000030400000000000099F00500000000004E
:104DD000302F0A0000000000030400000000000063
:104DE0009497060000000000382F0A000000000021
:104DF000030400000000000094970600000000007B
:104E0000482F0A000000000003040000000000001A
:104E1000A4F0050000000000582F0A000000000068
:104E20000304000000000000B59706000000000029
:104E3000602F0A00000000000304000000000000D2
:104E4000B597060000000000702F0A000000000067
:104E50000304000000000000AFF0050000000000A7
:104E6000802F0A0000000000030400000000000082
:104E7000D497060000000000882F0A000000000000
:104E80000304000000000000D497060000000000AA
:104E9000982F0A000000000003040000000000003A
:104EA000BAF0050000000000A82F0A000000000072
:104EB0000304000000000000F59706000000000059
:104EC000B02F0A00000000000304000000000000F2
:104ED000F597060000000000C02F0A000000000047
:104EE0000304000000000000C5F005000000000001
:104EF000D02F0A00000000000304000000000000A2
:104F00001698060000000000D82F0A0000000000DC
:104F100003040000000000001A98060000000000D2
:104F2000E82F0A0000000000030400000000000059
:104F3000D0F0050000000000F82F0A00000000007B
:104F400003040000000000001E980600000000009E
:104F500000300A0000000000030400000000000010
:104F60001E9806000000000010300A00000000003B
:104F70000304000000000000D8F00500000000005D
:104F800020300A00000000000304000000000000C0
:104F90002A9806000000000028300A0000000000E7
:104FA00003040000000000002A9806000000000032
:104FB00038300A0000000000030400000000000078
:104FC000DFF005000000000048300A00000000008B
:104FD00003040000000000003098060000000000FC
:104FE00050300A0000000000030400000000000030
:104FF000309806000000000060300A000000000049
:105000000304000000000000E6F0050000000000BE
:1050100070300A00000000000304000000000000DF
:10502000369806000000000078300A0000000000FA
:105030000304000000000000369806000000000095
:1050400088300A0000000000030400000000000097
:10505000EDF005000000000098300A00000000009C
:1050600003040000000000003E980600000000005D
:10507000A0300A000000000003040000000000004F
:105080003E98060000000000B0300A00000000005A
:105090000304000000000000F4F005000000000020
:1050A000C0300A00000000000304000000000000FF
:1050B0004598060000000000C8300A00000000000B
:1050C00003040000000000004598060000000000F6
:1050D000D8300A00000000000304000000000000B7
:1050E000FBF0050000000000E8300A0000000000AE
:1050F00003040000000000004C98060000000000BF
:10510000F0300A000000000003040000000000006E
:105110004C9806000000000000310A00000000006A
:10512000030400000000000002F105000000000080
:1051300010310A000000000003040000000000001D
:10514000529806000000000018310A00000000001C
:105150000304000000000000529806000000000058
:1051600028310A00000000000304000000000000D5
:1051700009F105000000000038310A0000000000BD
:105180000304000000000000599806000000000021
:1051900040310A000000000003040000000000008D
:1051A000599806000000000050310A00000000007D
:1051B000030400000000000010F1050000000000E2
:1051C00060310A000000000003040000000000003D
:1051D000609806000000000068310A00000000002E
:1051E00003040000000000006098060000000000BA
:1051F00078310A00000000000304000000000000F5
:1052000017F105000000000088310A0000000000CE
:105210000304000000000000679806000000000082
:1052200090310A00000000000304000000000000AC
:105230006798060000000000A0310A00000000008E
:1052400003040000000000001EF105000000000043
:10525000B0310A000000000003040000000000005C
:105260006E98060000000000B8310A00000000003F
:1052700003040000000000006E980600000000001B
:10528000C8310A0000000000030400000000000014
:1052900025F1050000000000D8310A0000000000E0
:1052A00003040000000000008398060000000000D6
:1052B000E0310A00000000000304000000000000CC
:1052C0008398060000000000F0310A000000000092
:1052D00003040000000000002DF1050000000000A4
:1052E00000320A000000000003040000000000007B
:1052F000989806000000000008320A000000000034
:105300000304000000000000989806000000000060
:1053100018320A0000000000030400000000000032
:1053200035F105000000000028320A0000000000EE
:105330000304000000000000AD980600000000001B
:1053400030320A00000000000304000000000000EA
:10535000AD9806000000000040320A000000000086
:1053600003040000000000003DF105000000000003
:1053700050320A000000000003040000000000009A
:10538000C29806000000000058320A000000000029
:105390000304000000000000C298060000000000A6
:1053A00068320A0000000000030400000000000052
:1053B00045F105000000000078320A0000000000FE
:1053C0000304000000000000CE980600000000006A
:1053D00080320A000000000003040000000000000A
:1053E000CE9806000000000090320A000000000085
:1053F00003040000000000004DF105000000000063
:10540000A0320A00000000000304000000000000B9
:10541000D998060000000000A8320A000000000031
:105420000304000000000000D998060000000000FE
:10543000B8320A0000000000030400000000000071
:1054400055F1050000000000C8320A00000000000D
:105450000304000000000000EF98060000000000B8
:10546000D0320A0000000000030400000000000029
:10547000EF98060000000000E0320A000000000083
:1054800003040000000000005DF1050000000000C2
:10549000F0320A00000000000304000000000000D9
:1054A0000599060000000000F8320A000000000024
:1054B0000304000000000000059906000000000041
:1054C00008330A0000000000030400000000000090
:1054D00065F105000000000018330A00000000001C
:1054E0000304000000000000109906000000000006
:1054F00020330A0000000000030400000000000048
:10550000109906000000000030330A00000000007F
:1055100003040000000000006DF105000000000021
:1055200040330A00000000000304000000000000F7
:10553000299906000000000048330A00000000001E
:10554000030400000000000029990600000000008C
:1055500058330A00000000000304000000000000AF
:1055600075F105000000000068330A00000000002B
:105570000304000000000000429906000000000043
:1055800070330A0000000000030400000000000067
:10559000429906000000000080330A00000000006D
:1055A00003040000000000007DF105000000000081
:1055B00090330A0000000000030400000000000017
:1055C000589906000000000098330A00000000000F
:1055D00003040000000000005899060000000000CD
:1055E000A8330A00000000000304000000000000CF
:1055F00085F1050000000000B8330A00000000003B
:105600000304000000000000729906000000000082
:10561000C0330A0000000000030400000000000086
:105620007299060000000000D0330A00000000005C
:1056300003040000000000008DF1050000000000E0
:10564000E0330A0000000000030400000000000036
:105650007E99060000000000E8330A000000000008
:1056600003040000000000007E9906000000000016
:10567000F8330A00000000000304000000000000EE
:1056800095F105000000000008340A000000000049
:1056900003040000000000008A99060000000000DA
:1056A00010340A00000000000304000000000000A5
:1056B0008A9906000000000020340A000000000063
:1056C00003040000000000009DF105000000000040
:1056D00030340A0000000000030400000000000055
:1056E000999906000000000038340A00000000000C
:1056F0000304000000000000A7990600000000005D
:1057000048340A000000000003040000000000000C
:10571000A5F105000000000058340A000000000058
:105720000304000000000000B6990600000000001D
:1057300060340A00000000000304000000000000C4
:10574000B69906000000000070340A000000000056
:105750000304000000000000ADF10500000000009F
:1057600080340A0000000000030400000000000074
:10577000C39906000000000088340A000000000001
:105780000304000000000000C399060000000000B0
:1057900098340A000000000003040000000000002C
:1057A000B5F1050000000000A8340A000000000068
:1057B0000304000000000000D29906000000000071
:1057C000B0340A00000000000304000000000000E4
:1057D000D299060000000000C0340A00000000005A
:1057E0000304000000000000BDF1050000000000FF
:1057F000D0340A0000000000030400000000000094
:10580000DF99060000000000D8340A000000000004
:105810000304000000000000DF9906000000000003
:10582000E8340A000000000003040000000000004B
:10583000C5F1050000000000F8340A000000000077
:105840000304000000000000EA99060000000000C8
:1058500000350A0000000000030400000000000002
:10586000EA9906000000000010350A000000000060
:105870000304000000000000CDF10500000000005E
:1058800020350A00000000000304000000000000B2
:10589000FB9906000000000028350A000000000007
:1058A0000304000000000000FB9906000000000057
:1058B00038350A000000000003040000000000006A
:1058C000D5F105000000000048350A000000000086
:1058D0000304000000000000119A06000000000010
:1058E00050350A0000000000030400000000000022
:1058F000119A06000000000060350A000000000058
:105900000304000000000000DDF1050000000000BD
:1059100070350A00000000000304000000000000D1
:10592000279A06000000000078350A0000000000F9
:105930000304000000000000279A06000000000099
:1059400088350A0000000000030400000000000089
:10595000E5F105000000000098350A000000000095
:105960000304000000000000329A0600000000005E
:10597000A0350A0000000000030400000000000041
:10598000419A060000000000B0350A000000000047
:105990000304000000000000EDF10500000000001D
:1059A000C0350A00000000000304000000000000F1
:1059B000529A060000000000C8350A0000000000EE
:1059C00003040000000000005E9A060000000000D2
:1059D000D8350A00000000000304000000000000A9
:1059E000F5F1050000000000E8350A0000000000A5
:1059F00003040000000000006B9A06000000000095
:105A0000F0350A0000000000030400000000000060
:105A1000759A06000000000000360A000000000031
:105A20000304000000000000FDF10500000000007C
:105A300010360A000000000003040000000000000F
:105A4000809A06000000000018360A0000000000DE
:105A50000304000000000000859A0600000000001A
:105A600028360A00000000000304000000000000C7
:105A700005F205000000000038360A0000000000B2
:105A800003040000000000008A9A060000000000E5
:105A900040360A000000000003040000000000007F
:105AA0008A9A06000000000050360A00000000003C
:105AB00003040000000000000DF2050000000000DB
:105AC00060360A000000000003040000000000002F
:105AD0009E9A06000000000068360A0000000000E0
