:1000000000000000000000000000000000000000F0
:1000100000000000000000000000000000000000E0
:1000200000000000000000000000000000000000D0
:1000300000000000000000000000000000000000C0
:020000023000CC
:10112000FFFFFFFF000001000200030004000000B9
:10113000ADDEADDE00000000000000000000000099
:10114000000000000000000000000000000000009F
:10115000000000000000000000000000000000008F
:10116000000000000000000000000000000000007F
:10117000000000000000000000000000000000006F
:101610000000000000000000666976650000000020
:1016200000000000000000000000000000000000BA
:1016300000000000000000000000000000000000AA
:101640000000000000000000010000000000000099
:10165000000000000000000000000000000000008A
:10166000000000000000000000000000000000007A
:10167000000000000000000000000000000000006A
:10168000000000000000000000000000000000005A
:101690006400000064000000FCFF03000100000083
:1016A000640000006D756C74696275696C645F67D5
:1016B0007061706900000000000000000000000080
:1016C000000000000000000000000000000000001A
:1016D000000000000000000000000000000000000A
:1016E00000000000000000000000000000000000FA
:1016F00000000000000000000000000000000000EA
:10170000000000000000000053616D73756E6700FB
:1017100001656E00030000001027000000000000BB
:1017200000000000000000000000000000000000B9
:1017300000000000000000000000000000000000A9
:101740000000000000000000000000000000000099
:101750000000000000000000000000000000000089
:101760000000000000000000000000000000000079
:101770000000000000000000000000000000000069
:101780000000000000000000000000000000000059
:101790000000000000000000000000000000000049
:1017A0000000000000000000000000000000000039
:1017B0000000000000000000000000000000000029
:1017C0000000000000000000000000000000000019
:1017D0000000000000000000000000000000000009
:1017E00000000000000000000000000000000000F9
:1017F00000000000000000000000000000000000E9
:1018000000000000000000000000000000000000D8
:10181000980300000000000000000000000000002D
:1018200000000000000000000000000000000000B8
:1018300000000000000000000000000000000000A8
:101840000000000000000000000000000000000098
:101850000000000000000000000000000000000088
:101D6000000000006400000000000000000000000F
:101D70000000000000000000000000000000000063
:101D800068F409000000000048F4090000000000A9
:101D900038F409000000000038F4090000000000D9
:101DA00058F409000000000088F409000000000059
:101DB00038F409000000000038F4090000000000B9
:101DC000F8F4090000000000C8F409000000000059
:101DD00058F509000000000038F409000000000078
:101DE00008F509000000000038F4090000000000B8
:101DF000E8F409000000000068F509000000000098
:101E000038F409000000000098F409000000000008
:101E100038F409000000000038F409000000000058
:101E200038F409000000000038F409000000000048
:101E300038F409000000000038F409000000000038
:101E400038F409000000000038F409000000000028
:101E500038F409000000000038F409000000000018
:101E600038F409000000000038F409000000000008
:101E700038F409000000000038F4090000000000F8
:101E800078F409000000000038F4090000000000A8
:101E9000B8F409000000000038F409000000000058
:101EA00038F4090000000000A8F409000000000058
:101EB00038F409000000000038F4090000000000B8
:101EC000D8F409000000000038F509000000000007
:101ED00018F509000000000028F5090000000000C6
:101EE00068F509000000000048F509000000000046
:101EF00000000000000000000000000000000000E2
:101F000000000000000000000000000000000000D1
:101F100000000000000000000000000000000000C1
:101F200000000000000000000000000000000000B1
:101F30000000000000000000402100000000000040
:101F40000000000000000000000000000000000091
:101F50000000000000000000000000000000000081
:101F60000000000000000000000000000000000071
:101F70000000000000000000000000FFFFFFFFFF66
:101F80000000000000000000000000000000000051
:101F90000000000000000000000000000000000041
:101FA0000000000000000000000000000000000031
:101FB0000000000000000000000000000000000021
:101FC0000000000000000000000000000000000011
:101FD0005ABC05000000000060BC050000000000C5
:101FE00066BC0500000000006CBC0500000000009D
:101FF00072BC05000000000078BC05000000000075
:102000007EBC05000000000028F709000000000069
:1020100020F709000000000050F709000000000050
:1020200044BE0500000000000100000001000000A7
:10203000000000000200000001000000000000009D
:102040001000000000000000F0AB0A0000000000DB
:10205000020000000000000000000000000000007E
:1020600010000000000000001C7F060000000000BF
:10207000A30100001000000010000000100000008C
:102080000250000000000000609E010000000000FF
:10209000489F010000000000000000000000000058
:1020A0000801000000000000000000000000000027
:1020B0000000000000000000000000000000000020
:1020C0000000000000000000A2010000100000005D
:1020D000100000000000000001500000000000009F
:1020E000609E010000000000C89F01000000000089
:1020F00000000000000000000801000000000000D7
:1021000000000000000000000000000000000000CF
:1021100000000000000000000000000000000000BF
:10212000A4010000010000001000000010000000E9
:102130000450000000000000609E0100000000004C
:1021400068A0010000000000000000000000000086
:102150000801000000000000000000000000000076
:10216000000000000000000000000000000000006F
:102170000000000000000000A501000001000000B8
:1021800010000000100000000350000000000000DC
:10219000609E010000000000CCA0010000000000D3
:1021A0000000000000000000080100000000000026
:1021B000000000000000000000000000000000001F
:1021C000000000000000000000000000000000000F
:1021D0008A02000001000000100000001000000052
:1021E0000340000000000000609E010000000000AD
:1021F00034A1010000000000000000000000000009
:1022000008010000000000000000000000000000C5
:1022100000000000000000000000000000000000BE
:1022200000000000000000008D020000010000001E
:10223000100000001000000003400000000000003B
:10224000609E01000000000048A2010000000000A4
:102250000000000000000000080100000000000075
:10226000000000000000000000000000000000006E
:10227000000000000000000000000000000000005E
:1022800088030000010000001000000010000000A2
:102290000540000000000000609E010000000000FA
:1022A000B0A20100000000000000000000000000DB
:1022B0000801000000000000000000000000000015
:1022C000000000000000000000000000000000000E
:1022D0000000000000000000A70100001000000046
:1022E0001800000010000000025000000000000074
:1022F000609E010000000000489F010000000000F7
:1023000000000000000000000801000000000000C4
:1023100000000000000000000000000000000000BD
:1023200000000000000000000000000000000000AD
:10233000A6010000100000001800000000000000CE
:102340000150000000000000609E0100000000003D
:10235000C89F010000000000000000000000000015
:102360000801000000000000000000000000000064
:10237000000000000000000000000000000000005D
:102380000000000000000000A801000001000000A3
:1023900018000000100000000450000000000000C1
:1023A000609E01000000000068A001000000000025
:1023B0000000000000000000080100000000000014
:1023C000000000000000000000000000000000000D
:1023D00000000000000000000000000000000000FD
:1023E000A90100000100000018000000100000001A
:1023F0000350000000000000609E0100000000008B
:10240000CCA001000000000000000000000000005F
:1024100008010000000000000000000000000000B3
:1024200000000000000000000000000000000000AC
:1024300000000000000000008B020000010000000E
:102440001800000010000000034000000000000021
:10245000609E01000000000034A1010000000000A7
:102460000000000000000000080100000000000063
:10247000000000000000000000000000000000005C
:10248000000000000000000000000000000000004C
:102490008E02000001000000180000001000000083
:1024A0000340000000000000609E010000000000EA
:1024B00048A2010000000000000000000000000031
:1024C0000801000000000000000000000000000003
:1024D00000000000000000000000000000000000FC
:1024E000000000000000000089030000010000005F
:1024F000180000001000000005400000000000006F
:10250000609E010000000000B0A201000000000079
:1025100000000000000000000801000000000000B2
:1025200000000000000000000000000000000000AB
:10253000000000000000000000000000000000009B
:10254000AB0100001000000020000000100000009F
:102550000250000000000000609E0100000000002A
:10256000489F010000000000000000000000000083
:102570000801000000000000000000000000000052
:10258000000000000000000000000000000000004B
:102590000000000000000000AA0100001000000080
:1025A00020000000000000000150000000000000BA
:1025B000609E010000000000C89F010000000000B4
:1025C0000000000000000000080100000000000002
:1025D00000000000000000000000000000000000FB
:1025E00000000000000000000000000000000000EB
:1025F000AC010000010000002000000010000000FD
:102600000450000000000000609E01000000000077
:1026100068A00100000000000000000000000000B1
:1026200008010000000000000000000000000000A1
:10263000000000000000000000000000000000009A
:102640000000000000000000AD01000001000000DB
:1026500020000000100000000350000000000000F7
:10266000609E010000000000CCA0010000000000FE
:102670000000000000000000080100000000000051
:10268000000000000000000000000000000000004A
:10269000000000000000000000000000000000003A
:1026A0008C0200000100000020000000100000006B
:1026B0000340000000000000609E010000000000D8
:1026C00034A1010000000000000000000000000034
:1026D00008010000000000000000000000000000F1
:1026E00000000000000000000000000000000000EA
:1026F00000000000000000008F0200000100000048
:102700002000000010000000034000000000000056
:10271000609E01000000000048A2010000000000CF
:1027200000000000000000000801000000000000A0
:102730000000000000000000000000000000000099
:102740000000000000000000000000000000000089
:102750008A030000010000002000000010000000BB
:102760000540000000000000609E01000000000025
:10277000B0A2010000000000000000000000000006
:102780000801000000000000000000000000000040
:102790000000000000000000000000000000000039
:1027A0000000000000000000B580060000000000EE
:1027B000BB800600000000000000000001000000D7
:1027C00084E9050000000000000000000000000097
:1027D000C580060000000000CC800600000000005C
:1027E000010000000600000085E90500000000006F
:1027F0000000000000000000E4800600000000006F
:10280000E980060000000000020000000700000050
:102810008BE905000000000000000000000000003F
:1028200006810600000000000A810600000000008A
:10283000030000000800000092E90500000000000D
:1028400000000000000000000E81060000000000F3
:1028500012810600000000000400000008000000D3
:102860009AE90500000000000000000000000000E0
:1028700016810600000000001A810600000000001A
:102880000500000008000000A2E9050000000000AB
:1028900000000000000000001E8106000000000093
:1028A0001E81060000000000060000000900000074
:1028B000AAE9050000000000000000000000000080
:1028C0002C8106000000000034810600000000009A
:1028D0000700000009000000B3E905000000000047
:1028E0000000000000000000498106000000000018
:1028F00051810600000000000800000009000000EF
:10290000BCE905000000000000000000000000001D
:1029100066810600000000007281060000000000D1
:102920000900000009000000C5E9050000000000E2
:102930000000000000000000878106000000000089
:1029400093810600000000000A000000090000005A
:10295000CEE90500000000000000000000000000BB
:10296000A881060000000000AD8106000000000004
:102970000B00000001000000D7E905000000000086
:102980000000000000000000C881060000000000F8
:10299000C8810600000000000C00000002000000DA
:1029A000D8E9050000000000000000000000000061
:1029B000CD81060000000000D0810600000000006C
:1029C0000D00000003000000DAE90500000000002F
:1029D0000000000000000000DB8106000000000095
:1029E000DD810600000000000E0000000300000072
:1029F000DDE905000000000000000000000000000C
:102A0000E981060000000000EB81060000000000E4
:102A10000F00000003000000E0E9050000000000D6
:102A20000000000000000000F88106000000000027
:102A3000FB81060000000000100000000300000001
:102A4000E3E90500000000000000000000000000B5
:102A50000F82060000000000118206000000000046
:102A60001100000003000000E6E90500000000007E
:102A700000000000000000002282060000000000AC
:102A80002582060000000000120000000300000084
:102A9000E9E905000000000000000000000000005F
:102AA0003C8206000000000040820600000000009A
:102AB0001300000004000000ECE905000000000025
:102AC000000000000000000044820600000000003A
:102AD000448206000000000014000000080000000E
:102AE000F0E9050000000000000000000000000008
:102AF0004A820600000000004A8206000000000032
:102B00001500000009000000F8E9050000000000C1
:102B100000000000000000005582060000000000D8
:102B200055820600000000001600000009000000A9
:102B300001EA0500000000000000000000000000A5
:102B400066820600000000006682060000000000A9
:102B500017000000090000000AEA0500000000005C
:102B600000000000000000007A8206000000000063
:102B70007A82060000000000180000000900000032
:102B800013EA050000000000000000000000000043
:102B900097820600000000009782060000000000F7
:102BA00019000000090000001CEA050000000000F8
:102BB0000000000000000000A882060000000000E5
:102BC000A8820600000000001A00000009000000B2
:102BD00025EA0500000000000000000000000000E1
:102BE000BC82060000000000BC820600000000005D
:102BF0001B000000080000002EEA05000000000095
:102C00000000000000000000C2820600000000007A
:102C1000C2820600000000001C0000000900000045
:102C200036EA05000000000000000000000000007F
:102C3000D182060000000000D982060000000000DA
:102C40001D000000050000003FEA05000000000034
:102C50000000000000000000E1820600000000000B
:102C6000E9820600000000001E00000005000000D0
:102C700044EA050000000000000000000000000021
:102C8000F182060000000000F9820600000000004A
:102C90001F0000000500000049EA050000000000D8
:102CA000000000000000000001830600000000009A
:102CB000098306000000000020000000050000005D
:102CC0004EEA0500000000000000000000000000C7
:102CD00011830600000000001A83060000000000B7
:102CE00021000000000000000000000000000000C3
:102CF0000000000000000000238306000000000028
:102D00002C83060000000000220000000B000000E1
:102D100053EA050000000000000000000000000071
:102D200035830600000000003E830600000000001E
:102D30002300000000000000000000000000000070
:102D400000000000000000004783060000000000B3
:102D50005083060000000000240000000000000076
:102D60000000000000000000000000000000000063
:102D70005983060000000000618306000000000087
:102D800025000000080000005EEA050000000000C9
:102D90000000000000000000698306000000000041
:102DA0007183060000000000260000000000000003
:102DB0000000000000000000000000000000000013
:102DC00079830600000000008183060000000000F7
:102DD00027000000000000000000000000000000CC
:102DE00000000000000000008983060000000000D1
:102DF0009183060000000000280000000000000091
:102E000000000000000000000000000000000000C2
:102E100099830600000000009D830600000000006A
:102E2000290000000500000066EA0500000000001F
:102E30000000000000000000A18306000000000068
:102E4000A9830600000000002A0000000500000021
:102E50006BEA050000000000000000000000000018
:102E6000BE83060000000000CA83060000000000C8
:102E70002B00000000000000000000000000000027
:102E80000000000000000000D683060000000000E3
:102E9000E3830600000000002C0000000800000092
:102EA00070EA0500000000000000000000000000C3
:102EB000F083060000000000F88306000000000018
:102EC0002D0000000500000078EA05000000000069
:102ED0000000000000000000008406000000000068
:102EE00009840600000000002E0000000000000021
:102EF00000000000000000000000000000000000D2
:102F00001284060000000000128406000000000089
:102F10002F000000080000007DEA0500000000000E
:102F200000000000000000001884060000000000FF
:102F300018840600000000003000000009000000B6
:102F400085EA05000000000000000000000000000D
:102F50002584060000000000258406000000000013
:102F600031000000090000008EEA050000000000AA
:102F70000000000000000000368406000000000091
:102F80003684060000000000320000000900000046
:102F900097EA0500000000000000000000000000AB
:102FA0004284060000000000428406000000000089
:102FB0003300000009000000A0EA05000000000046
:102FC0000000000000000000508406000000000027
:102FD00050840600000000003400000009000000DA
:102FE000A9EA050000000000000000000000000049
:102FF0005C840600000000005C8406000000000005
:103000003500000009000000B2EA050000000000E1
:1030100000000000000000006D84060000000000B9
:103020006D8406000000000036000000090000006A
:10303000BBEA0500000000000000000000000000E6
:103040007F840600000000007F840600000000006E
:103050003700000009000000C4EA0500000000007D
:103060000000000000000000938406000000000043
:1030700093840600000000003800000009000000F2
:10308000CDEA050000000000000000000000000084
:10309000B184060000000000BA84060000000000B1
:1030A0003900000007000000D6EA0500000000001B
:1030B0000000000000000000D884060000000000AE
:1030C000E2840600000000003A0000000800000052
:1030D000DDEA050000000000000000000000000024
:1030E00001850600000000000C85060000000000BD
:1030F0003B00000008000000E5EA050000000000B9
:1031000000000000000000001F8506000000000015
:103110002B850600000000003C00000000000000BD
:10312000000000000000000000000000000000009F
:1031300037850600000000004485060000000000FE
:103140003D00000000000000000000000000000042
:103150000000000000000000518506000000000093
:103160005D850600000000003E0000000000000039
:10317000000000000000000000000000000000004F
:10318000698506000000000076850600000000004A
:103190003F000000000000000000000000000000F0
:1031A0000000000000000000458006000000000054
:1031B00083850600000000004000000005000000BC
:1031C000EDEA050000000000000000000000000023
:1031D0005580060000000000888506000000000001
:1031E0004100000009000000F2EA050000000000B4
:1031F00000000000000000009E85060000000000A6
:10320000A685060000000000420000000500000046
:10321000FBEA0500000000000000000000000000C4
:10322000B185060000000000B9850600000000001E
:10323000430000000500000000EB05000000000056
:103240000000000000000000CB8506000000000028
:10325000DB850600000000004400000009000000BB
:1032600005EB050000000000000000000000000069
:10327000F185060000000000F18506000000000056
:1032800045000000090000000EEB050000000000F2
:103290000000000000000000F885060000000000AB
:1032A0000586060000000000460000000500000042
:1032B00017EB050000000000000000000000000007
:1032C00015860600000000002086060000000000B1
:1032D00047000000090000001CEB05000000000092
:1032E000000000000000000033860600000000001F
:1032F0003D860600000000004800000009000000B4
:1033000025EB0500000000000000000000000000A8
:103310004F860600000000005F86060000000000E7
:1033200049000000090000002EEB0500000000002D
:10333000000000000000000077860600000000008A
:1033400089860600000000004A0000000900000015
:1033500037EB050000000000000000000000000046
:10336000A486060000000000B186060000000000F0
:103370004B0000000900000040EB050000000000C9
:103380000000000000000000C686060000000000EB
:10339000D4860600000000004C0000000900000078
:1033A00049EB0500000000000000000000000000E4
:1033B000EB86060000000000FB860600000000000F
:1033C0004D0000000900000052EB05000000000065
:1033D000000000000000000014870600000000004C
:1033E0001E870600000000004E00000009000000DB
:1033F0005BEB050000000000000000000000000082
:103400002F870600000000003E8706000000000035
:103410004F0000000900000064EB05000000000000
:1034200000000000000000005C87060000000000B3
:10343000658706000000000050000000000000004A
:10344000000000000000000000000000000000007C
:103450006E870600000000006E8706000000000076
:1034600051000000020000006DEB050000000000AC
:10347000000000000000000074870600000000004B
:1034800089870600000000005200000003000000D1
:103490006FEB0500000000000000000000000000CD
:1034A000A787060000000000B087060000000000AB
:1034B000530000000300000072EB05000000000054
:1034C0000000000000000000C187060000000000AE
:1034D000D787060000000000540000000300000031
:1034E00075EB050000000000000000000000000077
:1034F000F7870600000000000688060000000000B4
:10350000550000000300000078EB050000000000FB
:1035100000000000000000002688060000000000F7
:103520003488060000000000560000000300000080
:103530007BEB050000000000000000000000000020
:1035400053880600000000006488060000000000A8
:1035500057000000030000007EEB050000000000A3
:1035600000000000000000007D8806000000000050
:1035700087880600000000005800000003000000DB
:1035800081EB0500000000000000000000000000CA
:103590009988060000000000AD88060000000000C9
:1035A000590000000300000084EB0500000000004B
:1035B0000000000000000000C988060000000000B4
:1035C000E0880600000000005A0000000300000030
:1035D00087EB050000000000000000000000000074
:1035E00000890600000000000789060000000000B6
:1035F0005B000000090000008AEB050000000000ED
:1036000000000000000000000E890600000000001D
:1036100015890600000000005C00000000000000AA
:10362000000000000000000000000000000000009A
:103630001C8906000000000023890600000000002D
:103640005D0000000000000000000000000000001D
:1036500000000000000000002A89060000000000B1
:1036600031890600000000005E000000000000003C
:10367000000000000000000000000000000000004A
:1036800038890600000000003D89060000000000A7
:103690005F0000000400000093EB05000000000044
:1036A0000000000000000000428906000000000049
:1036B0004B890600000000006000000004000000CC
:1036C00097EB050000000000000000000000000073
:1036D00057890600000000005E8906000000000017
:1036E0006100000000000000000000000000000079
:1036F00000000000000000006589060000000000D6
:103700007089060000000000620000000000000058
:1037100000000000000000000000000000000000A9
:103720007B890600000000007E8906000000000082
:1037300063000000030000009BEB05000000000098
:103740000000000000000000888906000000000062
:103750008B890600000000006400000003000000E8
:103760009EEB0500000000000000000000000000CB
:103770009389060000000000938906000000000005
:103780006500000003000000A1EB05000000000040
:103790000000000000000000000000000000000029
:1037A0000000000000000000000000000000000019
:1037B0000000000000000000000000000000000009
:1037C0009C89060000000000B2890600000000008D
:1037D0006700000003000000A4EB050000000000EB
:1037E0000000000000000000D18906000000000079
:1037F000DC890600000000006800000005000000F1
:10380000A7EB050000000000000000000000000021
:10381000E789060000000000E789060000000000BC
:103820006900000003000000ACEB05000000000090
:103830000000000000000000F48906000000000005
:10384000F4890600000000006A0000000300000088
:10385000AFEB0500000000000000000000000000C9
:10386000FA89060000000000FA8906000000000046
:103870006B00000003000000B2EB05000000000038
:103880000000000000000000068A060000000000A2
:10389000108A0600000000006C0000000900000013
:1038A000B5EB050000000000000000000000000073
:1038B0001A8A060000000000248A060000000000AA
:1038C0006D0000000000000000000000000000008B
:1038D00000000000000000002E8A0600000000002A
:1038E000388A0600000000006E00000000000000A2
:1038F00000000000000000000000000000000000C8
:10390000428A0600000000004C8A06000000000009
:103910006F00000000000000000000000000000038
:103920000000000000000000568A060000000000B1
:10393000568A060000000000700000000900000028
:10394000BEEB0500000000000000000000000000C9
:103950006C8A060000000000758A06000000000066
:103960007100000007000000C7EB05000000000028
:103970000000000000000000818A06000000000036
:103980008A8A0600000000007200000000000000AB
:103990000000000000000000000000000000000027
:1039A0004A80060000000000938A06000000000024
:1039B0007300000005000000CEEB050000000000D1
:1039C00000000000000000009F8A060000000000C8
:1039D000A38A060000000000740000000700000039
:1039E000D3EB050000000000000000000000000014
:1039F000B18A060000000000BB8A0600000000003B
:103A00007500000005000000DAEB05000000000072
:103A100000000000000000000000000000000000A6
:103A20000000000000000000000000000000000096
:103A30000000000000000000000000000000000086
:103A4000C58A060000000000D38A060000000000BE
:103A50007700000006000000DFEB0500000000001A
:103A60000000000000000000E48A060000000000E2
:103A7000EC8A06000000000078000000080000004A
:103A8000E5EB050000000000000000000000000061
:103A9000F48A060000000000FC8A06000000000016
:103AA000790000000000000000000000000000009D
:103AB0000000000000000000048B06000000000071
:103AC0000C8B0600000000007A00000000000000DF
:103AD00000000000000000000000000000000000E6
:103AE000148B0600000000001C8B06000000000084
:103AF0007B0000000000000000000000000000004B
:103B00000000000000000000248B06000000000000
:103B1000288B0600000000007C000000060000006A
:103B2000EDEB0500000000000000000000000000B8
:103B30003F8B060000000000448B060000000000E0
:103B40007D0000000B000000F3EB0500000000000A
:103B50000000000000000000558B0600000000007F
:103B6000668B0600000000007E00000003000000DD
:103B7000FEEB050000000000000000000000000057
:103B8000808B060000000000808B06000000000013
:103B90007F0000000600000001EC050000000000AE
:103BA0000000000000000000858B060000000000FF
:103BB000858B060000000000800000000700000068
:103BC00007EC0500000000000000000000000000FD
:103BD0008B8B060000000000968B060000000000A2
:103BE00081000000080000000EEC0500000000004D
:103BF0000000000000000000B48B06000000000080
:103C0000BF8B0600000000008200000008000000DA
:103C100016EC05000000000000000000000000009D
:103C2000DD8B060000000000E98B060000000000AC
:103C300083000000080000001EEC050000000000EA
:103C40000000000000000000F68B060000000000ED
:103C5000068C060000000000840000000800000040
:103C600026EC05000000000000000000000000003D
:103C7000188C060000000000258C060000000000E3
:103C800085000000080000002EEC05000000000088
:103C90000000000000000000338C0600000000005F
:103CA0003D8C060000000000860000000A000000B5
:103CB00036EC0500000000000000000000000000DD
:103CC0005F8C060000000000698C06000000000008
:103CD000870000000A00000040EC05000000000022
:103CE00000000000000000008B8C060000000000B7
:103CF000958C060000000000880000000A0000000B
:103D00004AEC050000000000000000000000000078
:103D1000B28C060000000000B88C06000000000015
:103D2000890000000A00000054EC050000000000BB
:103D30000000000000000000D68C0600000000001B
:103D4000DC8C0600000000008A0000000A00000071
:103D50005EEC050000000000000000000000000014
:103D6000FC8C060000000000028D06000000000030
:103D70008B0000000900000068EC05000000000056
:103D800000000000000000001F8D06000000000081
:103D9000288D0600000000008C00000003000000D9
:103DA00071EC0500000000000000000000000000B1
:103DB000438D0600000000004D8D0600000000004D
:103DC0008D0000000300000074EC050000000000FE
:103DD0000000000000000000648D060000000000EC
:103DE000738D0600000000008E000000030000003C
:103DF00077EC05000000000000000000000000005B
:103E0000838D0600000000008B8D0600000000007E
:103E10008F000000050000007AEC050000000000A3
:103E200000000000000000009E8D06000000000061
:103E3000AF8D060000000000900000000A000000A6
:103E40007FEC050000000000000000000000000002
:103E5000C78D060000000000D78D0600000000009E
:103E6000910000000A00000089EC0500000000003D
:103E70000000000000000000EE8D060000000000C1
:103E8000FC8D060000000000920000000A00000007
:103E900093EC05000000000000000000000000009E
:103EA0001D8E0600000000002B8E060000000000A2
:103EB000930000000A0000009DEC050000000000D7
:103EC00000000000000000004C8E06000000000012
:103ED0005D8E060000000000940000000A00000053
:103EE000A7EC05000000000000000000000000003A
:103EF000798E060000000000898E06000000000098
:103F0000950000000A000000B1EC05000000000070
:103F10000000000000000000A48E06000000000069
:103F2000A48E060000000000960000000B000000B8
:103F3000BBEC0500000000000000000000000000D5
:103F4000AB8E060000000000AB8E060000000000F3
:103F5000970000000B000000C6EC05000000000008
:103F60000000000000000000BF8E060000000000FE
:103F7000BF8E060000000000980000000B0000004B
:103F8000D1EC05000000000000000000000000006F
:103F9000C78E060000000000C78E0600000000006B
:103FA000990000000B000000DCEC050000000000A0
:103FB0000000000000000000CE8E0600000000009F
:103FC000CE8E0600000000009A0000000B000000EA
:103FD000E7EC050000000000000000000000000009
:103FE000D88E060000000000D88E060000000000F9
:103FF0009B0000000B000000F2EC05000000000038
:104000000000000000000000E88E06000000000034
:10401000E88E0600000000009C000000090000007F
:10402000FDEC0500000000000000000000000000A2
:10403000F58E060000000000F58E0600000000006E
:104040009D0000000900000006ED050000000000D2
:104050000000000000000000008F060000000000CB
:10406000008F0600000000009E0000000A00000013
:104070000FED05000000000000000000000000003F
:10408000108F060000000000108F060000000000E6
:104090009F0000000A00000019ED0500000000006C
:1040A0000000000000000000208F0600000000005B
:1040B000208F060000000000A00000000A000000A1
:1040C00023ED0500000000000000000000000000DB
:1040D000288F060000000000288F06000000000066
:1040E000A1000000090000002DED05000000000007
:1040F00000000000000000002E8F060000000000FD
:104100002E8F060000000000A20000000900000041
:1041100036ED050000000000000000000000000077
:10412000358F060000000000358F060000000000FB
:10413000A3000000080000003FED050000000000A3
:104140000000000000000000428F06000000000098
:104150004C8F060000000000A400000008000000D2
:1041600047ED050000000000000000000000000016
:10417000618F0600000000006F8F06000000000045
:10418000A5000000080000004FED05000000000041
:1041900000000000000000008C8F060000000000FE
:1041A000978F060000000000A6000000000000003D
:1041B00000000000000000000000000000000000FF
:1041C000A28F060000000000AD8F06000000000076
:1041D000A70000000900000057ED050000000000E6
:1041E0000000000000000000C18F06000000000079
:1041F000D08F060000000000A800000009000000A9
:1042000060ED05000000000000000000000000005C
:10421000E58F060000000000F48F0600000000009B
:10422000A90000000900000069ED05000000000081
:1042300000000000000000000990060000000000DF
:104240001690060000000000AA000000090000000F
:1042500072ED0500000000000000000000000000FA
:104260002C900600000000003590060000000000C1
:10427000AB0000000A0000007BED0500000000001C
:104280000000000000000000519006000000000047
:104290005890060000000000AC000000090000007B
:1042A00085ED050000000000000000000000000097
:1042B0006A900600000000006A90060000000000FE
:1042C000AD000000030000008EED050000000000BE
:1042D00000000000000000006F90060000000000D9
:1042E0006F90060000000000AE0000000300000018
:1042F00091ED05000000000000000000000000003B
:104300007B900600000000007B900600000000008B
:10431000AF0000000700000094ED05000000000061
:104320000000000000000000819006000000000076
:104330008190060000000000B000000007000000AF
:104340009BED0500000000000000000000000000E0
:1043500087900600000000009B900600000000000F
:10436000B100000008000000A2ED05000000000000
:104370000000000000000000B890060000000000EF
:10438000B890060000000000B20000000800000025
:10439000AAED050000000000000000000000000081
:1043A000BD90060000000000C7900600000000005D
:1043B000B300000008000000B2ED0500000000009E
:1043C0000000000000000000D29006000000000085
:1043D000DE90060000000000B400000008000000AD
:1043E000BAED050000000000000000000000000021
:1043F000EB90060000000000EF90060000000000B7
:10440000B500000001000000C2ED05000000000042
:104410000000000000000000F39006000000000013
:10442000FF90060000000000B60000000100000040
:10443000C3ED0500000000000000000000000000C7
:104440000F91060000000000169106000000000019
:10445000B700000003000000C4ED050000000000EC
:10446000000000000000000029910600000000008C
:104470002F91060000000000B800000005000000B9
:10448000C7ED050000000000000000000000000073
:1044900035910600000000003A910600000000007F
:1044A000B900000006000000CCED0500000000008F
:1044B0000000000000000000459106000000000020
:1044C0004591060000000000BA000000080000004E
:1044D000D2ED050000000000000000000000000018
:1044E0004B910600000000004B9106000000000008
:1044F000BB00000008000000DAED0500000000002D
:1045000000000000000000005191060000000000C3
:104510005791060000000000BC00000009000000E8
:10452000E2ED0500000000000000000000000000B7
:104530005E910600000000005E9106000000000091
:10454000BD0000000A000000EBED050000000000C7
:1045500000000000000000006B9106000000000059
:104560006B91060000000000BE0000000A00000081
:10457000F5ED050000000000000000000000000054
:10458000779106000000000077910600000000000F
:10459000BF0000000A000000FFED05000000000061
:1045A00000000000000000008391060000000000F1
:1045B0008391060000000000C00000000A00000017
:1045C00009EE0500000000000000000000000000EF
:1045D000909106000000000090910600000000008D
:1045E000C10000000A00000013EE050000000000FA
:1045F00000000000000000009C9106000000000088
:104600009C91060000000000C20000000A000000AB
:104610001DEE05000000000000000000000000008A
:10462000A991060000000000A9910600000000000A
:10463000C30000000A00000027EE05000000000093
:104640000000000000000000B6910600000000001D
:10465000B691060000000000C40000000B0000003E
:1046600031EE050000000000000000000000000026
:10467000C791060000000000C7910600000000007E
:10468000C50000000B0000003CEE0500000000002B
:104690000000000000000000D891060000000000AB
:1046A000D891060000000000C60000000B000000CA
:1046B00047EE0500000000000000000000000000C0
:1046C000E991060000000000E991060000000000EA
:1046D000C70000000B00000052EE050000000000C3
:1046E0000000000000000000FD9106000000000036
:1046F000FD91060000000000C80000000B00000053
:104700005DEE050000000000000000000000000059
:104710001C920600000000001C9206000000000031
:10472000C90000000B00000068EE0500000000005A
:1047300000000000000000003B92060000000000A6
:104740003B92060000000000CA0000000B000000C1
:1047500073EE0500000000000000000000000000F3
:104760005A920600000000005A9206000000000065
:10477000CB0000000B0000007EEE050000000000F2
:104780000000000000000000799206000000000018
:104790007992060000000000CC0000000B00000031
:1047A00089EE05000000000000000000000000008D
:1047B0008D920600000000008D92060000000000AF
:1047C000CD0000000B00000094EE0500000000008A
:1047D0000000000000000000A2920600000000009F
:1047E000A292060000000000CE0000000B000000B6
:1047F0009FEE050000000000000000000000000027
:10480000BA92060000000000BA9206000000000004
:10481000CF0000000B000000AAEE05000000000021
:104820000000000000000000CE9206000000000022
:10483000CE92060000000000D00000000B00000037
:10484000B5EE0500000000000000000000000000C0
:10485000E292060000000000E29206000000000064
:10486000D10000000B000000C0EE050000000000B9
:104870000000000000000000FA92060000000000A6
:10488000FA92060000000000D20000000B000000B9
:10489000CBEE05000000000000000000000000005A
:1048A00016930600000000001693060000000000AA
:1048B000D30000000B000000D6EE05000000000051
:1048C000000000000000000033930600000000001C
:1048D0003393060000000000D40000000B0000002D
:1048E000E1EE0500000000000000000000000000F4
:1048F0004E930600000000004E93060000000000EA
:10490000D50000000B000000ECEE050000000000E8
:104910000000000000000000689306000000000096
:104920006893060000000000D60000000B000000A5
:10493000F7EE05000000000000000000000000008D
:10494000849306000000000084930600000000002D
:10495000D70000000B00000002EF0500000000007F
:1049600000000000000000009C9306000000000012
:104970009C93060000000000D80000000B0000001F
:104980000DEF050000000000000000000000000026
:10499000B593060000000000B5930600000000007B
:1049A000D90000000B00000018EF05000000000017
:1049B0000000000000000000D2930600000000008C
:1049C000D293060000000000DA0000000B00000097
:1049D00023EF0500000000000000000000000000C0
:1049E000F093060000000000F093060000000000B5
:1049F000DB0000000B0000002EEF050000000000AF
:104A00000000000000000000059406000000000007
:104A10000594060000000000DC0000000B00000010
:104A200039EF050000000000000000000000000059
:104A300022940600000000002294060000000000FE
:104A4000DD0000000B00000044EF05000000000046
:104A500000000000000000003F940600000000007D
:104A60003F94060000000000DE0000000B00000084
:104A70004FEF0500000000000000000000000000F3
:104A80005994060000000000599406000000000040
:104A9000DF0000000B0000005AEF050000000000DE
:104AA00000000000000000007894060000000000F4
:104AB0007894060000000000E00000000B000000F9
:104AC00065EF05000000000000000000000000008D
:104AD0009694060000000000969406000000000076
:104AE000E10000000B00000070EF05000000000076
:104AF0000000000000000000B1940600000000006B
:104B0000B194060000000000E20000000B0000006D
:104B10007BEF050000000000000000000000000026
:104B2000CD94060000000000CD94060000000000B7
:104B3000E30000000B00000086EF0500000000000D
:104B40000000000000000000EC94060000000000DF
:104B5000EC94060000000000E40000000B000000E0
:104B600091EF0500000000000000000000000000C0
:104B70000B950600000000000B95060000000000E9
:104B8000E50000000B0000009CEF050000000000A5
:104B90000000000000000000269506000000000054
:104BA0002695060000000000E60000000B00000053
:104BB000A7EF05000000000000000000000000005A
:104BC0004395060000000000439506000000000029
:104BD000E70000000B000000B2EF0500000000003D
:104BE00000000000000000006495060000000000C6
:104BF0006495060000000000E80000000B000000C3
:104C0000BDEF0500000000000000000000000000F3
:104C10008495060000000000849506000000000056
:104C2000E90000000B000000C8EF050000000000D4
:104C30000000000000000000A39506000000000036
:104C4000A395060000000000EA0000000B00000031
:104C5000D3EF05000000000000000000000000008D
:104C6000BE95060000000000BE9506000000000092
:104C7000EB0000000B000000DEEF0500000000006C
:104C80000000000000000000DF95060000000000AA
:104C9000DF95060000000000EC0000000B000000A3
:104CA000E9EF050000000000000000000000000027
:104CB000FC95060000000000FC95060000000000C6
:104CC000ED0000000B000000F4EF05000000000004
:104CD00000000000000000001D960600000000001B
:104CE0001D96060000000000EE0000000B00000012
:104CF000FFEF0500000000000000000000000000C1
:104D00003E960600000000003E96060000000000EF
:104D1000EF0000000B0000000AF00500000000009A
:104D2000000000000000000058960600000000008F
:104D30005896060000000000F00000000B00000084
:104D400015F0050000000000000000000000000059
:104D50006D960600000000006D9606000000000041
:104D6000F10000000B00000020F005000000000032
:104D70000000000000000000879606000000000010
:104D80008796060000000000F20000000B00000003
:104D90002BF00500000000000000000000000000F3
:104DA000A096060000000000A0960600000000008B
:104DB000F30000000B00000036F0050000000000CA
:104DC0000000000000000000B69606000000000091
:104DD000B696060000000000F40000000B00000082
:104DE00041F005000000000000000000000000008D
:104DF000CB96060000000000CB96060000000000E5
:104E0000F50000000B0000004CF005000000000061
:104E10000000000000000000DD9606000000000019
:104E2000DD96060000000000F60000000B00000008
:104E300057F0050000000000000000000000000026
:104E4000F696060000000000F6960600000000003E
:104E5000F70000000B00000062F0050000000000F9
:104E600000000000000000000E9706000000000097
:104E70000E97060000000000F80000000B00000084
:104E80006DF00500000000000000000000000000C0
:104E90001F970600000000001F970600000000009A
:104EA000F90000000B00000078F005000000000091
:104EB000000000000000000038970600000000001D
:104EC0003897060000000000FA0000000B00000008
:104ED00083F005000000000000000000000000005A
:104EE00055970600000000005597060000000000DE
:104EF000FB0000000B0000008EF005000000000029
:104F00000000000000000000749706000000000090
:104F10007497060000000000FC0000000B00000079
:104F200099F00500000000000000000000000000F3
:104F3000949706000000000094970600000000000F
:104F4000FD0000000B000000A4F0050000000000C0
:104F50000000000000000000B597060000000000FF
:104F6000B597060000000000FE0000000B000000E6
:104F7000AFF005000000000000000000000000008D
:104F8000D497060000000000D4970600000000003F
:104F9000FF0000000B000000BAF005000000000058
:104FA0000000000000000000F5970600000000006F
:104FB000F597060000000000000100000B00000053
:104FC000C5F0050000000000000000000000000027
:104FD00016980600000000001A9806000000000065
:104FE0000101000008000000D0F0050000000000F2
:104FF00000000000000000001E98060000000000F5
:105000001E980600000000000201000007000000DA
:10501000D8F00500000000000000000000000000C3
:105020002A980600000000002A98060000000000F0
:105030000301000007000000DFF005000000000091
:105040000000000000000000309806000000000092
:105050003098060000000000040100000700000076
:10506000E6F0050000000000000000000000000065
:105070003698060000000000369806000000000088
:105080000501000007000000EDF005000000000031
:1050900000000000000000003E9806000000000034
:1050A0003E98060000000000060100000700000016
:1050B000F4F0050000000000000000000000000007
:1050C000459806000000000045980600000000001A
:1050D0000701000007000000FBF0050000000000D1
:1050E00000000000000000004C98060000000000D6
:1050F0004C980600000000000801000007000000B6
:1051000002F10500000000000000000000000000A7
:1051100052980600000000005298060000000000AF
:10512000090100000700000009F10500000000006F
:105130000000000000000000599806000000000078
:1051400059980600000000000A0100000700000056
:1051500010F1050000000000000000000000000049
:105160006098060000000000609806000000000043
:105170000B0100000700000017F10500000000000F
:10518000000000000000000067980600000000001A
:1051900067980600000000000C01000007000000F6
:1051A0001EF10500000000000000000000000000EB
:1051B0006E980600000000006E98060000000000D7
:1051C0000D0100000800000025F1050000000000AE
:1051D00000000000000000008398060000000000AE
:1051E00083980600000000000E0100000800000087
:1051F0002DF105000000000000000000000000008C
:105200009898060000000000989806000000000032
:105210000F0100000800000035F10500000000004B
:105220000000000000000000AD9806000000000033
:10523000AD9806000000000010010000080000000A
:105240003DF105000000000000000000000000002B
:10525000C298060000000000C2980600000000008E
:10526000110100000800000045F1050000000000E9
:105270000000000000000000CE98060000000000C2
:10528000CE98060000000000120100000800000097
:105290004DF10500000000000000000000000000CB
:1052A000D998060000000000D99806000000000010
:1052B000130100000800000055F105000000000087
:1052C0000000000000000000EF9806000000000051
:1052D000EF98060000000000140100000800000024
:1052E0005DF105000000000000000000000000006B
:1052F0000599060000000000059906000000000066
:10530000150100000800000065F105000000000024
:1053100000000000000000001099060000000000DE
:1053200010990600000000001601000008000000AF
:105330006DF105000000000000000000000000000A
:1053400029990600000000002999060000000000CD
:10535000170100000800000075F1050000000000C2
:10536000000000000000000042990600000000005C
:10537000429906000000000018010000080000002B
:105380007DF10500000000000000000000000000AA
:10539000589906000000000058990600000000001F
:1053A000190100000800000085F105000000000060
:1053B00000000000000000007299060000000000DC
:1053C00072990600000000001A01000008000000A9
:1053D0008DF105000000000000000000000000004A
:1053E0007E990600000000007E9906000000000083
:1053F0001B0100000800000095F1050000000000FE
:1054000000000000000000008A9906000000000073
:105410008A990600000000001C010000080000003E
:105420009DF10500000000000000000000000000E9
:105430009999060000000000A799060000000000EE
:105440001D01000008000000A5F10500000000009B
:105450000000000000000000B699060000000000F7
:10546000B6990600000000001E01000008000000C0
:10547000ADF1050000000000000000000000000089
:10548000C399060000000000C39906000000000058
:105490001F01000008000000B5F105000000000039
:1054A0000000000000000000D2990600000000008B
:1054B000D299060000000000200100000800000052
:1054C000BDF1050000000000000000000000000029
:1054D000DF99060000000000DF99060000000000D0
:1054E0002101000008000000C5F1050000000000D7
:1054F0000000000000000000EA9906000000000023
:10550000EA990600000000002201000008000000E7
:10551000CDF10500000000000000000000000000C8
:10552000FB99060000000000FB9906000000000047
:105530002301000008000000D5F105000000000074
:105540000000000000000000119A060000000000AA
:10555000119A06000000000024010000080000006D
:10556000DDF1050000000000000000000000000068
:10557000279A060000000000279A0600000000009D
:105580002501000008000000E5F105000000000012
:105590000000000000000000329A06000000000039
:1055A000419A0600000000002601000008000000EB
:1055B000EDF1050000000000000000000000000008
:1055C000529A0600000000005E9A060000000000EB
:1055D0002701000008000000F5F1050000000000B0
:1055E00000000000000000006B9A060000000000B0
:1055F000759A060000000000280100000800000065
:10560000FDF10500000000000000000000000000A7
:10561000809A060000000000859A06000000000045
:10562000290100000800000005F20500000000004C
:1056300000000000000000008A9A06000000000040
:105640008A9A0600000000002A01000008000000FD
:105650000DF2050000000000000000000000000046
:105660009E9A0600000000009E9A060000000000BE
:105670002B0100000800000015F2050000000000EA
:105680000000000000000000B59A060000000000C5
:10569000B59A0600000000002C0100000800000080
:1056A0001DF20500000000000000000000000000E6
:1056B000CB9A060000000000CB9A06000000000014
:1056C0002D0100000800000025F205000000000088
:1056D0000000000000000000E29A06000000000048
:1056E000E29A0600000000002E0100000800000001
:1056F0002DF2050000000000000000000000000086
:10570000F89A060000000000F89A06000000000069
:105710002F0100000800000035F205000000000025
:105720000000000000000000099B060000000000CF
:10573000099B060000000000300100000800000086
:105740003DF2050000000000000000000000000025
:105750001F9B0600000000001F9B060000000000C9
:10576000310100000800000045F2050000000000C3
:105770000000000000000000399B0600000000004F
:10578000399B060000000000320100000800000004
:105790004DF20500000000000000000000000000C5
:1057A000549B060000000000549B0600000000000F
:1057B000330100000800000055F205000000000061
:1057C00000000000000000006A9B060000000000CE
:1057D0006A9B060000000000340100000800000081
:1057E0005DF2050000000000000000000000000065
:1057F000809B060000000000809B06000000000067
:10580000350100000800000065F2050000000000FE
:105810000000000000000000949B06000000000053
:10582000949B060000000000360100000800000004
:105830006DF2050000000000000000000000000004
:10584000AA9B060000000000AA9B060000000000C2
:10585000370100000800000075F20500000000009C
:105860000000000000000000C09B060000000000D7
:10587000C09B060000000000380100000800000086
:105880007DF20500000000000000000000000000A4
:10589000D59B060000000000D59B0600000000001C
:1058A000390100000800000085F20500000000003A
:1058B0000000000000000000E09B06000000000067
:1058C000E09B0600000000003A0100000800000014
:1058D0008DF2050000000000000000000000000044
:1058E000EB9B060000000000EB9B060000000000A0
:1058F0003B0100000900000095F2050000000000D7
:105900000000000000000000FF9B060000000000F7
:10591000FF9B0600000000003C01000009000000A1
:105920009EF20500000000000000000000000000E2
:10593000189C060000000000189C060000000000F3
:105940003D01000009000000A7F205000000000072
:105950000000000000000000369C0600000000006F
:10596000369C0600000000003E0100000900000017
:10597000B0F2050000000000000000000000000080
:10598000539C060000000000539C0600000000002D
:105990003F01000009000000B9F20500000000000E
:1059A0000000000000000000689C060000000000ED
:1059B000689C060000000000400100000900000093
:1059C000C2F205000000000000000000000000001E
:1059D000839C060000000000839C0600000000007D
:1059E0004101000009000000CBF2050000000000AA
:1059F0000000000000000000989C0600000000006D
:105A0000989C060000000000420100000900000010
:105A1000D4F20500000000000000000000000000BB
:105A2000AB9C060000000000AB9C060000000000DC
:105A30004301000008000000DDF205000000000046
:105A40000000000000000000B89C060000000000FC
:105A5000B89C06000000000044010000080000009F
:105A6000E5F205000000000000000000000000005A
:105A7000CB9C060000000000CB9C0600000000004C
:105A80004501000008000000EDF2050000000000E4
:105A90000000000000000000E39C06000000000081
:105AA000E39C060000000000460100000800000022
:105AB000F5F20500000000000000000000000000FA
:105AC000F19C060000000000F19C060000000000B0
:105AD0004701000008000000FDF205000000000082
:105AE0000000000000000000039D06000000000010
:105AF000039D0600000000004801000008000000AF
:105B000005F3050000000000000000000000000098
:105B1000199D060000000000199D0600000000000D
:105B200049010000080000000DF30500000000001E
:105B300000000000000000002E9D06000000000094
:105B40002E9D0600000000004A0100000800000031
:105B500015F3050000000000000000000000000038
:105B6000409D060000000000409D0600000000006F
:105B70004B010000080000001DF3050000000000BC
:105B80000000000000000000559D0600000000001D
:105B9000559D0600000000004C01000008000000B8
:105BA00025F30500000000000000000000000000D8
:105BB000689D060000000000689D060000000000CF
:105BC0004D010000080000002DF30500000000005A
:105BD00000000000000000007E9D060000000000A4
:105BE0007E9D0600000000004E010000080000003D
:105BF00035F3050000000000000000000000000078
:105C0000939D060000000000939D06000000000028
:105C10004F010000080000003DF3050000000000F7
:105C20000000000000000000A79D0600000000002A
:105C3000A79D0600000000005001000008000000C1
:105C400045F3050000000000000000000000000017
:105C5000BB9D060000000000BB9D06000000000088
:105C600051010000080000004DF305000000000095
:105C70000000000000000000D09D060000000000B1
:105C8000D09D060000000000520100000800000046
:105C900055F30500000000000000000000000000B7
:105CA000DF9D060000000000DF9D060000000000F0
:105CB00053010000080000005DF305000000000033
:105CC0000000000000000000ED9D06000000000044
:105CD000ED9D0600000000005401000008000000D7
:105CE00065F3050000000000000000000000000057
:105CF000029E060000000000029E06000000000058
:105D000055010000080000006DF3050000000000D0
:105D10000000000000000000119E060000000000CE
:105D2000119E06000000000056010000080000005F
:105D300075F30500000000000000000000000000F6
:105D4000259E060000000000259E060000000000C1
:105D500057010000080000007DF30500000000006E
:105D60000000000000000000399E06000000000056
:105D7000399E0600000000005801000008000000E5
:105D800085F3050000000000000000000000000096
:105D90004E9E0600000000004E9E0600000000001F
:105DA00059010000080000008DF30500000000000C
:105DB0000000000000000000649E060000000000DB
:105DC000649E0600000000005A0100000800000068
:105DD00095F3050000000000000000000000000036
:105DE000819E060000000000819E06000000000069
:105DF0005B010000080000009DF3050000000000AA
:105E00000000000000000000949E0600000000005A
:105E1000949E0600000000005C01000008000000E5
:105E2000A5F30500000000000000000000000000D5
:105E3000A79E060000000000A79E060000000000CC
:105E40005D01000008000000ADF305000000000047
:105E50000000000000000000000000000000000042
:105E60000000000000000000000000000000000032
:105E70000000000000000000000000000000000022
:105E8000BB9E060000000000BB9E06000000000054
:105E90005F01000008000000B5F3050000000000ED
:105EA0000000000000000000C99E06000000000085
:105EB000C99E06000000000060010000080000000C
:105EC000BDF305000000000000000000000000001D
:105ED000E59E060000000000E59E060000000000B0
:105EE0006101000008000000C5F30500000000008B
:105EF0000000000000000000FF9E060000000000FF
:105F0000FF9E060000000000620100000800000083
:105F1000CDF30500000000000000000000000000BC
:105F2000199F060000000000199F060000000000F5
:105F30006301000008000000D5F305000000000028
:105F400000000000000000002F9F0600000000007D
:105F50002F9F060000000000640100000800000000
:105F6000DDF305000000000000000000000000005C
:105F7000479F060000000000479F06000000000049
:105F80006501000008000000E5F3050000000000C6
:105F90000000000000000000549F06000000000008
:105FA000549F060000000000660100000800000089
:105FB000EDF30500000000000000000000000000FC
:105FC000609F060000000000609F060000000000C7
:105FD0006701000008000000F5F305000000000064
:105FE0000000000000000000779F06000000000095
:105FF000779F060000000000680100000800000014
:10600000FDF305000000000000000000000000009B
:10601000829F060000000000829F06000000000032
:10602000690100000800000005F405000000000000
:106030000000000000000000919F0600000000002A
:10604000919F0600000000006A01000008000000A7
:106050000DF405000000000000000000000000003A
:10606000A49F060000000000B49F0600000000008E
:106070006B0100000800000015F40500000000009E
:106080000000000000000000C59F060000000000A6
:10609000CD9F0600000000006C0100000800000019
:1060A0001DF40500000000000000000000000000DA
:1060B000D59F060000000000E79F060000000000DA
:1060C0006D0100000900000025F40500000000003B
:1060D0000000000000000000FB9F06000000000020
:1060E00001A00600000000006E0100000900000091
:1060F0002EF4050000000000000000000000000079
:106100000CA006000000000012A006000000000025
:106110006F0100000900000037F4050000000000D6
:1061200000000000000000001EA0060000000000AB
:1061300032A006000000000070010000090000000D
:1061400040F4050000000000000000000000000016
:106150004CA006000000000054A006000000000053
:10616000710100000900000049F405000000000072
:10617000000000000000000062A006000000000017
:1061800070A006000000000072010000090000007D
:1061900052F40500000000000000000000000000B4
:1061A00084A006000000000093A00600000000008C
:1061B00073010000090000005BF40500000000000E
:1061C0000000000000000000A8A006000000000081
:1061D000B7A00600000000007401000009000000E4
:1061E00064F4050000000000000000000000000052
:1061F000CCA0060000000000CCA0060000000000BB
:1062000075010000090000006DF4050000000000A9
:106210000000000000000000D2A006000000000006
:10622000D2A0060000000000760100000900000076
:1062300076F40500000000000000000000000000EF
:10624000D7A0060000000000E1A00600000000004A
:1062500077010000090000007FF405000000000045
:106260000000000000000000ECA00600000000009C
:10627000ECA006000000000078010000040000000F
:1062800088F405000000000000000000000000008D
:10629000F6A0060000000000F6A0060000000000C6
:1062A00079010000050000008CF4050000000000EA
:1062B000000000000000000003A106000000000034
:1062C00012A10600000000007A0100000200000098
:1062D00091F4050000000000000000000000000034
:1062E00032A106000000000036A1060000000000F8
:1062F0007B0100000100000093F405000000000095
:1063000000000000000000003AA1060000000000AC
:106310003EA10600000000007C0100000200000019
:1063200094F40500000000000000000000000000E0
:1063300042A106000000000047A106000000000086
:106340007D0100000300000096F40500000000003D
:1063500000000000000000004CA10600000000004A
:1063600056A10600000000007E01000004000000AD
:1063700099F405000000000000000000000000008B
:1063800060A106000000000065A1060000000000FA
:106390007F010000040000009DF4050000000000E3
:1063A000000000000000000070A1060000000000D6
:1063B0007DA1060000000000800100000400000034
:1063C000A1F4050000000000000000000000000033
:1063D0008AA106000000000092A106000000000053
:1063E0008101000004000000A5F405000000000089
:1063F00000000000000000009AA10600000000005C
:10640000A3A10600000000008201000004000000BB
:10641000A9F40500000000000000000000000000DA
:10642000ACA1060000000000B3A1060000000000BF
:106430008301000004000000ADF40500000000002E
:106440000000000000000000BAA1060000000000EB
:10645000BAA1060000000000840100000400000052
:10646000B1F4050000000000000000000000000082
:10647000BFA1060000000000CBA106000000000044
:106480008501000005000000B5F4050000000000D3
:106490000000000000000000D7A10600000000007E
:1064A000E0A10600000000008601000009000000D5
:1064B000BAF4050000000000000000000000000029
:1064C000E9A1060000000000ECA1060000000000A9
:1064D000870100000A000000C3F40500000000006E
:1064E0000000000000000000FCA106000000000009
:1064F00003A2060000000000880100000A0000005E
:10650000CDF40500000000000000000000000000C5
:106510000AA20600000000000AA206000000000017
:106520008901000001000000D7F405000000000010
:1065300000000000000000000FA2060000000000A4
:1065400028A20600000000008A01000003000000ED
:10655000D8F405000000000000000000000000006A
:1065600041A206000000000041A206000000000059
:106570008B01000004000000DBF4050000000000B7
:1065800000000000000000004BA206000000000018
:1065900053A20600000000008C010000090000006A
:1065A000DFF4050000000000000000000000000013
:1065B00068A206000000000068A2060000000000BB
:1065C0008D01000008000000E8F405000000000054
:1065D000000000000000000074A20600000000009F
:1065E00086A20600000000008E01000008000000E6
:1065F000F0F40500000000000000000000000000B2
:10660000A1A2060000000000A1A2060000000000F8
:106610008F01000008000000F8F4050000000000F1
:106620000000000000000000B1A206000000000011
:10663000B1A206000000000090010000030000006D
:1066400000F5050000000000000000000000000050
:10665000B6A2060000000000C8A20600000000006C
:10666000910100000300000003F505000000000098
:106670000000000000000000E2A206000000000090
:10668000F4A20600000000009201000003000000D8
:1066900006F50500000000000000000000000000FA
:1066A00008A306000000000013A30600000000007D
:1066B000930100000300000009F505000000000040
:1066C00000000000000000000AA206000000000018
:1066D0000AA2060000000000940100000100000072
:1066E0000CF50500000000000000000000000000A4
:1066F00032A30600000000003DA3060000000000D9
:1067000095010000050000000DF5050000000000E7
:10671000000000000000000048A306000000000088
:1067200048A30600000000009601000007000000DA
:1067300012F505000000000000000000000000004D
:1067400054A306000000000054A30600000000004F
:10675000970100000700000019F505000000000087
:1067600000000000000000006DA306000000000013
:106770006DA3060000000000980100000700000063
:1067800020F50500000000000000000000000000EF
:106790007CA30600000000007CA3060000000000AF
:1067A000990100000800000027F505000000000026
:1067B000000000000000000087A3060000000000A9
:1067C00087A30600000000009A01000008000000F6
:1067D0002FF5050000000000000000000000000090
:1067E00092A306000000000092A306000000000033
:1067F0009B0100000800000037F5050000000000C4
:1068000000000000000000009DA306000000000042
:106810009DA30600000000009C010000080000008D
:106820003FF505000000000000000000000000002F
:10683000A8A3060000000000A8A3060000000000B6
:106840009D0100000800000047F505000000000061
:106850000000000000000000B3A3060000000000DC
:10686000B3A30600000000009E0100000800000025
:106870004FF50500000000000000000000000000CF
:10688000BEA3060000000000BEA30600000000003A
:106890009F0100000800000057F5050000000000FF
:1068A0000000000000000000C9A306000000000076
:1068B000C9A3060000000000A001000007000000BE
:1068C0005FF505000000000000000000000000006F
:1068D000D9A3060000000000E1A3060000000000AC
:1068E000A10100000900000066F50500000000009D
:1068F0000000000000000000F4A3060000000000FB
:1069000000A4060000000000A20100000900000031
:106910006FF505000000000000000000000000000E
:106920000CA406000000000018A4060000000000EF
:10693000A30100000900000078F505000000000038
:10694000000000000000000024A406000000000079
:1069500030A4060000000000A401000009000000AF
:1069600081F50500000000000000000000000000AC
:106970003CA406000000000048A40600000000003F
:10698000A5010000090000008AF5050000000000D4
:10699000000000000000000054A4060000000000F9
:1069A00060A4060000000000A6010000090000002D
:1069B00093F505000000000000000000000000004A
:1069C0006CA406000000000078A40600000000008F
:1069D000A7010000090000009CF505000000000070
:1069E000000000000000000084A406000000000079
:1069F00090A4060000000000A801000009000000AB
:106A0000A5F50500000000000000000000000000E7
:106A10009CA4060000000000A8A4060000000000DE
:106A2000A901000009000000AEF50500000000000B
:106A30000000000000000000B4A4060000000000F8
:106A4000C0A4060000000000AA0100000900000028
:106A5000B7F5050000000000000000000000000085
:106A6000CCA4060000000000D8A40600000000002E
:106A7000AB01000009000000C0F5050000000000A7
:106A80000000000000000000E4A406000000000078
:106A9000F0A4060000000000AC01000009000000A6
:106AA000C9F5050000000000000000000000000023
:106AB000FCA406000000000008A50600000000007D
:106AC000AD01000009000000D2F505000000000043
:106AD000000000000000000014A5060000000000F7
:106AE00028A5060000000000AE0100000300000021
:106AF000DBF50500000000000000000000000000C1
:106B00003EA506000000000052A50600000000009F
:106B1000AF01000007000000DEF5050000000000E6
:106B2000000000000000000068A506000000000052
:106B300082A5060000000000B00100000700000070
:106B4000E5F5050000000000000000000000000066
:106B50009FA5060000000000B5A50600000000008B
:106B6000B101000007000000ECF505000000000086
:106B70000000000000000000CDA50600000000009D
:106B8000CDA5060000000000B201000001000000D9
:106B9000F3F5050000000000000000000000000008
:106BA000D2A5060000000000D2A5060000000000EB
:106BB000B301000003000000F4F505000000000030
:106BC0000000000000000000D6A506000000000044
:106BD000D6A5060000000000B40100000700000078
:106BE000F7F50500000000000000000000000000B4
:106BF000DAA5060000000000DAA50600000000008B
:106C0000B501000008000000FEF5050000000000CE
:106C10000000000000000000E0A5060000000000E9
:106C2000E0A5060000000000B60100000900000019
:106C300006F6050000000000000000000000000053
:106C4000F3A5060000000000F3A506000000000008
:106C5000B7010000090000000FF605000000000069
:106C6000000000000000000008A606000000000070
:106C700008A6060000000000B8010000090000009E
:106C800018F60500000000000000000000000000F1
:106C900019A606000000000019A60600000000006A
:106CA000B90100000900000021F605000000000005
:106CB000000000000000000025A606000000000003
:106CC00025A6060000000000BA0100000A0000002E
:106CD0002AF605000000000000000000000000008F
:106CE00035A606000000000035A6060000000000E2
:106CF000BB0100000A00000034F60500000000009F
:106D000000000000000000004FA606000000000088
:106D10004FA6060000000000BC0100000A000000B1
:106D20003EF605000000000000000000000000002A
:106D30005BA60600000000005BA606000000000045
:106D4000BD0100000A00000048F605000000000038
:106D5000000000000000000067A606000000000020
:106D600067A6060000000000BE0100000A00000047
:106D700052F60500000000000000000000000000C6
:106D80006FA60600000000006FA6060000000000CD
:106D9000BF0100000A0000005CF6050000000000D2
:106DA000000000000000000078A6060000000000BF
:106DB00078A6060000000000C00100000A000000E4
:106DC00066F6050000000000000000000000000062
:106DD0007DA60600000000007DA606000000000061
:106DE000C10100000A00000070F60500000000006C
:106DF00000000000000000008CA60600000000005B
:106E00008CA6060000000000C20100000A0000007D
:106E10007AF60500000000000000000000000000FD
:106E20009CA60600000000009CA6060000000000D2
:106E3000C30100000A00000084F605000000000005
:106E40000000000000000000A6A6060000000000F0
:106E5000A6A6060000000000C40100000A00000011
:106E60008EF6050000000000000000000000000099
:106E7000BAA6060000000000BAA606000000000046
:106E8000C50100000A00000098F60500000000009F
:106E90000000000000000000CAA60600000000007C
:106EA000CAA6060000000000C60100000A0000009B
:106EB000A2F6050000000000000000000000000035
:106EC000DFA6060000000000DFA6060000000000AC
:106ED000C70100000A000000ACF605000000000039
:106EE0000000000000000000F1A606000000000005
:106EF000F1A6060000000000C80100000A00000022
:106F0000B6F60500000000000000000000000000D0
:106F1000FAA6060000000000FAA606000000000025
:106F2000C90100000A000000C0F6050000000000D2
:106F300000000000000000000EA706000000000096
:106F400012A7060000000000CA0100000A000000AD
:106F5000CAF605000000000000000000000000006C
:106F600019A706000000000019A706000000000095
:106F7000CB0100000A000000D4F60500000000006C
:106F800000000000000000002EA706000000000026
:106F900033A7060000000000CC0100000A0000003A
:106FA000DEF6050000000000000000000000000008
:106FB00041A706000000000041A7060000000000F5
:106FC000CD0100000A000000E8F605000000000006
:106FD000000000000000000046A7060000000000BE
:106FE00046A7060000000000CE0100000A000000D5
:106FF000F2F60500000000000000000000000000A4
:1070000055A706000000000055A70600000000007C
:10701000CF0100000A000000FCF60500000000009F
:10702000000000000000000060A706000000000053
:1070300060A7060000000000D00100000A00000068
:1070400006F705000000000000000000000000003E
:1070500066A706000000000066A70600000000000A
:10706000D10100000A00000010F705000000000038
:10707000000000000000000070A7060000000000F3
:1070800070A7060000000000D20100000A00000006
:107090001AF70500000000000000000000000000DA
:1070A00075A706000000000075A70600000000009C
:1070B000D30100000A00000024F7050000000000D2
:1070C00000000000000000007DA706000000000096
:1070D0007DA7060000000000D40100000A000000A7
:1070E0002EF7050000000000000000000000000076
:1070F00090A706000000000090A706000000000016
:10710000D50100000A00000038F70500000000006B
:1071100000000000000000009EA706000000000024
:107120009EA7060000000000D60100000A00000033
:1071300042F7050000000000000000000000000011
:10714000AEA7060000000000AEA706000000000089
:10715000D70100000A0000004CF705000000000005
:107160000000000000000000BDA7060000000000B5
:10717000BDA7060000000000D80100000A000000C2
:1071800056F70500000000000000000000000000AD
:10719000CEA7060000000000CEA7060000000000F9
:1071A000D90100000A00000060F70500000000009F
:1071B0000000000000000000E2A706000000000040
:1071C000E2A7060000000000DA0100000A0000004B
:1071D0006AF7050000000000000000000000000049
:1071E000ECA7060000000000ECA70600000000006D
:1071F000DB0100000A00000074F705000000000039
:107200000000000000000000F9A7060000000000D8
:10721000F9A7060000000000DC0100000A000000E1
:107220007EF70500000000000000000000000000E4
:107230000AA80600000000000AA8060000000000DE
:10724000DD0100000A00000088F7050000000000D2
:10725000000000000000000019A806000000000067
:1072600019A8060000000000DE0100000A0000006E
:1072700092F7050000000000000000000000000080
:1072800021A806000000000021A806000000000060
:10729000DF0100000A0000009CF70500000000006C
:1072A000000000000000000036A8060000000000FA
:1072B00036A8060000000000E00100000A000000FF
:1072C000A6F705000000000000000000000000001C
:1072D0003FA80600000000003FA8060000000000D4
:1072E000E10100000A000000B0F705000000000006
:1072F000000000000000000048A806000000000098
:1073000048A8060000000000E20100000A0000009A
:10731000BAF70500000000000000000000000000B7
:1073200052A806000000000052A80600000000005D
:10733000E30100000A000000C4F70500000000009F
:1073400000000000000000005EA806000000000031
:107350005EA8060000000000E40100000A00000032
:10736000CEF7050000000000000000000000000053
:107370006FA80600000000006FA8060000000000D3
:10738000E50100000A000000D8F705000000000039
:1073900000000000000000007EA8060000000000C1
:1073A0007EA8060000000000E60100000A000000C0
:1073B000E2F70500000000000000000000000000EF
:1073C00090A806000000000090A806000000000041
:1073D000E70100000A000000ECF7050000000000D3
:1073E00000000000000000009EA806000000000051
:1073F0009EA8060000000000E80100000A0000004E
:10740000F6F705000000000000000000000000008A
:10741000B4A8060000000000B4A8060000000000A8
:10742000E90100000A00000000F80500000000006B
:107430000000000000000000C9A8060000000000D5
:10744000C9A8060000000000EA0100000A000000D0
:107450000AF8050000000000000000000000000025
:10746000DDA8060000000000DDA806000000000006
:10747000EB0100000A00000014F805000000000005
:107480000000000000000000F2A80600000000005C
:10749000F2A8060000000000EC0100000A00000055
:1074A0001EF80500000000000000000000000000C1
:1074B000FFA8060000000000FFA806000000000072
:1074C000ED0100000A00000028F80500000000009F
:1074D000000000000000000014A9060000000000E9
:1074E00014A9060000000000EE0100000A000000E0
:1074F00032F805000000000000000000000000005D
:1075000021A906000000000021A9060000000000DB
:10751000EF0100000A0000003CF805000000000038
:1075200000000000000000002CA906000000000080
:107530002CA9060000000000F00100000A00000075
:1075400046F80500000000000000000000000000F8
